{
  "_format": "hh-sol-artifact-1",
  "contractName": "BorrowYourCar",
  "sourceName": "contracts/BorrowYourCar.sol",
  "abi": [
    {
      "inputs": [],
      "stateMutability": "nonpayable",
      "type": "constructor"
    },
    {
      "anonymous": false,
      "inputs": [
        {
          "indexed": false,
          "internalType": "uint256",
          "name": "carTokenId",
          "type": "uint256"
        },
        {
          "indexed": false,
          "internalType": "address",
          "name": "borrower",
          "type": "address"
        },
        {
          "indexed": false,
          "internalType": "uint256",
          "name": "startTime",
          "type": "uint256"
        },
        {
          "indexed": false,
          "internalType": "uint256",
          "name": "duration",
          "type": "uint256"
        }
      ],
      "name": "CarBorrowed",
      "type": "event"
    },
    {
      "anonymous": false,
      "inputs": [
        {
          "indexed": false,
          "internalType": "uint256",
          "name": "balance",
          "type": "uint256"
        }
      ],
      "name": "userBalance",
      "type": "event"
    },
    {
      "inputs": [
        {
          "internalType": "uint256",
          "name": "tokenId",
          "type": "uint256"
        }
      ],
      "name": "Getcarborrower",
      "outputs": [
        {
          "internalType": "address",
          "name": "",
          "type": "address"
        }
      ],
      "stateMutability": "view",
      "type": "function"
    },
    {
      "inputs": [
        {
          "internalType": "uint256",
          "name": "tokenId",
          "type": "uint256"
        }
      ],
      "name": "Getcarborrowerexpires",
      "outputs": [
        {
          "internalType": "uint256",
          "name": "",
          "type": "uint256"
        }
      ],
      "stateMutability": "view",
      "type": "function"
    },
    {
      "inputs": [],
      "name": "Getcarlist",
      "outputs": [
        {
          "internalType": "uint256[]",
          "name": "",
          "type": "uint256[]"
        }
      ],
      "stateMutability": "view",
      "type": "function"
    },
    {
      "inputs": [],
      "name": "Getcarnum",
      "outputs": [
        {
          "internalType": "uint256",
          "name": "",
          "type": "uint256"
        }
      ],
      "stateMutability": "view",
      "type": "function"
    },
    {
      "inputs": [
        {
          "internalType": "uint256",
          "name": "tokenId",
          "type": "uint256"
        }
      ],
      "name": "Getcarowner",
      "outputs": [
        {
          "internalType": "address",
          "name": "",
          "type": "address"
        }
      ],
      "stateMutability": "view",
      "type": "function"
    },
    {
      "inputs": [],
      "name": "Getfreecarlist",
      "outputs": [
        {
          "internalType": "uint256[]",
          "name": "",
          "type": "uint256[]"
        }
      ],
      "stateMutability": "view",
      "type": "function"
    },
    {
      "inputs": [
        {
          "internalType": "address",
          "name": "user",
          "type": "address"
        },
        {
          "internalType": "uint256",
          "name": "tokenId",
          "type": "uint256"
        },
        {
          "internalType": "uint256",
          "name": "duration",
          "type": "uint256"
        }
      ],
      "name": "borrowCar",
      "outputs": [
        {
          "internalType": "uint256",
          "name": "",
          "type": "uint256"
        }
      ],
      "stateMutability": "nonpayable",
      "type": "function"
    },
    {
      "inputs": [],
      "name": "erc20",
      "outputs": [
        {
          "internalType": "contract MyERC",
          "name": "",
          "type": "address"
        }
      ],
      "stateMutability": "view",
      "type": "function"
    },
    {
      "inputs": [],
      "name": "getBalanceofUser",
      "outputs": [
        {
          "internalType": "uint256",
          "name": "",
          "type": "uint256"
        }
      ],
      "stateMutability": "nonpayable",
      "type": "function"
    },
    {
      "inputs": [
        {
          "internalType": "uint256",
          "name": "tokenId",
          "type": "uint256"
        }
      ],
      "name": "getCarPrice",
      "outputs": [
        {
          "internalType": "uint256",
          "name": "",
          "type": "uint256"
        }
      ],
      "stateMutability": "view",
      "type": "function"
    },
    {
      "inputs": [],
      "name": "helloworld",
      "outputs": [
        {
          "internalType": "string",
          "name": "",
          "type": "string"
        }
      ],
      "stateMutability": "pure",
      "type": "function"
    },
    {
      "inputs": [],
      "name": "manager",
      "outputs": [
        {
          "internalType": "address",
          "name": "",
          "type": "address"
        }
      ],
      "stateMutability": "view",
      "type": "function"
    },
    {
      "inputs": [],
      "name": "nft",
      "outputs": [
        {
          "internalType": "contract MyNFT",
          "name": "",
          "type": "address"
        }
      ],
      "stateMutability": "view",
      "type": "function"
    },
    {
      "inputs": [
        {
          "internalType": "uint256",
          "name": "tokenId",
          "type": "uint256"
        }
      ],
      "name": "returnCar",
      "outputs": [
        {
          "internalType": "bool",
          "name": "",
          "type": "bool"
        }
      ],
      "stateMutability": "nonpayable",
      "type": "function"
    },
    {
      "inputs": [
        {
          "internalType": "uint256",
          "name": "tokenId",
          "type": "uint256"
        },
        {
          "internalType": "uint256",
          "name": "price",
          "type": "uint256"
        }
      ],
      "name": "setCarPrice",
      "outputs": [],
      "stateMutability": "nonpayable",
      "type": "function"
    },
    {
      "inputs": [
        {
          "internalType": "uint256",
          "name": "",
          "type": "uint256"
        }
      ],
      "name": "users",
      "outputs": [
        {
          "internalType": "address",
          "name": "",
          "type": "address"
        }
      ],
      "stateMutability": "view",
      "type": "function"
    }
  ],
  "bytecode": "0x60806040523480156200001157600080fd5b50336000806101000a81548173ffffffffffffffffffffffffffffffffffffffff021916908373ffffffffffffffffffffffffffffffffffffffff160217905550604051620000609062000146565b6200006b9062000213565b604051809103906000f08015801562000088573d6000803e3d6000fd5b50600260006101000a81548173ffffffffffffffffffffffffffffffffffffffff021916908373ffffffffffffffffffffffffffffffffffffffff160217905550604051620000d79062000154565b620000e290620002ea565b604051809103906000f080158015620000ff573d6000803e3d6000fd5b50600360006101000a81548173ffffffffffffffffffffffffffffffffffffffff021916908373ffffffffffffffffffffffffffffffffffffffff16021790555062000321565b6130338062002aad83390190565b6116fe8062005ae083390190565b600082825260208201905092915050565b7f6361725f4e465400000000000000000000000000000000000000000000000000600082015250565b6000620001ab60078362000162565b9150620001b88262000173565b602082019050919050565b7f6361725f4e46545f73796d626f6c000000000000000000000000000000000000600082015250565b6000620001fb600e8362000162565b91506200020882620001c3565b602082019050919050565b600060408201905081810360008301526200022e816200019c565b905081810360208301526200024381620001ec565b9050919050565b7f6d795f4552433230000000000000000000000000000000000000000000000000600082015250565b60006200028260088362000162565b91506200028f826200024a565b602082019050919050565b7f6d795f45524332305f73796d626f6c0000000000000000000000000000000000600082015250565b6000620002d2600f8362000162565b9150620002df826200029a565b602082019050919050565b60006040820190508181036000830152620003058162000273565b905081810360208301526200031a81620002c3565b9050919050565b61277c80620003316000396000f3fe608060405234801561001057600080fd5b50600436106101005760003560e01c806371e69a3211610097578063c4afc93911610066578063c4afc939146102d7578063ca1f350114610307578063df14692d14610325578063e40686f41461034357610100565b806371e69a321461023d578063785e9e861461026d578063afe816fe1461028b578063b96a6084146102bb57610100565b806347ccca02116100d357806347ccca02146101b3578063481c6a75146101d15780634c925f5e146101ef5780636ef016d31461021f57610100565b806317f956e0146101055780632014e196146101355780632f2f485914610165578063365b98b214610183575b600080fd5b61011f600480360381019061011a9190611c7a565b610361565b60405161012c9190611cc2565b60405180910390f35b61014f600480360381019061014a9190611c7a565b61068d565b60405161015c9190611d1e565b60405180910390f35b61016d610732565b60405161017a9190611dc9565b60405180910390f35b61019d60048036038101906101989190611c7a565b61076f565b6040516101aa9190611d1e565b60405180910390f35b6101bb6107ae565b6040516101c89190611e4a565b60405180910390f35b6101d96107d4565b6040516101e69190611d1e565b60405180910390f35b61020960048036038101906102049190611c7a565b6107f8565b6040516102169190611d1e565b60405180910390f35b61022761089d565b6040516102349190611e74565b60405180910390f35b61025760048036038101906102529190611c7a565b610a17565b6040516102649190611e74565b60405180910390f35b610275610abc565b6040516102829190611eb0565b60405180910390f35b6102a560048036038101906102a09190611c7a565b610ae2565b6040516102b29190611e74565b60405180910390f35b6102d560048036038101906102d09190611ecb565b610b87565b005b6102f160048036038101906102ec9190611f37565b610d23565b6040516102fe9190611e74565b60405180910390f35b61030f6113cf565b60405161031c9190611e74565b60405180910390f35b61032d611472565b60405161033a9190612048565b60405180910390f35b61034b6117f3565b6040516103589190612048565b60405180910390f35b60003373ffffffffffffffffffffffffffffffffffffffff16600260009054906101000a900473ffffffffffffffffffffffffffffffffffffffff1673ffffffffffffffffffffffffffffffffffffffff16631a241099846040518263ffffffff1660e01b81526004016103d59190611e74565b602060405180830381865afa1580156103f2573d6000803e3d6000fd5b505050506040513d601f19601f82011682018060405250810190610416919061207f565b73ffffffffffffffffffffffffffffffffffffffff161480610483575060008054906101000a900473ffffffffffffffffffffffffffffffffffffffff1673ffffffffffffffffffffffffffffffffffffffff163373ffffffffffffffffffffffffffffffffffffffff16145b6104c2576040517f08c379a00000000000000000000000000000000000000000000000000000000081526004016104b99061211e565b60405180910390fd5b6000600260009054906101000a900473ffffffffffffffffffffffffffffffffffffffff1673ffffffffffffffffffffffffffffffffffffffff1663971d6d6e846040518263ffffffff1660e01b815260040161051f9190611e74565b602060405180830381865afa15801561053c573d6000803e3d6000fd5b505050506040513d601f19601f82011682018060405250810190610560919061207f565b9050600260009054906101000a900473ffffffffffffffffffffffffffffffffffffffff1673ffffffffffffffffffffffffffffffffffffffff1663b7760c8f84836040518363ffffffff1660e01b81526004016105bf92919061213e565b600060405180830381600087803b1580156105d957600080fd5b505af11580156105ed573d6000803e3d6000fd5b50505050600260009054906101000a900473ffffffffffffffffffffffffffffffffffffffff1673ffffffffffffffffffffffffffffffffffffffff16631b8a910d846000806040518463ffffffff1660e01b8152600401610651939291906121a2565b600060405180830381600087803b15801561066b57600080fd5b505af115801561067f573d6000803e3d6000fd5b505050506001915050919050565b6000600260009054906101000a900473ffffffffffffffffffffffffffffffffffffffff1673ffffffffffffffffffffffffffffffffffffffff1663971d6d6e836040518263ffffffff1660e01b81526004016106ea9190611e74565b602060405180830381865afa158015610707573d6000803e3d6000fd5b505050506040513d601f19601f8201168201806040525081019061072b919061207f565b9050919050565b60606040518060400160405280600b81526020017f68656c6c6f20776f726c64000000000000000000000000000000000000000000815250905090565b6001818154811061077f57600080fd5b906000526020600020016000915054906101000a900473ffffffffffffffffffffffffffffffffffffffff1681565b600260009054906101000a900473ffffffffffffffffffffffffffffffffffffffff1681565b60008054906101000a900473ffffffffffffffffffffffffffffffffffffffff1681565b6000600260009054906101000a900473ffffffffffffffffffffffffffffffffffffffff1673ffffffffffffffffffffffffffffffffffffffff16631a241099836040518263ffffffff1660e01b81526004016108559190611e74565b602060405180830381865afa158015610872573d6000803e3d6000fd5b505050506040513d601f19601f82011682018060405250810190610896919061207f565b9050919050565b600080600360009054906101000a900473ffffffffffffffffffffffffffffffffffffffff1673ffffffffffffffffffffffffffffffffffffffff166370a08231336040518263ffffffff1660e01b81526004016108fb9190611d1e565b602060405180830381865afa158015610918573d6000803e3d6000fd5b505050506040513d601f19601f8201168201806040525081019061093c91906121ee565b90507fd17106e90d4d276477913ba289d7681e9e0e7e7a8c4a5bdd8f75dbc997138e69600360009054906101000a900473ffffffffffffffffffffffffffffffffffffffff1673ffffffffffffffffffffffffffffffffffffffff166370a08231336040518263ffffffff1660e01b81526004016109ba9190611d1e565b602060405180830381865afa1580156109d7573d6000803e3d6000fd5b505050506040513d601f19601f820116820180604052508101906109fb91906121ee565b604051610a089190611e74565b60405180910390a18091505090565b6000600260009054906101000a900473ffffffffffffffffffffffffffffffffffffffff1673ffffffffffffffffffffffffffffffffffffffff166371e69a32836040518263ffffffff1660e01b8152600401610a749190611e74565b602060405180830381865afa158015610a91573d6000803e3d6000fd5b505050506040513d601f19601f82011682018060405250810190610ab591906121ee565b9050919050565b600360009054906101000a900473ffffffffffffffffffffffffffffffffffffffff1681565b6000600260009054906101000a900473ffffffffffffffffffffffffffffffffffffffff1673ffffffffffffffffffffffffffffffffffffffff16638fc88c48836040518263ffffffff1660e01b8152600401610b3f9190611e74565b602060405180830381865afa158015610b5c573d6000803e3d6000fd5b505050506040513d601f19601f82011682018060405250810190610b8091906121ee565b9050919050565b600260009054906101000a900473ffffffffffffffffffffffffffffffffffffffff1673ffffffffffffffffffffffffffffffffffffffff1663971d6d6e836040518263ffffffff1660e01b8152600401610be29190611e74565b602060405180830381865afa158015610bff573d6000803e3d6000fd5b505050506040513d601f19601f82011682018060405250810190610c23919061207f565b73ffffffffffffffffffffffffffffffffffffffff163373ffffffffffffffffffffffffffffffffffffffff1614610c90576040517f08c379a0000000000000000000000000000000000000000000000000000000008152600401610c879061228d565b60405180910390fd5b600260009054906101000a900473ffffffffffffffffffffffffffffffffffffffff1673ffffffffffffffffffffffffffffffffffffffff1663b96a608483836040518363ffffffff1660e01b8152600401610ced9291906122ad565b600060405180830381600087803b158015610d0757600080fd5b505af1158015610d1b573d6000803e3d6000fd5b505050505050565b60008073ffffffffffffffffffffffffffffffffffffffff16600260009054906101000a900473ffffffffffffffffffffffffffffffffffffffff1673ffffffffffffffffffffffffffffffffffffffff16631a241099856040518263ffffffff1660e01b8152600401610d979190611e74565b602060405180830381865afa158015610db4573d6000803e3d6000fd5b505050506040513d601f19601f82011682018060405250810190610dd8919061207f565b73ffffffffffffffffffffffffffffffffffffffff1614610e2e576040517f08c379a0000000000000000000000000000000000000000000000000000000008152600401610e2590612322565b60405180910390fd5b6000600260009054906101000a900473ffffffffffffffffffffffffffffffffffffffff1673ffffffffffffffffffffffffffffffffffffffff16638fc88c48856040518263ffffffff1660e01b8152600401610e8b9190611e74565b602060405180830381865afa158015610ea8573d6000803e3d6000fd5b505050506040513d601f19601f82011682018060405250810190610ecc91906121ee565b14610f0c576040517f08c379a0000000000000000000000000000000000000000000000000000000008152600401610f0390612322565b60405180910390fd5b81600260009054906101000a900473ffffffffffffffffffffffffffffffffffffffff1673ffffffffffffffffffffffffffffffffffffffff166371e69a32856040518263ffffffff1660e01b8152600401610f689190611e74565b602060405180830381865afa158015610f85573d6000803e3d6000fd5b505050506040513d601f19601f82011682018060405250810190610fa991906121ee565b610fb39190612371565b600360009054906101000a900473ffffffffffffffffffffffffffffffffffffffff1673ffffffffffffffffffffffffffffffffffffffff166370a08231866040518263ffffffff1660e01b815260040161100e9190611d1e565b602060405180830381865afa15801561102b573d6000803e3d6000fd5b505050506040513d601f19601f8201168201806040525081019061104f91906121ee565b1015611090576040517f08c379a0000000000000000000000000000000000000000000000000000000008152600401611087906123ff565b60405180910390fd5b600260009054906101000a900473ffffffffffffffffffffffffffffffffffffffff1673ffffffffffffffffffffffffffffffffffffffff16631b8a910d8486856040518463ffffffff1660e01b81526004016110ef9392919061241f565b600060405180830381600087803b15801561110957600080fd5b505af115801561111d573d6000803e3d6000fd5b50505050600260009054906101000a900473ffffffffffffffffffffffffffffffffffffffff1673ffffffffffffffffffffffffffffffffffffffff1663b7760c8f84866040518363ffffffff1660e01b815260040161117e92919061213e565b600060405180830381600087803b15801561119857600080fd5b505af11580156111ac573d6000803e3d6000fd5b50505050600360009054906101000a900473ffffffffffffffffffffffffffffffffffffffff1673ffffffffffffffffffffffffffffffffffffffff16632ebacc9a85600260009054906101000a900473ffffffffffffffffffffffffffffffffffffffff1673ffffffffffffffffffffffffffffffffffffffff1663971d6d6e876040518263ffffffff1660e01b815260040161124a9190611e74565b602060405180830381865afa158015611267573d6000803e3d6000fd5b505050506040513d601f19601f8201168201806040525081019061128b919061207f565b85600260009054906101000a900473ffffffffffffffffffffffffffffffffffffffff1673ffffffffffffffffffffffffffffffffffffffff166371e69a32896040518263ffffffff1660e01b81526004016112e79190611e74565b602060405180830381865afa158015611304573d6000803e3d6000fd5b505050506040513d601f19601f8201168201806040525081019061132891906121ee565b6113329190612371565b6040518463ffffffff1660e01b815260040161135093929190612456565b600060405180830381600087803b15801561136a57600080fd5b505af115801561137e573d6000803e3d6000fd5b505050507f8879d78706834dc00d82232992f71250fab6a1f70b08260968253950083d88cd833342856040516113b7949392919061248d565b60405180910390a16000429050809150509392505050565b6000600260009054906101000a900473ffffffffffffffffffffffffffffffffffffffff1673ffffffffffffffffffffffffffffffffffffffff166370a08231336040518263ffffffff1660e01b815260040161142c9190611d1e565b602060405180830381865afa158015611449573d6000803e3d6000fd5b505050506040513d601f19601f8201168201806040525081019061146d91906121ee565b905090565b6060600061147e6113cf565b90506000600260009054906101000a900473ffffffffffffffffffffffffffffffffffffffff1673ffffffffffffffffffffffffffffffffffffffff16632799276d6040518163ffffffff1660e01b8152600401600060405180830381865afa1580156114ef573d6000803e3d6000fd5b505050506040513d6000823e3d601f19601f82011682018060405250810190611518919061261a565b905060008267ffffffffffffffff811115611536576115356124d7565b5b6040519080825280602002602001820160405280156115645781602001602082028036833780820191505090505b5090506000805b83518110156117a4573373ffffffffffffffffffffffffffffffffffffffff16600260009054906101000a900473ffffffffffffffffffffffffffffffffffffffff1673ffffffffffffffffffffffffffffffffffffffff16636352211e8684815181106115dc576115db612663565b5b60200260200101516040518263ffffffff1660e01b81526004016116009190611e74565b602060405180830381865afa15801561161d573d6000803e3d6000fd5b505050506040513d601f19601f82011682018060405250810190611641919061207f565b73ffffffffffffffffffffffffffffffffffffffff16148061174357503373ffffffffffffffffffffffffffffffffffffffff16600260009054906101000a900473ffffffffffffffffffffffffffffffffffffffff1673ffffffffffffffffffffffffffffffffffffffff16631a2410998684815181106116c6576116c5612663565b5b60200260200101516040518263ffffffff1660e01b81526004016116ea9190611e74565b602060405180830381865afa158015611707573d6000803e3d6000fd5b505050506040513d601f19601f8201168201806040525081019061172b919061207f565b73ffffffffffffffffffffffffffffffffffffffff16145b156117915783818151811061175b5761175a612663565b5b602002602001015183838151811061177657611775612663565b5b602002602001018181525050818061178d90612692565b9250505b808061179c90612692565b91505061156b565b5060008251036117e9576040517f08c379a00000000000000000000000000000000000000000000000000000000081526004016117e090612726565b60405180910390fd5b8194505050505090565b60606000600260009054906101000a900473ffffffffffffffffffffffffffffffffffffffff1673ffffffffffffffffffffffffffffffffffffffff166318160ddd6040518163ffffffff1660e01b8152600401602060405180830381865afa158015611864573d6000803e3d6000fd5b505050506040513d601f19601f8201168201806040525081019061188891906121ee565b67ffffffffffffffff8111156118a1576118a06124d7565b5b6040519080825280602002602001820160405280156118cf5781602001602082028036833780820191505090505b5090506000600260009054906101000a900473ffffffffffffffffffffffffffffffffffffffff1673ffffffffffffffffffffffffffffffffffffffff16632799276d6040518163ffffffff1660e01b8152600401600060405180830381865afa158015611941573d6000803e3d6000fd5b505050506040513d6000823e3d601f19601f8201168201806040525081019061196a919061261a565b90506000805b8251811015611b7f57600073ffffffffffffffffffffffffffffffffffffffff16600260009054906101000a900473ffffffffffffffffffffffffffffffffffffffff1673ffffffffffffffffffffffffffffffffffffffff16631a2410998584815181106119e2576119e1612663565b5b60200260200101516040518263ffffffff1660e01b8152600401611a069190611e74565b602060405180830381865afa158015611a23573d6000803e3d6000fd5b505050506040513d601f19601f82011682018060405250810190611a47919061207f565b73ffffffffffffffffffffffffffffffffffffffff161480611b1e57506000600260009054906101000a900473ffffffffffffffffffffffffffffffffffffffff1673ffffffffffffffffffffffffffffffffffffffff16638fc88c48858481518110611ab757611ab6612663565b5b60200260200101516040518263ffffffff1660e01b8152600401611adb9190611e74565b602060405180830381865afa158015611af8573d6000803e3d6000fd5b505050506040513d601f19601f82011682018060405250810190611b1c91906121ee565b145b15611b6c57828181518110611b3657611b35612663565b5b6020026020010151848381518110611b5157611b50612663565b5b6020026020010181815250508180611b6890612692565b9250505b8080611b7790612692565b915050611970565b5060008167ffffffffffffffff811115611b9c57611b9b6124d7565b5b604051908082528060200260200182016040528015611bca5781602001602082028036833780820191505090505b50905060005b82811015611c2557848181518110611beb57611bea612663565b5b6020026020010151828281518110611c0657611c05612663565b5b6020026020010181815250508080611c1d90612692565b915050611bd0565b508094505050505090565b6000604051905090565b600080fd5b600080fd5b6000819050919050565b611c5781611c44565b8114611c6257600080fd5b50565b600081359050611c7481611c4e565b92915050565b600060208284031215611c9057611c8f611c3a565b5b6000611c9e84828501611c65565b91505092915050565b60008115159050919050565b611cbc81611ca7565b82525050565b6000602082019050611cd76000830184611cb3565b92915050565b600073ffffffffffffffffffffffffffffffffffffffff82169050919050565b6000611d0882611cdd565b9050919050565b611d1881611cfd565b82525050565b6000602082019050611d336000830184611d0f565b92915050565b600081519050919050565b600082825260208201905092915050565b60005b83811015611d73578082015181840152602081019050611d58565b60008484015250505050565b6000601f19601f8301169050919050565b6000611d9b82611d39565b611da58185611d44565b9350611db5818560208601611d55565b611dbe81611d7f565b840191505092915050565b60006020820190508181036000830152611de38184611d90565b905092915050565b6000819050919050565b6000611e10611e0b611e0684611cdd565b611deb565b611cdd565b9050919050565b6000611e2282611df5565b9050919050565b6000611e3482611e17565b9050919050565b611e4481611e29565b82525050565b6000602082019050611e5f6000830184611e3b565b92915050565b611e6e81611c44565b82525050565b6000602082019050611e896000830184611e65565b92915050565b6000611e9a82611e17565b9050919050565b611eaa81611e8f565b82525050565b6000602082019050611ec56000830184611ea1565b92915050565b60008060408385031215611ee257611ee1611c3a565b5b6000611ef085828601611c65565b9250506020611f0185828601611c65565b9150509250929050565b611f1481611cfd565b8114611f1f57600080fd5b50565b600081359050611f3181611f0b565b92915050565b600080600060608486031215611f5057611f4f611c3a565b5b6000611f5e86828701611f22565b9350506020611f6f86828701611c65565b9250506040611f8086828701611c65565b9150509250925092565b600081519050919050565b600082825260208201905092915050565b6000819050602082019050919050565b611fbf81611c44565b82525050565b6000611fd18383611fb6565b60208301905092915050565b6000602082019050919050565b6000611ff582611f8a565b611fff8185611f95565b935061200a83611fa6565b8060005b8381101561203b5781516120228882611fc5565b975061202d83611fdd565b92505060018101905061200e565b5085935050505092915050565b600060208201905081810360008301526120628184611fea565b905092915050565b60008151905061207981611f0b565b92915050565b60006020828403121561209557612094611c3a565b5b60006120a38482850161206a565b91505092915050565b7f596f7520617265206e6f742074686520626f72726f776572206f72207468652060008201527f6d616e6167657200000000000000000000000000000000000000000000000000602082015250565b6000612108602783611d44565b9150612113826120ac565b604082019050919050565b60006020820190508181036000830152612137816120fb565b9050919050565b60006040820190506121536000830185611e65565b6121606020830184611d0f565b9392505050565b6000819050919050565b600061218c61218761218284612167565b611deb565b611c44565b9050919050565b61219c81612171565b82525050565b60006060820190506121b76000830186611e65565b6121c46020830185611d0f565b6121d16040830184612193565b949350505050565b6000815190506121e881611c4e565b92915050565b60006020828403121561220457612203611c3a565b5b6000612212848285016121d9565b91505092915050565b7f4f6e6c79205265616c204f776e65722063616e2073657420746865207072696360008201527f6500000000000000000000000000000000000000000000000000000000000000602082015250565b6000612277602183611d44565b91506122828261221b565b604082019050919050565b600060208201905081810360008301526122a68161226a565b9050919050565b60006040820190506122c26000830185611e65565b6122cf6020830184611e65565b9392505050565b7f5468697320636172206973206e6f742066726565000000000000000000000000600082015250565b600061230c601483611d44565b9150612317826122d6565b602082019050919050565b6000602082019050818103600083015261233b816122ff565b9050919050565b7f4e487b7100000000000000000000000000000000000000000000000000000000600052601160045260246000fd5b600061237c82611c44565b915061238783611c44565b925082820261239581611c44565b915082820484148315176123ac576123ab612342565b5b5092915050565b7f546865207573657220646f6e2774206861766520656e6f756768206d6f6e6579600082015250565b60006123e9602083611d44565b91506123f4826123b3565b602082019050919050565b60006020820190508181036000830152612418816123dc565b9050919050565b60006060820190506124346000830186611e65565b6124416020830185611d0f565b61244e6040830184611e65565b949350505050565b600060608201905061246b6000830186611d0f565b6124786020830185611d0f565b6124856040830184611e65565b949350505050565b60006080820190506124a26000830187611e65565b6124af6020830186611d0f565b6124bc6040830185611e65565b6124c96060830184611e65565b95945050505050565b600080fd5b7f4e487b7100000000000000000000000000000000000000000000000000000000600052604160045260246000fd5b61250f82611d7f565b810181811067ffffffffffffffff8211171561252e5761252d6124d7565b5b80604052505050565b6000612541611c30565b905061254d8282612506565b919050565b600067ffffffffffffffff82111561256d5761256c6124d7565b5b602082029050602081019050919050565b600080fd5b600061259661259184612552565b612537565b905080838252602082019050602084028301858111156125b9576125b861257e565b5b835b818110156125e257806125ce88826121d9565b8452602084019350506020810190506125bb565b5050509392505050565b600082601f830112612601576126006124d2565b5b8151612611848260208601612583565b91505092915050565b6000602082840312156126305761262f611c3a565b5b600082015167ffffffffffffffff81111561264e5761264d611c3f565b5b61265a848285016125ec565b91505092915050565b7f4e487b7100000000000000000000000000000000000000000000000000000000600052603260045260246000fd5b600061269d82611c44565b91507fffffffffffffffffffffffffffffffffffffffffffffffffffffffffffffffff82036126cf576126ce612342565b5b600182019050919050565b7f596f7520646f6e2774206861766520616e792063617200000000000000000000600082015250565b6000612710601683611d44565b915061271b826126da565b602082019050919050565b6000602082019050818103600083015261273f81612703565b905091905056fea26469706673582212209abf053818d07f1539fef72027ce6eea79f18a3273dd81340a6dc5e1c81e964564736f6c6343000814003360806040523480156200001157600080fd5b506040516200303338038062003033833981810160405281019062000037919062000202565b818181600090816200004a9190620004d2565b5080600190816200005c9190620004d2565b50505060006006819055505050620005b9565b6000604051905090565b600080fd5b600080fd5b600080fd5b600080fd5b6000601f19601f8301169050919050565b7f4e487b7100000000000000000000000000000000000000000000000000000000600052604160045260246000fd5b620000d8826200008d565b810181811067ffffffffffffffff82111715620000fa57620000f96200009e565b5b80604052505050565b60006200010f6200006f565b90506200011d8282620000cd565b919050565b600067ffffffffffffffff82111562000140576200013f6200009e565b5b6200014b826200008d565b9050602081019050919050565b60005b83811015620001785780820151818401526020810190506200015b565b60008484015250505050565b60006200019b620001958462000122565b62000103565b905082815260208101848484011115620001ba57620001b962000088565b5b620001c784828562000158565b509392505050565b600082601f830112620001e757620001e662000083565b5b8151620001f984826020860162000184565b91505092915050565b600080604083850312156200021c576200021b62000079565b5b600083015167ffffffffffffffff8111156200023d576200023c6200007e565b5b6200024b85828601620001cf565b925050602083015167ffffffffffffffff8111156200026f576200026e6200007e565b5b6200027d85828601620001cf565b9150509250929050565b600081519050919050565b7f4e487b7100000000000000000000000000000000000000000000000000000000600052602260045260246000fd5b60006002820490506001821680620002da57607f821691505b602082108103620002f057620002ef62000292565b5b50919050565b60008190508160005260206000209050919050565b60006020601f8301049050919050565b600082821b905092915050565b6000600883026200035a7fffffffffffffffffffffffffffffffffffffffffffffffffffffffffffffffff826200031b565b6200036686836200031b565b95508019841693508086168417925050509392505050565b6000819050919050565b6000819050919050565b6000620003b3620003ad620003a7846200037e565b62000388565b6200037e565b9050919050565b6000819050919050565b620003cf8362000392565b620003e7620003de82620003ba565b84845462000328565b825550505050565b600090565b620003fe620003ef565b6200040b818484620003c4565b505050565b5b81811015620004335762000427600082620003f4565b60018101905062000411565b5050565b601f82111562000482576200044c81620002f6565b62000457846200030b565b8101602085101562000467578190505b6200047f62000476856200030b565b83018262000410565b50505b505050565b600082821c905092915050565b6000620004a76000198460080262000487565b1980831691505092915050565b6000620004c2838362000494565b9150826002028217905092915050565b620004dd8262000287565b67ffffffffffffffff811115620004f957620004f86200009e565b5b620005058254620002c1565b6200051282828562000437565b600060209050601f8311600181146200054a576000841562000535578287015190505b620005418582620004b4565b865550620005b1565b601f1984166200055a86620002f6565b60005b8281101562000584578489015182556001820191506020850194506020810190506200055d565b86831015620005a45784890151620005a0601f89168262000494565b8355505b6001600288020188555050505b505050505050565b612a6a80620005c96000396000f3fe608060405234801561001057600080fd5b50600436106101a95760003560e01c806342842e0e116100f9578063a22cb46511610097578063b96a608411610071578063b96a6084146104ba578063c87b56dd146104d6578063e985e9c514610506578063f4fd6a0214610536576101a9565b8063a22cb46514610466578063b7760c8f14610482578063b88d4fde1461049e576101a9565b806371e69a32116100d357806371e69a32146103b85780638fc88c48146103e857806395d89b4114610418578063971d6d6e14610436576101a9565b806342842e0e1461033c5780636352211e1461035857806370a0823114610388576101a9565b80631a241099116101665780632313aa84116101405780632313aa84146102da57806323b872dd146102e45780632799276d146103005780632f2f48591461031e576101a9565b80631a241099146102705780631a7553ab146102a05780631b8a910d146102be576101a9565b806301ffc9a7146101ae57806306fdde03146101de578063081812fc146101fc578063095ea7b31461022c57806313fa79ef1461024857806318160ddd14610252575b600080fd5b6101c860048036038101906101c39190611f5b565b610540565b6040516101d59190611fa3565b60405180910390f35b6101e6610622565b6040516101f3919061204e565b60405180910390f35b610216600480360381019061021191906120a6565b6106b4565b6040516102239190612114565b60405180910390f35b6102466004803603810190610241919061215b565b6106d0565b005b6102506106e6565b005b61025a6107ed565b60405161026791906121aa565b60405180910390f35b61028a600480360381019061028591906120a6565b6107f7565b6040516102979190612114565b60405180910390f35b6102a861085e565b6040516102b591906121aa565b60405180910390f35b6102d860048036038101906102d391906121c5565b6108db565b005b6102e261099e565b005b6102fe60048036038101906102f99190612218565b6109ac565b005b610308610aae565b6040516103159190612329565b60405180910390f35b610326610b5a565b604051610333919061204e565b60405180910390f35b61035660048036038101906103519190612218565b610b97565b005b610372600480360381019061036d91906120a6565b610bb7565b60405161037f9190612114565b60405180910390f35b6103a2600480360381019061039d919061234b565b610bc9565b6040516103af91906121aa565b60405180910390f35b6103d260048036038101906103cd91906120a6565b610c83565b6040516103df91906121aa565b60405180910390f35b61040260048036038101906103fd91906120a6565b610ca3565b60405161040f91906121aa565b60405180910390f35b610420610cc3565b60405161042d919061204e565b60405180910390f35b610450600480360381019061044b91906120a6565b610d55565b60405161045d9190612114565b60405180910390f35b610480600480360381019061047b91906123a4565b610d95565b005b61049c600480360381019061049791906123e4565b610dab565b005b6104b860048036038101906104b39190612559565b610dc2565b005b6104d460048036038101906104cf91906125dc565b610ddf565b005b6104f060048036038101906104eb91906120a6565b610e04565b6040516104fd919061204e565b60405180910390f35b610520600480360381019061051b919061261c565b610e6d565b60405161052d9190611fa3565b60405180910390f35b61053e610f01565b005b60007f80ac58cd000000000000000000000000000000000000000000000000000000007bffffffffffffffffffffffffffffffffffffffffffffffffffffffff1916827bffffffffffffffffffffffffffffffffffffffffffffffffffffffff1916148061060b57507f5b5e139f000000000000000000000000000000000000000000000000000000007bffffffffffffffffffffffffffffffffffffffffffffffffffffffff1916827bffffffffffffffffffffffffffffffffffffffffffffffffffffffff1916145b8061061b575061061a82611041565b5b9050919050565b6060600080546106319061268b565b80601f016020809104026020016040519081016040528092919081815260200182805461065d9061268b565b80156106aa5780601f1061067f576101008083540402835291602001916106aa565b820191906000526020600020905b81548152906001019060200180831161068d57829003601f168201915b5050505050905090565b60006106bf826110ab565b506106c982611133565b9050919050565b6106e282826106dd611170565b611178565b5050565b6000600190505b60065481116107ea57426007600083815260200190815260200160002060020154116107d75760006007600083815260200190815260200160002060010160006101000a81548173ffffffffffffffffffffffffffffffffffffffff021916908373ffffffffffffffffffffffffffffffffffffffff16021790555060006007600083815260200190815260200160002060020181905550600073ffffffffffffffffffffffffffffffffffffffff16817fd0d4d2465fbaaa658444f22a71af0576dc66d910f58504ac3091a8f2e7e0462d60006040516107ce9190612701565b60405180910390a35b80806107e29061274b565b9150506106ed565b50565b6000600654905090565b60004260076000848152602001908152602001600020600201541161081f5760009050610859565b6007600083815260200190815260200160002060010160009054906101000a900473ffffffffffffffffffffffffffffffffffffffff1690505b919050565b600080600090506000600190505b60065481116108d3573373ffffffffffffffffffffffffffffffffffffffff16610895826107f7565b73ffffffffffffffffffffffffffffffffffffffff16036108c0576001826108bd9190612793565b91505b80806108cb9061274b565b91505061086c565b508091505090565b6000600760008581526020019081526020016000209050828160010160006101000a81548173ffffffffffffffffffffffffffffffffffffffff021916908373ffffffffffffffffffffffffffffffffffffffff16021790555042826109419190612793565b81600201819055508273ffffffffffffffffffffffffffffffffffffffff16847fd0d4d2465fbaaa658444f22a71af0576dc66d910f58504ac3091a8f2e7e0462d8460405161099091906121aa565b60405180910390a350505050565b6109aa3360065461118a565b565b600073ffffffffffffffffffffffffffffffffffffffff168273ffffffffffffffffffffffffffffffffffffffff1603610a1e5760006040517f64a0ae92000000000000000000000000000000000000000000000000000000008152600401610a159190612114565b60405180910390fd5b6000610a328383610a2d611170565b611283565b90508373ffffffffffffffffffffffffffffffffffffffff168173ffffffffffffffffffffffffffffffffffffffff1614610aa8578382826040517f64283d7b000000000000000000000000000000000000000000000000000000008152600401610a9f939291906127c7565b60405180910390fd5b50505050565b6060600060065467ffffffffffffffff811115610ace57610acd61242e565b5b604051908082528060200260200182016040528015610afc5781602001602082028036833780820191505090505b509050600080600190505b6006548111610b515780838381518110610b2457610b236127fe565b5b6020026020010181815250508180610b3b9061274b565b9250508080610b499061274b565b915050610b07565b50819250505090565b60606040518060400160405280600b81526020017f68656c6c6f20776f726c64000000000000000000000000000000000000000000815250905090565b610bb283838360405180602001604052806000815250610dc2565b505050565b6000610bc2826110ab565b9050919050565b60008073ffffffffffffffffffffffffffffffffffffffff168273ffffffffffffffffffffffffffffffffffffffff1603610c3c5760006040517f89c62b64000000000000000000000000000000000000000000000000000000008152600401610c339190612114565b60405180910390fd5b600360008373ffffffffffffffffffffffffffffffffffffffff1673ffffffffffffffffffffffffffffffffffffffff168152602001908152602001600020549050919050565b600060076000838152602001908152602001600020600301549050919050565b600060076000838152602001908152602001600020600201549050919050565b606060018054610cd29061268b565b80601f0160208091040260200160405190810160405280929190818152602001828054610cfe9061268b565b8015610d4b5780601f10610d2057610100808354040283529160200191610d4b565b820191906000526020600020905b815481529060010190602001808311610d2e57829003601f168201915b5050505050905090565b60006007600083815260200190815260200160002060000160009054906101000a900473ffffffffffffffffffffffffffffffffffffffff169050919050565b610da7610da0611170565b838361149d565b5050565b610dbe610db783610bb7565b828461160c565b5050565b610dcd8484846109ac565b610dd984848484611779565b50505050565b6000600760008481526020019081526020016000209050818160030181905550505050565b6060610e0f826110ab565b506000610e1a611930565b90506000815111610e3a5760405180602001604052806000815250610e65565b80610e4484611947565b604051602001610e55929190612869565b6040516020818303038152906040525b915050919050565b6000600560008473ffffffffffffffffffffffffffffffffffffffff1673ffffffffffffffffffffffffffffffffffffffff16815260200190815260200160002060008373ffffffffffffffffffffffffffffffffffffffff1673ffffffffffffffffffffffffffffffffffffffff16815260200190815260200160002060009054906101000a900460ff16905092915050565b600073ffffffffffffffffffffffffffffffffffffffff163373ffffffffffffffffffffffffffffffffffffffff1603610f70576040517f08c379a0000000000000000000000000000000000000000000000000000000008152600401610f67906128d9565b60405180910390fd5b600160066000828254610f839190612793565b9250508190555060006007600060065481526020019081526020016000209050338160000160006101000a81548173ffffffffffffffffffffffffffffffffffffffff021916908373ffffffffffffffffffffffffffffffffffffffff16021790555060008160010160006101000a81548173ffffffffffffffffffffffffffffffffffffffff021916908373ffffffffffffffffffffffffffffffffffffffff160217905550600081600201819055506000816003018190555050565b60007f01ffc9a7000000000000000000000000000000000000000000000000000000007bffffffffffffffffffffffffffffffffffffffffffffffffffffffff1916827bffffffffffffffffffffffffffffffffffffffffffffffffffffffff1916149050919050565b6000806110b783611a15565b9050600073ffffffffffffffffffffffffffffffffffffffff168173ffffffffffffffffffffffffffffffffffffffff160361112a57826040517f7e27328900000000000000000000000000000000000000000000000000000000815260040161112191906121aa565b60405180910390fd5b80915050919050565b60006004600083815260200190815260200160002060009054906101000a900473ffffffffffffffffffffffffffffffffffffffff169050919050565b600033905090565b6111858383836001611a52565b505050565b600073ffffffffffffffffffffffffffffffffffffffff168273ffffffffffffffffffffffffffffffffffffffff16036111fc5760006040517f64a0ae920000000000000000000000000000000000000000000000000000000081526004016111f39190612114565b60405180910390fd5b600061120a83836000611283565b9050600073ffffffffffffffffffffffffffffffffffffffff168173ffffffffffffffffffffffffffffffffffffffff161461127e5760006040517f73c6ac6e0000000000000000000000000000000000000000000000000000000081526004016112759190612114565b60405180910390fd5b505050565b60008061128f84611a15565b9050600073ffffffffffffffffffffffffffffffffffffffff168373ffffffffffffffffffffffffffffffffffffffff16146112d1576112d0818486611c17565b5b600073ffffffffffffffffffffffffffffffffffffffff168173ffffffffffffffffffffffffffffffffffffffff161461136257611313600085600080611a52565b6001600360008373ffffffffffffffffffffffffffffffffffffffff1673ffffffffffffffffffffffffffffffffffffffff168152602001908152602001600020600082825403925050819055505b600073ffffffffffffffffffffffffffffffffffffffff168573ffffffffffffffffffffffffffffffffffffffff16146113e5576001600360008773ffffffffffffffffffffffffffffffffffffffff1673ffffffffffffffffffffffffffffffffffffffff168152602001908152602001600020600082825401925050819055505b846002600086815260200190815260200160002060006101000a81548173ffffffffffffffffffffffffffffffffffffffff021916908373ffffffffffffffffffffffffffffffffffffffff160217905550838573ffffffffffffffffffffffffffffffffffffffff168273ffffffffffffffffffffffffffffffffffffffff167fddf252ad1be2c89b69c2b068fc378daa952ba7f163c4a11628f55a4df523b3ef60405160405180910390a4809150509392505050565b600073ffffffffffffffffffffffffffffffffffffffff168273ffffffffffffffffffffffffffffffffffffffff160361150e57816040517f5b08ba180000000000000000000000000000000000000000000000000000000081526004016115059190612114565b60405180910390fd5b80600560008573ffffffffffffffffffffffffffffffffffffffff1673ffffffffffffffffffffffffffffffffffffffff16815260200190815260200160002060008473ffffffffffffffffffffffffffffffffffffffff1673ffffffffffffffffffffffffffffffffffffffff16815260200190815260200160002060006101000a81548160ff0219169083151502179055508173ffffffffffffffffffffffffffffffffffffffff168373ffffffffffffffffffffffffffffffffffffffff167f17307eab39ab6107e8899845ad3d59bd9653f200f220920489ca2b5937696c31836040516115ff9190611fa3565b60405180910390a3505050565b600073ffffffffffffffffffffffffffffffffffffffff168273ffffffffffffffffffffffffffffffffffffffff160361167e5760006040517f64a0ae920000000000000000000000000000000000000000000000000000000081526004016116759190612114565b60405180910390fd5b600061168c83836000611283565b9050600073ffffffffffffffffffffffffffffffffffffffff168173ffffffffffffffffffffffffffffffffffffffff16036116ff57816040517f7e2732890000000000000000000000000000000000000000000000000000000081526004016116f691906121aa565b60405180910390fd5b8373ffffffffffffffffffffffffffffffffffffffff168173ffffffffffffffffffffffffffffffffffffffff1614611773578382826040517f64283d7b00000000000000000000000000000000000000000000000000000000815260040161176a939291906127c7565b60405180910390fd5b50505050565b60008373ffffffffffffffffffffffffffffffffffffffff163b111561192a578273ffffffffffffffffffffffffffffffffffffffff1663150b7a026117bd611170565b8685856040518563ffffffff1660e01b81526004016117df949392919061294e565b6020604051808303816000875af192505050801561181b57506040513d601f19601f8201168201806040525081019061181891906129af565b60015b61189f573d806000811461184b576040519150601f19603f3d011682016040523d82523d6000602084013e611850565b606091505b50600081510361189757836040517f64a0ae9200000000000000000000000000000000000000000000000000000000815260040161188e9190612114565b60405180910390fd5b805181602001fd5b63150b7a0260e01b7bffffffffffffffffffffffffffffffffffffffffffffffffffffffff1916817bffffffffffffffffffffffffffffffffffffffffffffffffffffffff19161461192857836040517f64a0ae9200000000000000000000000000000000000000000000000000000000815260040161191f9190612114565b60405180910390fd5b505b50505050565b606060405180602001604052806000815250905090565b60606000600161195684611cdb565b01905060008167ffffffffffffffff8111156119755761197461242e565b5b6040519080825280601f01601f1916602001820160405280156119a75781602001600182028036833780820191505090505b509050600082602001820190505b600115611a0a578080600190039150507f3031323334353637383961626364656600000000000000000000000000000000600a86061a8153600a85816119fe576119fd6129dc565b5b049450600085036119b5575b819350505050919050565b60006002600083815260200190815260200160002060009054906101000a900473ffffffffffffffffffffffffffffffffffffffff169050919050565b8080611a8b5750600073ffffffffffffffffffffffffffffffffffffffff168273ffffffffffffffffffffffffffffffffffffffff1614155b15611bbf576000611a9b846110ab565b9050600073ffffffffffffffffffffffffffffffffffffffff168373ffffffffffffffffffffffffffffffffffffffff1614158015611b0657508273ffffffffffffffffffffffffffffffffffffffff168173ffffffffffffffffffffffffffffffffffffffff1614155b8015611b195750611b178184610e6d565b155b15611b5b57826040517fa9fbf51f000000000000000000000000000000000000000000000000000000008152600401611b529190612114565b60405180910390fd5b8115611bbd57838573ffffffffffffffffffffffffffffffffffffffff168273ffffffffffffffffffffffffffffffffffffffff167f8c5be1e5ebec7d5bd14f71427d1e84f3dd0314c0f7b2291e5b200ac8c7c3b92560405160405180910390a45b505b836004600085815260200190815260200160002060006101000a81548173ffffffffffffffffffffffffffffffffffffffff021916908373ffffffffffffffffffffffffffffffffffffffff16021790555050505050565b611c22838383611e2e565b611cd657600073ffffffffffffffffffffffffffffffffffffffff168373ffffffffffffffffffffffffffffffffffffffff1603611c9757806040517f7e273289000000000000000000000000000000000000000000000000000000008152600401611c8e91906121aa565b60405180910390fd5b81816040517f177e802f000000000000000000000000000000000000000000000000000000008152600401611ccd929190612a0b565b60405180910390fd5b505050565b600080600090507a184f03e93ff9f4daa797ed6e38ed64bf6a1f0100000000000000008310611d39577a184f03e93ff9f4daa797ed6e38ed64bf6a1f0100000000000000008381611d2f57611d2e6129dc565b5b0492506040810190505b6d04ee2d6d415b85acef81000000008310611d76576d04ee2d6d415b85acef81000000008381611d6c57611d6b6129dc565b5b0492506020810190505b662386f26fc100008310611da557662386f26fc100008381611d9b57611d9a6129dc565b5b0492506010810190505b6305f5e1008310611dce576305f5e1008381611dc457611dc36129dc565b5b0492506008810190505b6127108310611df3576127108381611de957611de86129dc565b5b0492506004810190505b60648310611e165760648381611e0c57611e0b6129dc565b5b0492506002810190505b600a8310611e25576001810190505b80915050919050565b60008073ffffffffffffffffffffffffffffffffffffffff168373ffffffffffffffffffffffffffffffffffffffff1614158015611ee657508273ffffffffffffffffffffffffffffffffffffffff168473ffffffffffffffffffffffffffffffffffffffff161480611ea75750611ea68484610e6d565b5b80611ee557508273ffffffffffffffffffffffffffffffffffffffff16611ecd83611133565b73ffffffffffffffffffffffffffffffffffffffff16145b5b90509392505050565b6000604051905090565b600080fd5b600080fd5b60007fffffffff0000000000000000000000000000000000000000000000000000000082169050919050565b611f3881611f03565b8114611f4357600080fd5b50565b600081359050611f5581611f2f565b92915050565b600060208284031215611f7157611f70611ef9565b5b6000611f7f84828501611f46565b91505092915050565b60008115159050919050565b611f9d81611f88565b82525050565b6000602082019050611fb86000830184611f94565b92915050565b600081519050919050565b600082825260208201905092915050565b60005b83811015611ff8578082015181840152602081019050611fdd565b60008484015250505050565b6000601f19601f8301169050919050565b600061202082611fbe565b61202a8185611fc9565b935061203a818560208601611fda565b61204381612004565b840191505092915050565b600060208201905081810360008301526120688184612015565b905092915050565b6000819050919050565b61208381612070565b811461208e57600080fd5b50565b6000813590506120a08161207a565b92915050565b6000602082840312156120bc576120bb611ef9565b5b60006120ca84828501612091565b91505092915050565b600073ffffffffffffffffffffffffffffffffffffffff82169050919050565b60006120fe826120d3565b9050919050565b61210e816120f3565b82525050565b60006020820190506121296000830184612105565b92915050565b612138816120f3565b811461214357600080fd5b50565b6000813590506121558161212f565b92915050565b6000806040838503121561217257612171611ef9565b5b600061218085828601612146565b925050602061219185828601612091565b9150509250929050565b6121a481612070565b82525050565b60006020820190506121bf600083018461219b565b92915050565b6000806000606084860312156121de576121dd611ef9565b5b60006121ec86828701612091565b93505060206121fd86828701612146565b925050604061220e86828701612091565b9150509250925092565b60008060006060848603121561223157612230611ef9565b5b600061223f86828701612146565b935050602061225086828701612146565b925050604061226186828701612091565b9150509250925092565b600081519050919050565b600082825260208201905092915050565b6000819050602082019050919050565b6122a081612070565b82525050565b60006122b28383612297565b60208301905092915050565b6000602082019050919050565b60006122d68261226b565b6122e08185612276565b93506122eb83612287565b8060005b8381101561231c57815161230388826122a6565b975061230e836122be565b9250506001810190506122ef565b5085935050505092915050565b6000602082019050818103600083015261234381846122cb565b905092915050565b60006020828403121561236157612360611ef9565b5b600061236f84828501612146565b91505092915050565b61238181611f88565b811461238c57600080fd5b50565b60008135905061239e81612378565b92915050565b600080604083850312156123bb576123ba611ef9565b5b60006123c985828601612146565b92505060206123da8582860161238f565b9150509250929050565b600080604083850312156123fb576123fa611ef9565b5b600061240985828601612091565b925050602061241a85828601612146565b9150509250929050565b600080fd5b600080fd5b7f4e487b7100000000000000000000000000000000000000000000000000000000600052604160045260246000fd5b61246682612004565b810181811067ffffffffffffffff821117156124855761248461242e565b5b80604052505050565b6000612498611eef565b90506124a4828261245d565b919050565b600067ffffffffffffffff8211156124c4576124c361242e565b5b6124cd82612004565b9050602081019050919050565b82818337600083830152505050565b60006124fc6124f7846124a9565b61248e565b90508281526020810184848401111561251857612517612429565b5b6125238482856124da565b509392505050565b600082601f8301126125405761253f612424565b5b81356125508482602086016124e9565b91505092915050565b6000806000806080858703121561257357612572611ef9565b5b600061258187828801612146565b945050602061259287828801612146565b93505060406125a387828801612091565b925050606085013567ffffffffffffffff8111156125c4576125c3611efe565b5b6125d08782880161252b565b91505092959194509250565b600080604083850312156125f3576125f2611ef9565b5b600061260185828601612091565b925050602061261285828601612091565b9150509250929050565b6000806040838503121561263357612632611ef9565b5b600061264185828601612146565b925050602061265285828601612146565b9150509250929050565b7f4e487b7100000000000000000000000000000000000000000000000000000000600052602260045260246000fd5b600060028204905060018216806126a357607f821691505b6020821081036126b6576126b561265c565b5b50919050565b6000819050919050565b6000819050919050565b60006126eb6126e66126e1846126bc565b6126c6565b612070565b9050919050565b6126fb816126d0565b82525050565b600060208201905061271660008301846126f2565b92915050565b7f4e487b7100000000000000000000000000000000000000000000000000000000600052601160045260246000fd5b600061275682612070565b91507fffffffffffffffffffffffffffffffffffffffffffffffffffffffffffffffff82036127885761278761271c565b5b600182019050919050565b600061279e82612070565b91506127a983612070565b92508282019050808211156127c1576127c061271c565b5b92915050565b60006060820190506127dc6000830186612105565b6127e9602083018561219b565b6127f66040830184612105565b949350505050565b7f4e487b7100000000000000000000000000000000000000000000000000000000600052603260045260246000fd5b600081905092915050565b600061284382611fbe565b61284d818561282d565b935061285d818560208601611fda565b80840191505092915050565b60006128758285612838565b91506128818284612838565b91508190509392505050565b7f4552433732313a206d696e7420746f20746865207a65726f2061646472657373600082015250565b60006128c3602083611fc9565b91506128ce8261288d565b602082019050919050565b600060208201905081810360008301526128f2816128b6565b9050919050565b600081519050919050565b600082825260208201905092915050565b6000612920826128f9565b61292a8185612904565b935061293a818560208601611fda565b61294381612004565b840191505092915050565b60006080820190506129636000830187612105565b6129706020830186612105565b61297d604083018561219b565b818103606083015261298f8184612915565b905095945050505050565b6000815190506129a981611f2f565b92915050565b6000602082840312156129c5576129c4611ef9565b5b60006129d38482850161299a565b91505092915050565b7f4e487b7100000000000000000000000000000000000000000000000000000000600052601260045260246000fd5b6000604082019050612a206000830185612105565b612a2d602083018461219b565b939250505056fea264697066735822122082075ca9ba604e1b4d8d2f0a4626f4c3c78356023e9042b0b4b078858fa3950c64736f6c6343000814003360806040523480156200001157600080fd5b50604051620016fe380380620016fe8339818101604052810190620000379190620001fa565b818181600390816200004a9190620004ca565b5080600490816200005c9190620004ca565b5050505050620005b1565b6000604051905090565b600080fd5b600080fd5b600080fd5b600080fd5b6000601f19601f8301169050919050565b7f4e487b7100000000000000000000000000000000000000000000000000000000600052604160045260246000fd5b620000d08262000085565b810181811067ffffffffffffffff82111715620000f257620000f162000096565b5b80604052505050565b60006200010762000067565b9050620001158282620000c5565b919050565b600067ffffffffffffffff82111562000138576200013762000096565b5b620001438262000085565b9050602081019050919050565b60005b838110156200017057808201518184015260208101905062000153565b60008484015250505050565b6000620001936200018d846200011a565b620000fb565b905082815260208101848484011115620001b257620001b162000080565b5b620001bf84828562000150565b509392505050565b600082601f830112620001df57620001de6200007b565b5b8151620001f18482602086016200017c565b91505092915050565b6000806040838503121562000214576200021362000071565b5b600083015167ffffffffffffffff81111562000235576200023462000076565b5b6200024385828601620001c7565b925050602083015167ffffffffffffffff81111562000267576200026662000076565b5b6200027585828601620001c7565b9150509250929050565b600081519050919050565b7f4e487b7100000000000000000000000000000000000000000000000000000000600052602260045260246000fd5b60006002820490506001821680620002d257607f821691505b602082108103620002e857620002e76200028a565b5b50919050565b60008190508160005260206000209050919050565b60006020601f8301049050919050565b600082821b905092915050565b600060088302620003527fffffffffffffffffffffffffffffffffffffffffffffffffffffffffffffffff8262000313565b6200035e868362000313565b95508019841693508086168417925050509392505050565b6000819050919050565b6000819050919050565b6000620003ab620003a56200039f8462000376565b62000380565b62000376565b9050919050565b6000819050919050565b620003c7836200038a565b620003df620003d682620003b2565b84845462000320565b825550505050565b600090565b620003f6620003e7565b62000403818484620003bc565b505050565b5b818110156200042b576200041f600082620003ec565b60018101905062000409565b5050565b601f8211156200047a576200044481620002ee565b6200044f8462000303565b810160208510156200045f578190505b620004776200046e8562000303565b83018262000408565b50505b505050565b600082821c905092915050565b60006200049f600019846008026200047f565b1980831691505092915050565b6000620004ba83836200048c565b9150826002028217905092915050565b620004d5826200027f565b67ffffffffffffffff811115620004f157620004f062000096565b5b620004fd8254620002b9565b6200050a8282856200042f565b600060209050601f8311600181146200054257600084156200052d578287015190505b620005398582620004ac565b865550620005a9565b601f1984166200055286620002ee565b60005b828110156200057c5784890151825560018201915060208501945060208101905062000555565b868310156200059c578489015162000598601f8916826200048c565b8355505b6001600288020188555050505b505050505050565b61113d80620005c16000396000f3fe608060405234801561001057600080fd5b50600436106100a95760003560e01c80632ebacc9a116100715780632ebacc9a14610154578063313ce5671461017057806370a082311461018e57806395d89b41146101be578063a9059cbb146101dc578063dd62ed3e1461020c576100a9565b806306fdde03146100ae578063095ea7b3146100cc5780631249c58b146100fc57806318160ddd1461010657806323b872dd14610124575b600080fd5b6100b661023c565b6040516100c39190610cb9565b60405180910390f35b6100e660048036038101906100e19190610d74565b6102ce565b6040516100f39190610dcf565b60405180910390f35b6101046102f1565b005b61010e6103e8565b60405161011b9190610df9565b60405180910390f35b61013e60048036038101906101399190610e14565b6103f2565b60405161014b9190610dcf565b60405180910390f35b61016e60048036038101906101699190610e14565b610421565b005b61017861047c565b6040516101859190610e83565b60405180910390f35b6101a860048036038101906101a39190610e9e565b610485565b6040516101b59190610df9565b60405180910390f35b6101c66104cd565b6040516101d39190610cb9565b60405180910390f35b6101f660048036038101906101f19190610d74565b61055f565b6040516102039190610dcf565b60405180910390f35b61022660048036038101906102219190610ecb565b610582565b6040516102339190610df9565b60405180910390f35b60606003805461024b90610f3a565b80601f016020809104026020016040519081016040528092919081815260200182805461027790610f3a565b80156102c45780601f10610299576101008083540402835291602001916102c4565b820191906000526020600020905b8154815290600101906020018083116102a757829003601f168201915b5050505050905090565b6000806102d9610609565b90506102e6818585610611565b600191505092915050565b600033905060001515600560008373ffffffffffffffffffffffffffffffffffffffff1673ffffffffffffffffffffffffffffffffffffffff16815260200190815260200160002060009054906101000a900460ff16151514610389576040517f08c379a000000000000000000000000000000000000000000000000000000000815260040161038090610fb7565b60405180910390fd5b61039581612710610623565b60011515600560008373ffffffffffffffffffffffffffffffffffffffff1673ffffffffffffffffffffffffffffffffffffffff16815260200190815260200160002060009054906101000a9050505050565b6000600254905090565b6000806103fd610609565b905061040a8582856106a5565b610415858585610739565b60019150509392505050565b8061042b84610485565b101561046c576040517f08c379a000000000000000000000000000000000000000000000000000000000815260040161046390611023565b60405180910390fd5b610477838383610739565b505050565b60006012905090565b60008060008373ffffffffffffffffffffffffffffffffffffffff1673ffffffffffffffffffffffffffffffffffffffff168152602001908152602001600020549050919050565b6060600480546104dc90610f3a565b80601f016020809104026020016040519081016040528092919081815260200182805461050890610f3a565b80156105555780601f1061052a57610100808354040283529160200191610555565b820191906000526020600020905b81548152906001019060200180831161053857829003601f168201915b5050505050905090565b60008061056a610609565b9050610577818585610739565b600191505092915050565b6000600160008473ffffffffffffffffffffffffffffffffffffffff1673ffffffffffffffffffffffffffffffffffffffff16815260200190815260200160002060008373ffffffffffffffffffffffffffffffffffffffff1673ffffffffffffffffffffffffffffffffffffffff16815260200190815260200160002054905092915050565b600033905090565b61061e838383600161082d565b505050565b600073ffffffffffffffffffffffffffffffffffffffff168273ffffffffffffffffffffffffffffffffffffffff16036106955760006040517fec442f0500000000000000000000000000000000000000000000000000000000815260040161068c9190611052565b60405180910390fd5b6106a160008383610a04565b5050565b60006106b18484610582565b90507fffffffffffffffffffffffffffffffffffffffffffffffffffffffffffffffff81146107335781811015610723578281836040517ffb8f41b200000000000000000000000000000000000000000000000000000000815260040161071a9392919061106d565b60405180910390fd5b6107328484848403600061082d565b5b50505050565b600073ffffffffffffffffffffffffffffffffffffffff168373ffffffffffffffffffffffffffffffffffffffff16036107ab5760006040517f96c6fd1e0000000000000000000000000000000000000000000000000000000081526004016107a29190611052565b60405180910390fd5b600073ffffffffffffffffffffffffffffffffffffffff168273ffffffffffffffffffffffffffffffffffffffff160361081d5760006040517fec442f050000000000000000000000000000000000000000000000000000000081526004016108149190611052565b60405180910390fd5b610828838383610a04565b505050565b600073ffffffffffffffffffffffffffffffffffffffff168473ffffffffffffffffffffffffffffffffffffffff160361089f5760006040517fe602df050000000000000000000000000000000000000000000000000000000081526004016108969190611052565b60405180910390fd5b600073ffffffffffffffffffffffffffffffffffffffff168373ffffffffffffffffffffffffffffffffffffffff16036109115760006040517f94280d620000000000000000000000000000000000000000000000000000000081526004016109089190611052565b60405180910390fd5b81600160008673ffffffffffffffffffffffffffffffffffffffff1673ffffffffffffffffffffffffffffffffffffffff16815260200190815260200160002060008573ffffffffffffffffffffffffffffffffffffffff1673ffffffffffffffffffffffffffffffffffffffff1681526020019081526020016000208190555080156109fe578273ffffffffffffffffffffffffffffffffffffffff168473ffffffffffffffffffffffffffffffffffffffff167f8c5be1e5ebec7d5bd14f71427d1e84f3dd0314c0f7b2291e5b200ac8c7c3b925846040516109f59190610df9565b60405180910390a35b50505050565b600073ffffffffffffffffffffffffffffffffffffffff168373ffffffffffffffffffffffffffffffffffffffff1603610a56578060026000828254610a4a91906110d3565b92505081905550610b29565b60008060008573ffffffffffffffffffffffffffffffffffffffff1673ffffffffffffffffffffffffffffffffffffffff16815260200190815260200160002054905081811015610ae2578381836040517fe450d38c000000000000000000000000000000000000000000000000000000008152600401610ad99392919061106d565b60405180910390fd5b8181036000808673ffffffffffffffffffffffffffffffffffffffff1673ffffffffffffffffffffffffffffffffffffffff16815260200190815260200160002081905550505b600073ffffffffffffffffffffffffffffffffffffffff168273ffffffffffffffffffffffffffffffffffffffff1603610b725780600260008282540392505081905550610bbf565b806000808473ffffffffffffffffffffffffffffffffffffffff1673ffffffffffffffffffffffffffffffffffffffff168152602001908152602001600020600082825401925050819055505b8173ffffffffffffffffffffffffffffffffffffffff168373ffffffffffffffffffffffffffffffffffffffff167fddf252ad1be2c89b69c2b068fc378daa952ba7f163c4a11628f55a4df523b3ef83604051610c1c9190610df9565b60405180910390a3505050565b600081519050919050565b600082825260208201905092915050565b60005b83811015610c63578082015181840152602081019050610c48565b60008484015250505050565b6000601f19601f8301169050919050565b6000610c8b82610c29565b610c958185610c34565b9350610ca5818560208601610c45565b610cae81610c6f565b840191505092915050565b60006020820190508181036000830152610cd38184610c80565b905092915050565b600080fd5b600073ffffffffffffffffffffffffffffffffffffffff82169050919050565b6000610d0b82610ce0565b9050919050565b610d1b81610d00565b8114610d2657600080fd5b50565b600081359050610d3881610d12565b92915050565b6000819050919050565b610d5181610d3e565b8114610d5c57600080fd5b50565b600081359050610d6e81610d48565b92915050565b60008060408385031215610d8b57610d8a610cdb565b5b6000610d9985828601610d29565b9250506020610daa85828601610d5f565b9150509250929050565b60008115159050919050565b610dc981610db4565b82525050565b6000602082019050610de46000830184610dc0565b92915050565b610df381610d3e565b82525050565b6000602082019050610e0e6000830184610dea565b92915050565b600080600060608486031215610e2d57610e2c610cdb565b5b6000610e3b86828701610d29565b9350506020610e4c86828701610d29565b9250506040610e5d86828701610d5f565b9150509250925092565b600060ff82169050919050565b610e7d81610e67565b82525050565b6000602082019050610e986000830184610e74565b92915050565b600060208284031215610eb457610eb3610cdb565b5b6000610ec284828501610d29565b91505092915050565b60008060408385031215610ee257610ee1610cdb565b5b6000610ef085828601610d29565b9250506020610f0185828601610d29565b9150509250929050565b7f4e487b7100000000000000000000000000000000000000000000000000000000600052602260045260246000fd5b60006002820490506001821680610f5257607f821691505b602082108103610f6557610f64610f0b565b5b50919050565b7f596f75206861766520616c726561647920636c61696d65640000000000000000600082015250565b6000610fa1601883610c34565b9150610fac82610f6b565b602082019050919050565b60006020820190508181036000830152610fd081610f94565b9050919050565b7f596f7520646f6e2774206861766520656e6f7567682062616c616e6365000000600082015250565b600061100d601d83610c34565b915061101882610fd7565b602082019050919050565b6000602082019050818103600083015261103c81611000565b9050919050565b61104c81610d00565b82525050565b60006020820190506110676000830184611043565b92915050565b60006060820190506110826000830186611043565b61108f6020830185610dea565b61109c6040830184610dea565b949350505050565b7f4e487b7100000000000000000000000000000000000000000000000000000000600052601160045260246000fd5b60006110de82610d3e565b91506110e983610d3e565b9250828201905080821115611101576111006110a4565b5b9291505056fea2646970667358221220d04f1b36a8b45748b427fea8561deff3574d0d85b5b3195a88402a8f9dfd855364736f6c63430008140033",
  "linkReferences": {},
  "deployedLinkReferences": {}
}