{
  "_format": "hh-sol-artifact-1",
  "contractName": "BorrowYourCar",
  "sourceName": "contracts/BorrowYourCar.sol",
  "abi": [
    {
      "inputs": [],
      "stateMutability": "nonpayable",
      "type": "constructor"
    },
    {
      "anonymous": false,
      "inputs": [
        {
          "indexed": false,
          "internalType": "uint256",
          "name": "carTokenId",
          "type": "uint256"
        },
        {
          "indexed": false,
          "internalType": "address",
          "name": "borrower",
          "type": "address"
        },
        {
          "indexed": false,
          "internalType": "uint256",
          "name": "startTime",
          "type": "uint256"
        },
        {
          "indexed": false,
          "internalType": "uint256",
          "name": "duration",
          "type": "uint256"
        }
      ],
      "name": "CarBorrowed",
      "type": "event"
    },
    {
      "anonymous": false,
      "inputs": [
        {
          "indexed": false,
          "internalType": "uint256",
          "name": "balance",
          "type": "uint256"
        }
      ],
      "name": "userBalance",
      "type": "event"
    },
    {
      "inputs": [
        {
          "internalType": "uint256",
          "name": "tokenId",
          "type": "uint256"
        }
      ],
      "name": "Getcarborrower",
      "outputs": [
        {
          "internalType": "address",
          "name": "",
          "type": "address"
        }
      ],
      "stateMutability": "view",
      "type": "function"
    },
    {
      "inputs": [
        {
          "internalType": "uint256",
          "name": "tokenId",
          "type": "uint256"
        }
      ],
      "name": "Getcarborrowerexpires",
      "outputs": [
        {
          "internalType": "uint256",
          "name": "",
          "type": "uint256"
        }
      ],
      "stateMutability": "view",
      "type": "function"
    },
    {
      "inputs": [],
      "name": "Getcarlist",
      "outputs": [
        {
          "internalType": "uint256[]",
          "name": "",
          "type": "uint256[]"
        }
      ],
      "stateMutability": "view",
      "type": "function"
    },
    {
      "inputs": [],
      "name": "Getcarnum",
      "outputs": [
        {
          "internalType": "uint256",
          "name": "",
          "type": "uint256"
        }
      ],
      "stateMutability": "view",
      "type": "function"
    },
    {
      "inputs": [
        {
          "internalType": "uint256",
          "name": "tokenId",
          "type": "uint256"
        }
      ],
      "name": "Getcarowner",
      "outputs": [
        {
          "internalType": "address",
          "name": "",
          "type": "address"
        }
      ],
      "stateMutability": "view",
      "type": "function"
    },
    {
      "inputs": [],
      "name": "Getfreecarlist",
      "outputs": [
        {
          "internalType": "uint256[]",
          "name": "",
          "type": "uint256[]"
        }
      ],
      "stateMutability": "view",
      "type": "function"
    },
    {
      "inputs": [
        {
          "internalType": "address",
          "name": "user",
          "type": "address"
        },
        {
          "internalType": "uint256",
          "name": "tokenId",
          "type": "uint256"
        },
        {
          "internalType": "uint256",
          "name": "duration",
          "type": "uint256"
        }
      ],
      "name": "borrowCar",
      "outputs": [
        {
          "internalType": "uint256",
          "name": "",
          "type": "uint256"
        }
      ],
      "stateMutability": "nonpayable",
      "type": "function"
    },
    {
      "inputs": [],
      "name": "erc20",
      "outputs": [
        {
          "internalType": "contract MyERC",
          "name": "",
          "type": "address"
        }
      ],
      "stateMutability": "view",
      "type": "function"
    },
    {
      "inputs": [],
      "name": "getBalanceofUser",
      "outputs": [
        {
          "internalType": "uint256",
          "name": "",
          "type": "uint256"
        }
      ],
      "stateMutability": "nonpayable",
      "type": "function"
    },
    {
      "inputs": [
        {
          "internalType": "uint256",
          "name": "tokenId",
          "type": "uint256"
        }
      ],
      "name": "getCarPrice",
      "outputs": [
        {
          "internalType": "uint256",
          "name": "",
          "type": "uint256"
        }
      ],
      "stateMutability": "view",
      "type": "function"
    },
    {
      "inputs": [],
      "name": "helloworld",
      "outputs": [
        {
          "internalType": "string",
          "name": "",
          "type": "string"
        }
      ],
      "stateMutability": "pure",
      "type": "function"
    },
    {
      "inputs": [],
      "name": "manager",
      "outputs": [
        {
          "internalType": "address",
          "name": "",
          "type": "address"
        }
      ],
      "stateMutability": "view",
      "type": "function"
    },
    {
      "inputs": [
        {
          "internalType": "address",
          "name": "user",
          "type": "address"
        }
      ],
      "name": "mintCar",
      "outputs": [],
      "stateMutability": "nonpayable",
      "type": "function"
    },
    {
      "inputs": [],
      "name": "mintMoney",
      "outputs": [],
      "stateMutability": "nonpayable",
      "type": "function"
    },
    {
      "inputs": [],
      "name": "nft",
      "outputs": [
        {
          "internalType": "contract MyNFT",
          "name": "",
          "type": "address"
        }
      ],
      "stateMutability": "view",
      "type": "function"
    },
    {
      "inputs": [
        {
          "internalType": "uint256",
          "name": "tokenId",
          "type": "uint256"
        }
      ],
      "name": "returnCar",
      "outputs": [
        {
          "internalType": "bool",
          "name": "",
          "type": "bool"
        }
      ],
      "stateMutability": "nonpayable",
      "type": "function"
    },
    {
      "inputs": [
        {
          "internalType": "uint256",
          "name": "tokenId",
          "type": "uint256"
        },
        {
          "internalType": "uint256",
          "name": "price",
          "type": "uint256"
        }
      ],
      "name": "setCarPrice",
      "outputs": [],
      "stateMutability": "nonpayable",
      "type": "function"
    },
    {
      "inputs": [
        {
          "internalType": "uint256",
          "name": "",
          "type": "uint256"
        }
      ],
      "name": "users",
      "outputs": [
        {
          "internalType": "address",
          "name": "",
          "type": "address"
        }
      ],
      "stateMutability": "view",
      "type": "function"
    }
  ],
  "bytecode": "0x60806040523480156200001157600080fd5b50336000806101000a81548173ffffffffffffffffffffffffffffffffffffffff021916908373ffffffffffffffffffffffffffffffffffffffff160217905550604051620000609062000146565b6200006b9062000213565b604051809103906000f08015801562000088573d6000803e3d6000fd5b50600260006101000a81548173ffffffffffffffffffffffffffffffffffffffff021916908373ffffffffffffffffffffffffffffffffffffffff160217905550604051620000d79062000154565b620000e290620002ea565b604051809103906000f080158015620000ff573d6000803e3d6000fd5b50600360006101000a81548173ffffffffffffffffffffffffffffffffffffffff021916908373ffffffffffffffffffffffffffffffffffffffff16021790555062000321565b612db18062002d9483390190565b61170b8062005b4583390190565b600082825260208201905092915050565b7f6361725f4e465400000000000000000000000000000000000000000000000000600082015250565b6000620001ab60078362000162565b9150620001b88262000173565b602082019050919050565b7f6361725f4e46545f73796d626f6c000000000000000000000000000000000000600082015250565b6000620001fb600e8362000162565b91506200020882620001c3565b602082019050919050565b600060408201905081810360008301526200022e816200019c565b905081810360208301526200024381620001ec565b9050919050565b7f6d795f4552433230000000000000000000000000000000000000000000000000600082015250565b60006200028260088362000162565b91506200028f826200024a565b602082019050919050565b7f6d795f45524332305f73796d626f6c0000000000000000000000000000000000600082015250565b6000620002d2600f8362000162565b9150620002df826200029a565b602082019050919050565b60006040820190508181036000830152620003058162000273565b905081810360208301526200031a81620002c3565b9050919050565b612a6380620003316000396000f3fe608060405234801561001057600080fd5b50600436106101165760003560e01c8063785e9e86116100a2578063bed41b1b11610071578063bed41b1b146102f7578063c4afc93914610313578063ca1f350114610343578063df14692d14610361578063e40686f41461037f57610116565b8063785e9e8614610283578063afe816fe146102a1578063b96a6084146102d1578063bae5a631146102ed57610116565b806347ccca02116100e957806347ccca02146101c9578063481c6a75146101e75780634c925f5e146102055780636ef016d31461023557806371e69a321461025357610116565b806317f956e01461011b5780632014e1961461014b5780632f2f48591461017b578063365b98b214610199575b600080fd5b61013560048036038101906101309190611e6e565b61039d565b6040516101429190611eb6565b60405180910390f35b61016560048036038101906101609190611e6e565b6106c9565b6040516101729190611f12565b60405180910390f35b61018361076e565b6040516101909190611fbd565b60405180910390f35b6101b360048036038101906101ae9190611e6e565b6107ab565b6040516101c09190611f12565b60405180910390f35b6101d16107ea565b6040516101de919061203e565b60405180910390f35b6101ef610810565b6040516101fc9190611f12565b60405180910390f35b61021f600480360381019061021a9190611e6e565b610834565b60405161022c9190611f12565b60405180910390f35b61023d6108d9565b60405161024a9190612068565b60405180910390f35b61026d60048036038101906102689190611e6e565b610a53565b60405161027a9190612068565b60405180910390f35b61028b610af8565b60405161029891906120a4565b60405180910390f35b6102bb60048036038101906102b69190611e6e565b610b1e565b6040516102c89190612068565b60405180910390f35b6102eb60048036038101906102e691906120bf565b610bc3565b005b6102f5610d5f565b005b610311600480360381019061030c919061212b565b610dee565b005b61032d60048036038101906103289190612158565b610f0c565b60405161033a9190612068565b60405180910390f35b61034b6115c3565b6040516103589190612068565b60405180910390f35b610369611666565b6040516103769190612269565b60405180910390f35b6103876119e7565b6040516103949190612269565b60405180910390f35b60003373ffffffffffffffffffffffffffffffffffffffff16600260009054906101000a900473ffffffffffffffffffffffffffffffffffffffff1673ffffffffffffffffffffffffffffffffffffffff16631a241099846040518263ffffffff1660e01b81526004016104119190612068565b602060405180830381865afa15801561042e573d6000803e3d6000fd5b505050506040513d601f19601f8201168201806040525081019061045291906122a0565b73ffffffffffffffffffffffffffffffffffffffff1614806104bf575060008054906101000a900473ffffffffffffffffffffffffffffffffffffffff1673ffffffffffffffffffffffffffffffffffffffff163373ffffffffffffffffffffffffffffffffffffffff16145b6104fe576040517f08c379a00000000000000000000000000000000000000000000000000000000081526004016104f59061233f565b60405180910390fd5b6000600260009054906101000a900473ffffffffffffffffffffffffffffffffffffffff1673ffffffffffffffffffffffffffffffffffffffff1663971d6d6e846040518263ffffffff1660e01b815260040161055b9190612068565b602060405180830381865afa158015610578573d6000803e3d6000fd5b505050506040513d601f19601f8201168201806040525081019061059c91906122a0565b9050600260009054906101000a900473ffffffffffffffffffffffffffffffffffffffff1673ffffffffffffffffffffffffffffffffffffffff1663b7760c8f84836040518363ffffffff1660e01b81526004016105fb92919061235f565b600060405180830381600087803b15801561061557600080fd5b505af1158015610629573d6000803e3d6000fd5b50505050600260009054906101000a900473ffffffffffffffffffffffffffffffffffffffff1673ffffffffffffffffffffffffffffffffffffffff16631b8a910d846000806040518463ffffffff1660e01b815260040161068d939291906123c3565b600060405180830381600087803b1580156106a757600080fd5b505af11580156106bb573d6000803e3d6000fd5b505050506001915050919050565b6000600260009054906101000a900473ffffffffffffffffffffffffffffffffffffffff1673ffffffffffffffffffffffffffffffffffffffff1663971d6d6e836040518263ffffffff1660e01b81526004016107269190612068565b602060405180830381865afa158015610743573d6000803e3d6000fd5b505050506040513d601f19601f8201168201806040525081019061076791906122a0565b9050919050565b60606040518060400160405280600b81526020017f68656c6c6f20776f726c64000000000000000000000000000000000000000000815250905090565b600181815481106107bb57600080fd5b906000526020600020016000915054906101000a900473ffffffffffffffffffffffffffffffffffffffff1681565b600260009054906101000a900473ffffffffffffffffffffffffffffffffffffffff1681565b60008054906101000a900473ffffffffffffffffffffffffffffffffffffffff1681565b6000600260009054906101000a900473ffffffffffffffffffffffffffffffffffffffff1673ffffffffffffffffffffffffffffffffffffffff16631a241099836040518263ffffffff1660e01b81526004016108919190612068565b602060405180830381865afa1580156108ae573d6000803e3d6000fd5b505050506040513d601f19601f820116820180604052508101906108d291906122a0565b9050919050565b600080600360009054906101000a900473ffffffffffffffffffffffffffffffffffffffff1673ffffffffffffffffffffffffffffffffffffffff166370a08231336040518263ffffffff1660e01b81526004016109379190611f12565b602060405180830381865afa158015610954573d6000803e3d6000fd5b505050506040513d601f19601f82011682018060405250810190610978919061240f565b90507fd17106e90d4d276477913ba289d7681e9e0e7e7a8c4a5bdd8f75dbc997138e69600360009054906101000a900473ffffffffffffffffffffffffffffffffffffffff1673ffffffffffffffffffffffffffffffffffffffff166370a08231336040518263ffffffff1660e01b81526004016109f69190611f12565b602060405180830381865afa158015610a13573d6000803e3d6000fd5b505050506040513d601f19601f82011682018060405250810190610a37919061240f565b604051610a449190612068565b60405180910390a18091505090565b6000600260009054906101000a900473ffffffffffffffffffffffffffffffffffffffff1673ffffffffffffffffffffffffffffffffffffffff166371e69a32836040518263ffffffff1660e01b8152600401610ab09190612068565b602060405180830381865afa158015610acd573d6000803e3d6000fd5b505050506040513d601f19601f82011682018060405250810190610af1919061240f565b9050919050565b600360009054906101000a900473ffffffffffffffffffffffffffffffffffffffff1681565b6000600260009054906101000a900473ffffffffffffffffffffffffffffffffffffffff1673ffffffffffffffffffffffffffffffffffffffff16638fc88c48836040518263ffffffff1660e01b8152600401610b7b9190612068565b602060405180830381865afa158015610b98573d6000803e3d6000fd5b505050506040513d601f19601f82011682018060405250810190610bbc919061240f565b9050919050565b600260009054906101000a900473ffffffffffffffffffffffffffffffffffffffff1673ffffffffffffffffffffffffffffffffffffffff1663971d6d6e836040518263ffffffff1660e01b8152600401610c1e9190612068565b602060405180830381865afa158015610c3b573d6000803e3d6000fd5b505050506040513d601f19601f82011682018060405250810190610c5f91906122a0565b73ffffffffffffffffffffffffffffffffffffffff163373ffffffffffffffffffffffffffffffffffffffff1614610ccc576040517f08c379a0000000000000000000000000000000000000000000000000000000008152600401610cc3906124ae565b60405180910390fd5b600260009054906101000a900473ffffffffffffffffffffffffffffffffffffffff1673ffffffffffffffffffffffffffffffffffffffff1663b96a608483836040518363ffffffff1660e01b8152600401610d299291906124ce565b600060405180830381600087803b158015610d4357600080fd5b505af1158015610d57573d6000803e3d6000fd5b505050505050565b600360009054906101000a900473ffffffffffffffffffffffffffffffffffffffff1673ffffffffffffffffffffffffffffffffffffffff16636a627842336040518263ffffffff1660e01b8152600401610dba9190611f12565b600060405180830381600087803b158015610dd457600080fd5b505af1158015610de8573d6000803e3d6000fd5b50505050565b60008054906101000a900473ffffffffffffffffffffffffffffffffffffffff1673ffffffffffffffffffffffffffffffffffffffff163373ffffffffffffffffffffffffffffffffffffffff1614610e7c576040517f08c379a0000000000000000000000000000000000000000000000000000000008152600401610e7390612569565b60405180910390fd5b600260009054906101000a900473ffffffffffffffffffffffffffffffffffffffff1673ffffffffffffffffffffffffffffffffffffffff1663322f6171826040518263ffffffff1660e01b8152600401610ed79190611f12565b600060405180830381600087803b158015610ef157600080fd5b505af1158015610f05573d6000803e3d6000fd5b5050505050565b60008073ffffffffffffffffffffffffffffffffffffffff16600260009054906101000a900473ffffffffffffffffffffffffffffffffffffffff1673ffffffffffffffffffffffffffffffffffffffff16631a241099856040518263ffffffff1660e01b8152600401610f809190612068565b602060405180830381865afa158015610f9d573d6000803e3d6000fd5b505050506040513d601f19601f82011682018060405250810190610fc191906122a0565b73ffffffffffffffffffffffffffffffffffffffff1614611017576040517f08c379a000000000000000000000000000000000000000000000000000000000815260040161100e906125d5565b60405180910390fd5b6000600260009054906101000a900473ffffffffffffffffffffffffffffffffffffffff1673ffffffffffffffffffffffffffffffffffffffff16638fc88c48856040518263ffffffff1660e01b81526004016110749190612068565b602060405180830381865afa158015611091573d6000803e3d6000fd5b505050506040513d601f19601f820116820180604052508101906110b5919061240f565b146110f5576040517f08c379a00000000000000000000000000000000000000000000000000000000081526004016110ec906125d5565b60405180910390fd5b81600260009054906101000a900473ffffffffffffffffffffffffffffffffffffffff1673ffffffffffffffffffffffffffffffffffffffff166371e69a32856040518263ffffffff1660e01b81526004016111519190612068565b602060405180830381865afa15801561116e573d6000803e3d6000fd5b505050506040513d601f19601f82011682018060405250810190611192919061240f565b61119c9190612624565b600360009054906101000a900473ffffffffffffffffffffffffffffffffffffffff1673ffffffffffffffffffffffffffffffffffffffff166370a08231866040518263ffffffff1660e01b81526004016111f79190611f12565b602060405180830381865afa158015611214573d6000803e3d6000fd5b505050506040513d601f19601f82011682018060405250810190611238919061240f565b1015611279576040517f08c379a0000000000000000000000000000000000000000000000000000000008152600401611270906126b2565b60405180910390fd5b600260009054906101000a900473ffffffffffffffffffffffffffffffffffffffff1673ffffffffffffffffffffffffffffffffffffffff16631b8a910d848685426112c591906126d2565b6040518463ffffffff1660e01b81526004016112e393929190612706565b600060405180830381600087803b1580156112fd57600080fd5b505af1158015611311573d6000803e3d6000fd5b50505050600260009054906101000a900473ffffffffffffffffffffffffffffffffffffffff1673ffffffffffffffffffffffffffffffffffffffff1663b7760c8f84866040518363ffffffff1660e01b815260040161137292919061235f565b600060405180830381600087803b15801561138c57600080fd5b505af11580156113a0573d6000803e3d6000fd5b50505050600360009054906101000a900473ffffffffffffffffffffffffffffffffffffffff1673ffffffffffffffffffffffffffffffffffffffff16632ebacc9a85600260009054906101000a900473ffffffffffffffffffffffffffffffffffffffff1673ffffffffffffffffffffffffffffffffffffffff1663971d6d6e876040518263ffffffff1660e01b815260040161143e9190612068565b602060405180830381865afa15801561145b573d6000803e3d6000fd5b505050506040513d601f19601f8201168201806040525081019061147f91906122a0565b85600260009054906101000a900473ffffffffffffffffffffffffffffffffffffffff1673ffffffffffffffffffffffffffffffffffffffff166371e69a32896040518263ffffffff1660e01b81526004016114db9190612068565b602060405180830381865afa1580156114f8573d6000803e3d6000fd5b505050506040513d601f19601f8201168201806040525081019061151c919061240f565b6115269190612624565b6040518463ffffffff1660e01b81526004016115449392919061273d565b600060405180830381600087803b15801561155e57600080fd5b505af1158015611572573d6000803e3d6000fd5b505050507f8879d78706834dc00d82232992f71250fab6a1f70b08260968253950083d88cd833342856040516115ab9493929190612774565b60405180910390a16000429050809150509392505050565b6000600260009054906101000a900473ffffffffffffffffffffffffffffffffffffffff1673ffffffffffffffffffffffffffffffffffffffff166370a08231336040518263ffffffff1660e01b81526004016116209190611f12565b602060405180830381865afa15801561163d573d6000803e3d6000fd5b505050506040513d601f19601f82011682018060405250810190611661919061240f565b905090565b606060006116726115c3565b90506000600260009054906101000a900473ffffffffffffffffffffffffffffffffffffffff1673ffffffffffffffffffffffffffffffffffffffff16632799276d6040518163ffffffff1660e01b8152600401600060405180830381865afa1580156116e3573d6000803e3d6000fd5b505050506040513d6000823e3d601f19601f8201168201806040525081019061170c9190612901565b905060008267ffffffffffffffff81111561172a576117296127be565b5b6040519080825280602002602001820160405280156117585781602001602082028036833780820191505090505b5090506000805b8351811015611998573373ffffffffffffffffffffffffffffffffffffffff16600260009054906101000a900473ffffffffffffffffffffffffffffffffffffffff1673ffffffffffffffffffffffffffffffffffffffff16631a2410998684815181106117d0576117cf61294a565b5b60200260200101516040518263ffffffff1660e01b81526004016117f49190612068565b602060405180830381865afa158015611811573d6000803e3d6000fd5b505050506040513d601f19601f8201168201806040525081019061183591906122a0565b73ffffffffffffffffffffffffffffffffffffffff16148061193757503373ffffffffffffffffffffffffffffffffffffffff16600260009054906101000a900473ffffffffffffffffffffffffffffffffffffffff1673ffffffffffffffffffffffffffffffffffffffff16636352211e8684815181106118ba576118b961294a565b5b60200260200101516040518263ffffffff1660e01b81526004016118de9190612068565b602060405180830381865afa1580156118fb573d6000803e3d6000fd5b505050506040513d601f19601f8201168201806040525081019061191f91906122a0565b73ffffffffffffffffffffffffffffffffffffffff16145b156119855783818151811061194f5761194e61294a565b5b602002602001015183838151811061196a5761196961294a565b5b602002602001018181525050818061198190612979565b9250505b808061199090612979565b91505061175f565b5060008251036119dd576040517f08c379a00000000000000000000000000000000000000000000000000000000081526004016119d490612a0d565b60405180910390fd5b8194505050505090565b60606000600260009054906101000a900473ffffffffffffffffffffffffffffffffffffffff1673ffffffffffffffffffffffffffffffffffffffff166318160ddd6040518163ffffffff1660e01b8152600401602060405180830381865afa158015611a58573d6000803e3d6000fd5b505050506040513d601f19601f82011682018060405250810190611a7c919061240f565b67ffffffffffffffff811115611a9557611a946127be565b5b604051908082528060200260200182016040528015611ac35781602001602082028036833780820191505090505b5090506000600260009054906101000a900473ffffffffffffffffffffffffffffffffffffffff1673ffffffffffffffffffffffffffffffffffffffff16632799276d6040518163ffffffff1660e01b8152600401600060405180830381865afa158015611b35573d6000803e3d6000fd5b505050506040513d6000823e3d601f19601f82011682018060405250810190611b5e9190612901565b90506000805b8251811015611d7357600073ffffffffffffffffffffffffffffffffffffffff16600260009054906101000a900473ffffffffffffffffffffffffffffffffffffffff1673ffffffffffffffffffffffffffffffffffffffff16631a241099858481518110611bd657611bd561294a565b5b60200260200101516040518263ffffffff1660e01b8152600401611bfa9190612068565b602060405180830381865afa158015611c17573d6000803e3d6000fd5b505050506040513d601f19601f82011682018060405250810190611c3b91906122a0565b73ffffffffffffffffffffffffffffffffffffffff161480611d1257506000600260009054906101000a900473ffffffffffffffffffffffffffffffffffffffff1673ffffffffffffffffffffffffffffffffffffffff16638fc88c48858481518110611cab57611caa61294a565b5b60200260200101516040518263ffffffff1660e01b8152600401611ccf9190612068565b602060405180830381865afa158015611cec573d6000803e3d6000fd5b505050506040513d601f19601f82011682018060405250810190611d10919061240f565b145b15611d6057828181518110611d2a57611d2961294a565b5b6020026020010151848381518110611d4557611d4461294a565b5b6020026020010181815250508180611d5c90612979565b9250505b8080611d6b90612979565b915050611b64565b5060008167ffffffffffffffff811115611d9057611d8f6127be565b5b604051908082528060200260200182016040528015611dbe5781602001602082028036833780820191505090505b50905060005b82811015611e1957848181518110611ddf57611dde61294a565b5b6020026020010151828281518110611dfa57611df961294a565b5b6020026020010181815250508080611e1190612979565b915050611dc4565b508094505050505090565b6000604051905090565b600080fd5b600080fd5b6000819050919050565b611e4b81611e38565b8114611e5657600080fd5b50565b600081359050611e6881611e42565b92915050565b600060208284031215611e8457611e83611e2e565b5b6000611e9284828501611e59565b91505092915050565b60008115159050919050565b611eb081611e9b565b82525050565b6000602082019050611ecb6000830184611ea7565b92915050565b600073ffffffffffffffffffffffffffffffffffffffff82169050919050565b6000611efc82611ed1565b9050919050565b611f0c81611ef1565b82525050565b6000602082019050611f276000830184611f03565b92915050565b600081519050919050565b600082825260208201905092915050565b60005b83811015611f67578082015181840152602081019050611f4c565b60008484015250505050565b6000601f19601f8301169050919050565b6000611f8f82611f2d565b611f998185611f38565b9350611fa9818560208601611f49565b611fb281611f73565b840191505092915050565b60006020820190508181036000830152611fd78184611f84565b905092915050565b6000819050919050565b6000612004611fff611ffa84611ed1565b611fdf565b611ed1565b9050919050565b600061201682611fe9565b9050919050565b60006120288261200b565b9050919050565b6120388161201d565b82525050565b6000602082019050612053600083018461202f565b92915050565b61206281611e38565b82525050565b600060208201905061207d6000830184612059565b92915050565b600061208e8261200b565b9050919050565b61209e81612083565b82525050565b60006020820190506120b96000830184612095565b92915050565b600080604083850312156120d6576120d5611e2e565b5b60006120e485828601611e59565b92505060206120f585828601611e59565b9150509250929050565b61210881611ef1565b811461211357600080fd5b50565b600081359050612125816120ff565b92915050565b60006020828403121561214157612140611e2e565b5b600061214f84828501612116565b91505092915050565b60008060006060848603121561217157612170611e2e565b5b600061217f86828701612116565b935050602061219086828701611e59565b92505060406121a186828701611e59565b9150509250925092565b600081519050919050565b600082825260208201905092915050565b6000819050602082019050919050565b6121e081611e38565b82525050565b60006121f283836121d7565b60208301905092915050565b6000602082019050919050565b6000612216826121ab565b61222081856121b6565b935061222b836121c7565b8060005b8381101561225c57815161224388826121e6565b975061224e836121fe565b92505060018101905061222f565b5085935050505092915050565b60006020820190508181036000830152612283818461220b565b905092915050565b60008151905061229a816120ff565b92915050565b6000602082840312156122b6576122b5611e2e565b5b60006122c48482850161228b565b91505092915050565b7f596f7520617265206e6f742074686520626f72726f776572206f72207468652060008201527f6d616e6167657200000000000000000000000000000000000000000000000000602082015250565b6000612329602783611f38565b9150612334826122cd565b604082019050919050565b600060208201905081810360008301526123588161231c565b9050919050565b60006040820190506123746000830185612059565b6123816020830184611f03565b9392505050565b6000819050919050565b60006123ad6123a86123a384612388565b611fdf565b611e38565b9050919050565b6123bd81612392565b82525050565b60006060820190506123d86000830186612059565b6123e56020830185611f03565b6123f260408301846123b4565b949350505050565b60008151905061240981611e42565b92915050565b60006020828403121561242557612424611e2e565b5b6000612433848285016123fa565b91505092915050565b7f4f6e6c79205265616c204f776e65722063616e2073657420746865207072696360008201527f6500000000000000000000000000000000000000000000000000000000000000602082015250565b6000612498602183611f38565b91506124a38261243c565b604082019050919050565b600060208201905081810360008301526124c78161248b565b9050919050565b60006040820190506124e36000830185612059565b6124f06020830184612059565b9392505050565b7f4f6e6c79206d616e616765722063616e2063616c6c20746869732066756e637460008201527f696f6e0000000000000000000000000000000000000000000000000000000000602082015250565b6000612553602383611f38565b915061255e826124f7565b604082019050919050565b6000602082019050818103600083015261258281612546565b9050919050565b7f5468697320636172206973206e6f742066726565000000000000000000000000600082015250565b60006125bf601483611f38565b91506125ca82612589565b602082019050919050565b600060208201905081810360008301526125ee816125b2565b9050919050565b7f4e487b7100000000000000000000000000000000000000000000000000000000600052601160045260246000fd5b600061262f82611e38565b915061263a83611e38565b925082820261264881611e38565b9150828204841483151761265f5761265e6125f5565b5b5092915050565b7f546865207573657220646f6e2774206861766520656e6f756768206d6f6e6579600082015250565b600061269c602083611f38565b91506126a782612666565b602082019050919050565b600060208201905081810360008301526126cb8161268f565b9050919050565b60006126dd82611e38565b91506126e883611e38565b9250828201905080821115612700576126ff6125f5565b5b92915050565b600060608201905061271b6000830186612059565b6127286020830185611f03565b6127356040830184612059565b949350505050565b60006060820190506127526000830186611f03565b61275f6020830185611f03565b61276c6040830184612059565b949350505050565b60006080820190506127896000830187612059565b6127966020830186611f03565b6127a36040830185612059565b6127b06060830184612059565b95945050505050565b600080fd5b7f4e487b7100000000000000000000000000000000000000000000000000000000600052604160045260246000fd5b6127f682611f73565b810181811067ffffffffffffffff82111715612815576128146127be565b5b80604052505050565b6000612828611e24565b905061283482826127ed565b919050565b600067ffffffffffffffff821115612854576128536127be565b5b602082029050602081019050919050565b600080fd5b600061287d61287884612839565b61281e565b905080838252602082019050602084028301858111156128a05761289f612865565b5b835b818110156128c957806128b588826123fa565b8452602084019350506020810190506128a2565b5050509392505050565b600082601f8301126128e8576128e76127b9565b5b81516128f884826020860161286a565b91505092915050565b60006020828403121561291757612916611e2e565b5b600082015167ffffffffffffffff81111561293557612934611e33565b5b612941848285016128d3565b91505092915050565b7f4e487b7100000000000000000000000000000000000000000000000000000000600052603260045260246000fd5b600061298482611e38565b91507fffffffffffffffffffffffffffffffffffffffffffffffffffffffffffffffff82036129b6576129b56125f5565b5b600182019050919050565b7f596f7520646f6e2774206861766520616e792063617200000000000000000000600082015250565b60006129f7601683611f38565b9150612a02826129c1565b602082019050919050565b60006020820190508181036000830152612a26816129ea565b905091905056fea2646970667358221220ca028fb0145a87ec287e417b7661d291f42c0b48b2223619fe0e70873788e9e864736f6c6343000814003360806040523480156200001157600080fd5b5060405162002db138038062002db1833981810160405281019062000037919062000202565b818181600090816200004a9190620004d2565b5080600190816200005c9190620004d2565b50505060006006819055505050620005b9565b6000604051905090565b600080fd5b600080fd5b600080fd5b600080fd5b6000601f19601f8301169050919050565b7f4e487b7100000000000000000000000000000000000000000000000000000000600052604160045260246000fd5b620000d8826200008d565b810181811067ffffffffffffffff82111715620000fa57620000f96200009e565b5b80604052505050565b60006200010f6200006f565b90506200011d8282620000cd565b919050565b600067ffffffffffffffff82111562000140576200013f6200009e565b5b6200014b826200008d565b9050602081019050919050565b60005b83811015620001785780820151818401526020810190506200015b565b60008484015250505050565b60006200019b620001958462000122565b62000103565b905082815260208101848484011115620001ba57620001b962000088565b5b620001c784828562000158565b509392505050565b600082601f830112620001e757620001e662000083565b5b8151620001f984826020860162000184565b91505092915050565b600080604083850312156200021c576200021b62000079565b5b600083015167ffffffffffffffff8111156200023d576200023c6200007e565b5b6200024b85828601620001cf565b925050602083015167ffffffffffffffff8111156200026f576200026e6200007e565b5b6200027d85828601620001cf565b9150509250929050565b600081519050919050565b7f4e487b7100000000000000000000000000000000000000000000000000000000600052602260045260246000fd5b60006002820490506001821680620002da57607f821691505b602082108103620002f057620002ef62000292565b5b50919050565b60008190508160005260206000209050919050565b60006020601f8301049050919050565b600082821b905092915050565b6000600883026200035a7fffffffffffffffffffffffffffffffffffffffffffffffffffffffffffffffff826200031b565b6200036686836200031b565b95508019841693508086168417925050509392505050565b6000819050919050565b6000819050919050565b6000620003b3620003ad620003a7846200037e565b62000388565b6200037e565b9050919050565b6000819050919050565b620003cf8362000392565b620003e7620003de82620003ba565b84845462000328565b825550505050565b600090565b620003fe620003ef565b6200040b818484620003c4565b505050565b5b81811015620004335762000427600082620003f4565b60018101905062000411565b5050565b601f82111562000482576200044c81620002f6565b62000457846200030b565b8101602085101562000467578190505b6200047f62000476856200030b565b83018262000410565b50505b505050565b600082821c905092915050565b6000620004a76000198460080262000487565b1980831691505092915050565b6000620004c2838362000494565b9150826002028217905092915050565b620004dd8262000287565b67ffffffffffffffff811115620004f957620004f86200009e565b5b620005058254620002c1565b6200051282828562000437565b600060209050601f8311600181146200054a576000841562000535578287015190505b620005418582620004b4565b865550620005b1565b601f1984166200055a86620002f6565b60005b8281101562000584578489015182556001820191506020850194506020810190506200055d565b86831015620005a45784890151620005a0601f89168262000494565b8355505b6001600288020188555050505b505050505050565b6127e880620005c96000396000f3fe608060405234801561001057600080fd5b50600436106101735760003560e01c806342842e0e116100de578063971d6d6e11610097578063b88d4fde11610071578063b88d4fde14610470578063b96a60841461048c578063c87b56dd146104a8578063e985e9c5146104d857610173565b8063971d6d6e14610408578063a22cb46514610438578063b7760c8f1461045457610173565b806342842e0e1461030e5780636352211e1461032a57806370a082311461035a57806371e69a321461038a5780638fc88c48146103ba57806395d89b41146103ea57610173565b80631a7553ab116101305780631a7553ab146102605780631b8a910d1461027e57806323b872dd1461029a5780632799276d146102b65780632f2f4859146102d4578063322f6171146102f257610173565b806301ffc9a71461017857806306fdde03146101a8578063081812fc146101c6578063095ea7b3146101f657806318160ddd146102125780631a24109914610230575b600080fd5b610192600480360381019061018d9190611da5565b610508565b60405161019f9190611ded565b60405180910390f35b6101b06105ea565b6040516101bd9190611e98565b60405180910390f35b6101e060048036038101906101db9190611ef0565b61067c565b6040516101ed9190611f5e565b60405180910390f35b610210600480360381019061020b9190611fa5565b610698565b005b61021a6106ae565b6040516102279190611ff4565b60405180910390f35b61024a60048036038101906102459190611ef0565b6106b8565b6040516102579190611f5e565b60405180910390f35b61026861071f565b6040516102759190611ff4565b60405180910390f35b6102986004803603810190610293919061200f565b61079c565b005b6102b460048036038101906102af9190612062565b610854565b005b6102be610956565b6040516102cb9190612173565b60405180910390f35b6102dc610a02565b6040516102e99190611e98565b60405180910390f35b61030c60048036038101906103079190612195565b610a3f565b005b61032860048036038101906103239190612062565b610b21565b005b610344600480360381019061033f9190611ef0565b610b41565b6040516103519190611f5e565b60405180910390f35b610374600480360381019061036f9190612195565b610b53565b6040516103819190611ff4565b60405180910390f35b6103a4600480360381019061039f9190611ef0565b610c0d565b6040516103b19190611ff4565b60405180910390f35b6103d460048036038101906103cf9190611ef0565b610c2d565b6040516103e19190611ff4565b60405180910390f35b6103f2610c4d565b6040516103ff9190611e98565b60405180910390f35b610422600480360381019061041d9190611ef0565b610cdf565b60405161042f9190611f5e565b60405180910390f35b610452600480360381019061044d91906121ee565b610d1f565b005b61046e6004803603810190610469919061222e565b610d35565b005b61048a600480360381019061048591906123a3565b610d4c565b005b6104a660048036038101906104a19190612426565b610d69565b005b6104c260048036038101906104bd9190611ef0565b610d8e565b6040516104cf9190611e98565b60405180910390f35b6104f260048036038101906104ed9190612466565b610df7565b6040516104ff9190611ded565b60405180910390f35b60007f80ac58cd000000000000000000000000000000000000000000000000000000007bffffffffffffffffffffffffffffffffffffffffffffffffffffffff1916827bffffffffffffffffffffffffffffffffffffffffffffffffffffffff191614806105d357507f5b5e139f000000000000000000000000000000000000000000000000000000007bffffffffffffffffffffffffffffffffffffffffffffffffffffffff1916827bffffffffffffffffffffffffffffffffffffffffffffffffffffffff1916145b806105e357506105e282610e8b565b5b9050919050565b6060600080546105f9906124d5565b80601f0160208091040260200160405190810160405280929190818152602001828054610625906124d5565b80156106725780601f1061064757610100808354040283529160200191610672565b820191906000526020600020905b81548152906001019060200180831161065557829003601f168201915b5050505050905090565b600061068782610ef5565b5061069182610f7d565b9050919050565b6106aa82826106a5610fba565b610fc2565b5050565b6000600654905090565b6000426007600084815260200190815260200160002060020154116106e0576000905061071a565b6007600083815260200190815260200160002060010160009054906101000a900473ffffffffffffffffffffffffffffffffffffffff1690505b919050565b600080600090506000600190505b6006548111610794573373ffffffffffffffffffffffffffffffffffffffff16610756826106b8565b73ffffffffffffffffffffffffffffffffffffffff16036107815760018261077e9190612535565b91505b808061078c90612569565b91505061072d565b508091505090565b6000600760008581526020019081526020016000209050828160010160006101000a81548173ffffffffffffffffffffffffffffffffffffffff021916908373ffffffffffffffffffffffffffffffffffffffff1602179055508181600201819055508273ffffffffffffffffffffffffffffffffffffffff16847fd0d4d2465fbaaa658444f22a71af0576dc66d910f58504ac3091a8f2e7e0462d846040516108469190611ff4565b60405180910390a350505050565b600073ffffffffffffffffffffffffffffffffffffffff168273ffffffffffffffffffffffffffffffffffffffff16036108c65760006040517f64a0ae920000000000000000000000000000000000000000000000000000000081526004016108bd9190611f5e565b60405180910390fd5b60006108da83836108d5610fba565b610fd4565b90508373ffffffffffffffffffffffffffffffffffffffff168173ffffffffffffffffffffffffffffffffffffffff1614610950578382826040517f64283d7b000000000000000000000000000000000000000000000000000000008152600401610947939291906125b1565b60405180910390fd5b50505050565b6060600060065467ffffffffffffffff81111561097657610975612278565b5b6040519080825280602002602001820160405280156109a45781602001602082028036833780820191505090505b509050600080600190505b60065481116109f957808383815181106109cc576109cb6125e8565b5b60200260200101818152505081806109e390612569565b92505080806109f190612569565b9150506109af565b50819250505090565b60606040518060400160405280600b81526020017f68656c6c6f20776f726c64000000000000000000000000000000000000000000815250905090565b600160066000828254610a529190612535565b9250508190555060006006549050610a6a82826111ee565b6000600760008381526020019081526020016000209050828160000160006101000a81548173ffffffffffffffffffffffffffffffffffffffff021916908373ffffffffffffffffffffffffffffffffffffffff16021790555060008160010160006101000a81548173ffffffffffffffffffffffffffffffffffffffff021916908373ffffffffffffffffffffffffffffffffffffffff1602179055506000816002018190555060008160030181905550505050565b610b3c83838360405180602001604052806000815250610d4c565b505050565b6000610b4c82610ef5565b9050919050565b60008073ffffffffffffffffffffffffffffffffffffffff168273ffffffffffffffffffffffffffffffffffffffff1603610bc65760006040517f89c62b64000000000000000000000000000000000000000000000000000000008152600401610bbd9190611f5e565b60405180910390fd5b600360008373ffffffffffffffffffffffffffffffffffffffff1673ffffffffffffffffffffffffffffffffffffffff168152602001908152602001600020549050919050565b600060076000838152602001908152602001600020600301549050919050565b600060076000838152602001908152602001600020600201549050919050565b606060018054610c5c906124d5565b80601f0160208091040260200160405190810160405280929190818152602001828054610c88906124d5565b8015610cd55780601f10610caa57610100808354040283529160200191610cd5565b820191906000526020600020905b815481529060010190602001808311610cb857829003601f168201915b5050505050905090565b60006007600083815260200190815260200160002060000160009054906101000a900473ffffffffffffffffffffffffffffffffffffffff169050919050565b610d31610d2a610fba565b83836112e7565b5050565b610d48610d4183610b41565b8284611456565b5050565b610d57848484610854565b610d63848484846115c3565b50505050565b6000600760008481526020019081526020016000209050818160030181905550505050565b6060610d9982610ef5565b506000610da461177a565b90506000815111610dc45760405180602001604052806000815250610def565b80610dce84611791565b604051602001610ddf929190612653565b6040516020818303038152906040525b915050919050565b6000600560008473ffffffffffffffffffffffffffffffffffffffff1673ffffffffffffffffffffffffffffffffffffffff16815260200190815260200160002060008373ffffffffffffffffffffffffffffffffffffffff1673ffffffffffffffffffffffffffffffffffffffff16815260200190815260200160002060009054906101000a900460ff16905092915050565b60007f01ffc9a7000000000000000000000000000000000000000000000000000000007bffffffffffffffffffffffffffffffffffffffffffffffffffffffff1916827bffffffffffffffffffffffffffffffffffffffffffffffffffffffff1916149050919050565b600080610f018361185f565b9050600073ffffffffffffffffffffffffffffffffffffffff168173ffffffffffffffffffffffffffffffffffffffff1603610f7457826040517f7e273289000000000000000000000000000000000000000000000000000000008152600401610f6b9190611ff4565b60405180910390fd5b80915050919050565b60006004600083815260200190815260200160002060009054906101000a900473ffffffffffffffffffffffffffffffffffffffff169050919050565b600033905090565b610fcf838383600161189c565b505050565b600080610fe08461185f565b9050600073ffffffffffffffffffffffffffffffffffffffff168373ffffffffffffffffffffffffffffffffffffffff161461102257611021818486611a61565b5b600073ffffffffffffffffffffffffffffffffffffffff168173ffffffffffffffffffffffffffffffffffffffff16146110b35761106460008560008061189c565b6001600360008373ffffffffffffffffffffffffffffffffffffffff1673ffffffffffffffffffffffffffffffffffffffff168152602001908152602001600020600082825403925050819055505b600073ffffffffffffffffffffffffffffffffffffffff168573ffffffffffffffffffffffffffffffffffffffff1614611136576001600360008773ffffffffffffffffffffffffffffffffffffffff1673ffffffffffffffffffffffffffffffffffffffff168152602001908152602001600020600082825401925050819055505b846002600086815260200190815260200160002060006101000a81548173ffffffffffffffffffffffffffffffffffffffff021916908373ffffffffffffffffffffffffffffffffffffffff160217905550838573ffffffffffffffffffffffffffffffffffffffff168273ffffffffffffffffffffffffffffffffffffffff167fddf252ad1be2c89b69c2b068fc378daa952ba7f163c4a11628f55a4df523b3ef60405160405180910390a4809150509392505050565b600073ffffffffffffffffffffffffffffffffffffffff168273ffffffffffffffffffffffffffffffffffffffff16036112605760006040517f64a0ae920000000000000000000000000000000000000000000000000000000081526004016112579190611f5e565b60405180910390fd5b600061126e83836000610fd4565b9050600073ffffffffffffffffffffffffffffffffffffffff168173ffffffffffffffffffffffffffffffffffffffff16146112e25760006040517f73c6ac6e0000000000000000000000000000000000000000000000000000000081526004016112d99190611f5e565b60405180910390fd5b505050565b600073ffffffffffffffffffffffffffffffffffffffff168273ffffffffffffffffffffffffffffffffffffffff160361135857816040517f5b08ba1800000000000000000000000000000000000000000000000000000000815260040161134f9190611f5e565b60405180910390fd5b80600560008573ffffffffffffffffffffffffffffffffffffffff1673ffffffffffffffffffffffffffffffffffffffff16815260200190815260200160002060008473ffffffffffffffffffffffffffffffffffffffff1673ffffffffffffffffffffffffffffffffffffffff16815260200190815260200160002060006101000a81548160ff0219169083151502179055508173ffffffffffffffffffffffffffffffffffffffff168373ffffffffffffffffffffffffffffffffffffffff167f17307eab39ab6107e8899845ad3d59bd9653f200f220920489ca2b5937696c31836040516114499190611ded565b60405180910390a3505050565b600073ffffffffffffffffffffffffffffffffffffffff168273ffffffffffffffffffffffffffffffffffffffff16036114c85760006040517f64a0ae920000000000000000000000000000000000000000000000000000000081526004016114bf9190611f5e565b60405180910390fd5b60006114d683836000610fd4565b9050600073ffffffffffffffffffffffffffffffffffffffff168173ffffffffffffffffffffffffffffffffffffffff160361154957816040517f7e2732890000000000000000000000000000000000000000000000000000000081526004016115409190611ff4565b60405180910390fd5b8373ffffffffffffffffffffffffffffffffffffffff168173ffffffffffffffffffffffffffffffffffffffff16146115bd578382826040517f64283d7b0000000000000000000000000000000000000000000000000000000081526004016115b4939291906125b1565b60405180910390fd5b50505050565b60008373ffffffffffffffffffffffffffffffffffffffff163b1115611774578273ffffffffffffffffffffffffffffffffffffffff1663150b7a02611607610fba565b8685856040518563ffffffff1660e01b815260040161162994939291906126cc565b6020604051808303816000875af192505050801561166557506040513d601f19601f82011682018060405250810190611662919061272d565b60015b6116e9573d8060008114611695576040519150601f19603f3d011682016040523d82523d6000602084013e61169a565b606091505b5060008151036116e157836040517f64a0ae920000000000000000000000000000000000000000000000000000000081526004016116d89190611f5e565b60405180910390fd5b805181602001fd5b63150b7a0260e01b7bffffffffffffffffffffffffffffffffffffffffffffffffffffffff1916817bffffffffffffffffffffffffffffffffffffffffffffffffffffffff19161461177257836040517f64a0ae920000000000000000000000000000000000000000000000000000000081526004016117699190611f5e565b60405180910390fd5b505b50505050565b606060405180602001604052806000815250905090565b6060600060016117a084611b25565b01905060008167ffffffffffffffff8111156117bf576117be612278565b5b6040519080825280601f01601f1916602001820160405280156117f15781602001600182028036833780820191505090505b509050600082602001820190505b600115611854578080600190039150507f3031323334353637383961626364656600000000000000000000000000000000600a86061a8153600a85816118485761184761275a565b5b049450600085036117ff575b819350505050919050565b60006002600083815260200190815260200160002060009054906101000a900473ffffffffffffffffffffffffffffffffffffffff169050919050565b80806118d55750600073ffffffffffffffffffffffffffffffffffffffff168273ffffffffffffffffffffffffffffffffffffffff1614155b15611a095760006118e584610ef5565b9050600073ffffffffffffffffffffffffffffffffffffffff168373ffffffffffffffffffffffffffffffffffffffff161415801561195057508273ffffffffffffffffffffffffffffffffffffffff168173ffffffffffffffffffffffffffffffffffffffff1614155b801561196357506119618184610df7565b155b156119a557826040517fa9fbf51f00000000000000000000000000000000000000000000000000000000815260040161199c9190611f5e565b60405180910390fd5b8115611a0757838573ffffffffffffffffffffffffffffffffffffffff168273ffffffffffffffffffffffffffffffffffffffff167f8c5be1e5ebec7d5bd14f71427d1e84f3dd0314c0f7b2291e5b200ac8c7c3b92560405160405180910390a45b505b836004600085815260200190815260200160002060006101000a81548173ffffffffffffffffffffffffffffffffffffffff021916908373ffffffffffffffffffffffffffffffffffffffff16021790555050505050565b611a6c838383611c78565b611b2057600073ffffffffffffffffffffffffffffffffffffffff168373ffffffffffffffffffffffffffffffffffffffff1603611ae157806040517f7e273289000000000000000000000000000000000000000000000000000000008152600401611ad89190611ff4565b60405180910390fd5b81816040517f177e802f000000000000000000000000000000000000000000000000000000008152600401611b17929190612789565b60405180910390fd5b505050565b600080600090507a184f03e93ff9f4daa797ed6e38ed64bf6a1f0100000000000000008310611b83577a184f03e93ff9f4daa797ed6e38ed64bf6a1f0100000000000000008381611b7957611b7861275a565b5b0492506040810190505b6d04ee2d6d415b85acef81000000008310611bc0576d04ee2d6d415b85acef81000000008381611bb657611bb561275a565b5b0492506020810190505b662386f26fc100008310611bef57662386f26fc100008381611be557611be461275a565b5b0492506010810190505b6305f5e1008310611c18576305f5e1008381611c0e57611c0d61275a565b5b0492506008810190505b6127108310611c3d576127108381611c3357611c3261275a565b5b0492506004810190505b60648310611c605760648381611c5657611c5561275a565b5b0492506002810190505b600a8310611c6f576001810190505b80915050919050565b60008073ffffffffffffffffffffffffffffffffffffffff168373ffffffffffffffffffffffffffffffffffffffff1614158015611d3057508273ffffffffffffffffffffffffffffffffffffffff168473ffffffffffffffffffffffffffffffffffffffff161480611cf15750611cf08484610df7565b5b80611d2f57508273ffffffffffffffffffffffffffffffffffffffff16611d1783610f7d565b73ffffffffffffffffffffffffffffffffffffffff16145b5b90509392505050565b6000604051905090565b600080fd5b600080fd5b60007fffffffff0000000000000000000000000000000000000000000000000000000082169050919050565b611d8281611d4d565b8114611d8d57600080fd5b50565b600081359050611d9f81611d79565b92915050565b600060208284031215611dbb57611dba611d43565b5b6000611dc984828501611d90565b91505092915050565b60008115159050919050565b611de781611dd2565b82525050565b6000602082019050611e026000830184611dde565b92915050565b600081519050919050565b600082825260208201905092915050565b60005b83811015611e42578082015181840152602081019050611e27565b60008484015250505050565b6000601f19601f8301169050919050565b6000611e6a82611e08565b611e748185611e13565b9350611e84818560208601611e24565b611e8d81611e4e565b840191505092915050565b60006020820190508181036000830152611eb28184611e5f565b905092915050565b6000819050919050565b611ecd81611eba565b8114611ed857600080fd5b50565b600081359050611eea81611ec4565b92915050565b600060208284031215611f0657611f05611d43565b5b6000611f1484828501611edb565b91505092915050565b600073ffffffffffffffffffffffffffffffffffffffff82169050919050565b6000611f4882611f1d565b9050919050565b611f5881611f3d565b82525050565b6000602082019050611f736000830184611f4f565b92915050565b611f8281611f3d565b8114611f8d57600080fd5b50565b600081359050611f9f81611f79565b92915050565b60008060408385031215611fbc57611fbb611d43565b5b6000611fca85828601611f90565b9250506020611fdb85828601611edb565b9150509250929050565b611fee81611eba565b82525050565b60006020820190506120096000830184611fe5565b92915050565b60008060006060848603121561202857612027611d43565b5b600061203686828701611edb565b935050602061204786828701611f90565b925050604061205886828701611edb565b9150509250925092565b60008060006060848603121561207b5761207a611d43565b5b600061208986828701611f90565b935050602061209a86828701611f90565b92505060406120ab86828701611edb565b9150509250925092565b600081519050919050565b600082825260208201905092915050565b6000819050602082019050919050565b6120ea81611eba565b82525050565b60006120fc83836120e1565b60208301905092915050565b6000602082019050919050565b6000612120826120b5565b61212a81856120c0565b9350612135836120d1565b8060005b8381101561216657815161214d88826120f0565b975061215883612108565b925050600181019050612139565b5085935050505092915050565b6000602082019050818103600083015261218d8184612115565b905092915050565b6000602082840312156121ab576121aa611d43565b5b60006121b984828501611f90565b91505092915050565b6121cb81611dd2565b81146121d657600080fd5b50565b6000813590506121e8816121c2565b92915050565b6000806040838503121561220557612204611d43565b5b600061221385828601611f90565b9250506020612224858286016121d9565b9150509250929050565b6000806040838503121561224557612244611d43565b5b600061225385828601611edb565b925050602061226485828601611f90565b9150509250929050565b600080fd5b600080fd5b7f4e487b7100000000000000000000000000000000000000000000000000000000600052604160045260246000fd5b6122b082611e4e565b810181811067ffffffffffffffff821117156122cf576122ce612278565b5b80604052505050565b60006122e2611d39565b90506122ee82826122a7565b919050565b600067ffffffffffffffff82111561230e5761230d612278565b5b61231782611e4e565b9050602081019050919050565b82818337600083830152505050565b6000612346612341846122f3565b6122d8565b90508281526020810184848401111561236257612361612273565b5b61236d848285612324565b509392505050565b600082601f83011261238a5761238961226e565b5b813561239a848260208601612333565b91505092915050565b600080600080608085870312156123bd576123bc611d43565b5b60006123cb87828801611f90565b94505060206123dc87828801611f90565b93505060406123ed87828801611edb565b925050606085013567ffffffffffffffff81111561240e5761240d611d48565b5b61241a87828801612375565b91505092959194509250565b6000806040838503121561243d5761243c611d43565b5b600061244b85828601611edb565b925050602061245c85828601611edb565b9150509250929050565b6000806040838503121561247d5761247c611d43565b5b600061248b85828601611f90565b925050602061249c85828601611f90565b9150509250929050565b7f4e487b7100000000000000000000000000000000000000000000000000000000600052602260045260246000fd5b600060028204905060018216806124ed57607f821691505b602082108103612500576124ff6124a6565b5b50919050565b7f4e487b7100000000000000000000000000000000000000000000000000000000600052601160045260246000fd5b600061254082611eba565b915061254b83611eba565b925082820190508082111561256357612562612506565b5b92915050565b600061257482611eba565b91507fffffffffffffffffffffffffffffffffffffffffffffffffffffffffffffffff82036125a6576125a5612506565b5b600182019050919050565b60006060820190506125c66000830186611f4f565b6125d36020830185611fe5565b6125e06040830184611f4f565b949350505050565b7f4e487b7100000000000000000000000000000000000000000000000000000000600052603260045260246000fd5b600081905092915050565b600061262d82611e08565b6126378185612617565b9350612647818560208601611e24565b80840191505092915050565b600061265f8285612622565b915061266b8284612622565b91508190509392505050565b600081519050919050565b600082825260208201905092915050565b600061269e82612677565b6126a88185612682565b93506126b8818560208601611e24565b6126c181611e4e565b840191505092915050565b60006080820190506126e16000830187611f4f565b6126ee6020830186611f4f565b6126fb6040830185611fe5565b818103606083015261270d8184612693565b905095945050505050565b60008151905061272781611d79565b92915050565b60006020828403121561274357612742611d43565b5b600061275184828501612718565b91505092915050565b7f4e487b7100000000000000000000000000000000000000000000000000000000600052601260045260246000fd5b600060408201905061279e6000830185611f4f565b6127ab6020830184611fe5565b939250505056fea2646970667358221220176d85874bd54301bff9368c19519a029f5de6f88a82f14fabeaaf98500950d564736f6c6343000814003360806040523480156200001157600080fd5b506040516200170b3803806200170b8339818101604052810190620000379190620001fa565b818181600390816200004a9190620004ca565b5080600490816200005c9190620004ca565b5050505050620005b1565b6000604051905090565b600080fd5b600080fd5b600080fd5b600080fd5b6000601f19601f8301169050919050565b7f4e487b7100000000000000000000000000000000000000000000000000000000600052604160045260246000fd5b620000d08262000085565b810181811067ffffffffffffffff82111715620000f257620000f162000096565b5b80604052505050565b60006200010762000067565b9050620001158282620000c5565b919050565b600067ffffffffffffffff82111562000138576200013762000096565b5b620001438262000085565b9050602081019050919050565b60005b838110156200017057808201518184015260208101905062000153565b60008484015250505050565b6000620001936200018d846200011a565b620000fb565b905082815260208101848484011115620001b257620001b162000080565b5b620001bf84828562000150565b509392505050565b600082601f830112620001df57620001de6200007b565b5b8151620001f18482602086016200017c565b91505092915050565b6000806040838503121562000214576200021362000071565b5b600083015167ffffffffffffffff81111562000235576200023462000076565b5b6200024385828601620001c7565b925050602083015167ffffffffffffffff81111562000267576200026662000076565b5b6200027585828601620001c7565b9150509250929050565b600081519050919050565b7f4e487b7100000000000000000000000000000000000000000000000000000000600052602260045260246000fd5b60006002820490506001821680620002d257607f821691505b602082108103620002e857620002e76200028a565b5b50919050565b60008190508160005260206000209050919050565b60006020601f8301049050919050565b600082821b905092915050565b600060088302620003527fffffffffffffffffffffffffffffffffffffffffffffffffffffffffffffffff8262000313565b6200035e868362000313565b95508019841693508086168417925050509392505050565b6000819050919050565b6000819050919050565b6000620003ab620003a56200039f8462000376565b62000380565b62000376565b9050919050565b6000819050919050565b620003c7836200038a565b620003df620003d682620003b2565b84845462000320565b825550505050565b600090565b620003f6620003e7565b62000403818484620003bc565b505050565b5b818110156200042b576200041f600082620003ec565b60018101905062000409565b5050565b601f8211156200047a576200044481620002ee565b6200044f8462000303565b810160208510156200045f578190505b620004776200046e8562000303565b83018262000408565b50505b505050565b600082821c905092915050565b60006200049f600019846008026200047f565b1980831691505092915050565b6000620004ba83836200048c565b9150826002028217905092915050565b620004d5826200027f565b67ffffffffffffffff811115620004f157620004f062000096565b5b620004fd8254620002b9565b6200050a8282856200042f565b600060209050601f8311600181146200054257600084156200052d578287015190505b620005398582620004ac565b865550620005a9565b601f1984166200055286620002ee565b60005b828110156200057c5784890151825560018201915060208501945060208101905062000555565b868310156200059c578489015162000598601f8916826200048c565b8355505b6001600288020188555050505b505050505050565b61114a80620005c16000396000f3fe608060405234801561001057600080fd5b50600436106100a95760003560e01c8063313ce56711610071578063313ce567146101665780636a6278421461018457806370a08231146101a057806395d89b41146101d0578063a9059cbb146101ee578063dd62ed3e1461021e576100a9565b806306fdde03146100ae578063095ea7b3146100cc57806318160ddd146100fc57806323b872dd1461011a5780632ebacc9a1461014a575b600080fd5b6100b661024e565b6040516100c39190610cc6565b60405180910390f35b6100e660048036038101906100e19190610d81565b6102e0565b6040516100f39190610ddc565b60405180910390f35b610104610303565b6040516101119190610e06565b60405180910390f35b610134600480360381019061012f9190610e21565b61030d565b6040516101419190610ddc565b60405180910390f35b610164600480360381019061015f9190610e21565b61033c565b005b61016e610397565b60405161017b9190610e90565b60405180910390f35b61019e60048036038101906101999190610eab565b6103a0565b005b6101ba60048036038101906101b59190610eab565b610492565b6040516101c79190610e06565b60405180910390f35b6101d86104da565b6040516101e59190610cc6565b60405180910390f35b61020860048036038101906102039190610d81565b61056c565b6040516102159190610ddc565b60405180910390f35b61023860048036038101906102339190610ed8565b61058f565b6040516102459190610e06565b60405180910390f35b60606003805461025d90610f47565b80601f016020809104026020016040519081016040528092919081815260200182805461028990610f47565b80156102d65780601f106102ab576101008083540402835291602001916102d6565b820191906000526020600020905b8154815290600101906020018083116102b957829003601f168201915b5050505050905090565b6000806102eb610616565b90506102f881858561061e565b600191505092915050565b6000600254905090565b600080610318610616565b9050610325858285610630565b6103308585856106c4565b60019150509392505050565b8061034684610492565b1015610387576040517f08c379a000000000000000000000000000000000000000000000000000000000815260040161037e90610fc4565b60405180910390fd5b6103928383836106c4565b505050565b60006012905090565b60001515600560008373ffffffffffffffffffffffffffffffffffffffff1673ffffffffffffffffffffffffffffffffffffffff16815260200190815260200160002060009054906101000a900460ff16151514610433576040517f08c379a000000000000000000000000000000000000000000000000000000000815260040161042a90611030565b60405180910390fd5b61043f816127106107b8565b60011515600560008373ffffffffffffffffffffffffffffffffffffffff1673ffffffffffffffffffffffffffffffffffffffff16815260200190815260200160002060009054906101000a9050505050565b60008060008373ffffffffffffffffffffffffffffffffffffffff1673ffffffffffffffffffffffffffffffffffffffff168152602001908152602001600020549050919050565b6060600480546104e990610f47565b80601f016020809104026020016040519081016040528092919081815260200182805461051590610f47565b80156105625780601f1061053757610100808354040283529160200191610562565b820191906000526020600020905b81548152906001019060200180831161054557829003601f168201915b5050505050905090565b600080610577610616565b90506105848185856106c4565b600191505092915050565b6000600160008473ffffffffffffffffffffffffffffffffffffffff1673ffffffffffffffffffffffffffffffffffffffff16815260200190815260200160002060008373ffffffffffffffffffffffffffffffffffffffff1673ffffffffffffffffffffffffffffffffffffffff16815260200190815260200160002054905092915050565b600033905090565b61062b838383600161083a565b505050565b600061063c848461058f565b90507fffffffffffffffffffffffffffffffffffffffffffffffffffffffffffffffff81146106be57818110156106ae578281836040517ffb8f41b20000000000000000000000000000000000000000000000000000000081526004016106a59392919061105f565b60405180910390fd5b6106bd8484848403600061083a565b5b50505050565b600073ffffffffffffffffffffffffffffffffffffffff168373ffffffffffffffffffffffffffffffffffffffff16036107365760006040517f96c6fd1e00000000000000000000000000000000000000000000000000000000815260040161072d9190611096565b60405180910390fd5b600073ffffffffffffffffffffffffffffffffffffffff168273ffffffffffffffffffffffffffffffffffffffff16036107a85760006040517fec442f0500000000000000000000000000000000000000000000000000000000815260040161079f9190611096565b60405180910390fd5b6107b3838383610a11565b505050565b600073ffffffffffffffffffffffffffffffffffffffff168273ffffffffffffffffffffffffffffffffffffffff160361082a5760006040517fec442f050000000000000000000000000000000000000000000000000000000081526004016108219190611096565b60405180910390fd5b61083660008383610a11565b5050565b600073ffffffffffffffffffffffffffffffffffffffff168473ffffffffffffffffffffffffffffffffffffffff16036108ac5760006040517fe602df050000000000000000000000000000000000000000000000000000000081526004016108a39190611096565b60405180910390fd5b600073ffffffffffffffffffffffffffffffffffffffff168373ffffffffffffffffffffffffffffffffffffffff160361091e5760006040517f94280d620000000000000000000000000000000000000000000000000000000081526004016109159190611096565b60405180910390fd5b81600160008673ffffffffffffffffffffffffffffffffffffffff1673ffffffffffffffffffffffffffffffffffffffff16815260200190815260200160002060008573ffffffffffffffffffffffffffffffffffffffff1673ffffffffffffffffffffffffffffffffffffffff168152602001908152602001600020819055508015610a0b578273ffffffffffffffffffffffffffffffffffffffff168473ffffffffffffffffffffffffffffffffffffffff167f8c5be1e5ebec7d5bd14f71427d1e84f3dd0314c0f7b2291e5b200ac8c7c3b92584604051610a029190610e06565b60405180910390a35b50505050565b600073ffffffffffffffffffffffffffffffffffffffff168373ffffffffffffffffffffffffffffffffffffffff1603610a63578060026000828254610a5791906110e0565b92505081905550610b36565b60008060008573ffffffffffffffffffffffffffffffffffffffff1673ffffffffffffffffffffffffffffffffffffffff16815260200190815260200160002054905081811015610aef578381836040517fe450d38c000000000000000000000000000000000000000000000000000000008152600401610ae69392919061105f565b60405180910390fd5b8181036000808673ffffffffffffffffffffffffffffffffffffffff1673ffffffffffffffffffffffffffffffffffffffff16815260200190815260200160002081905550505b600073ffffffffffffffffffffffffffffffffffffffff168273ffffffffffffffffffffffffffffffffffffffff1603610b7f5780600260008282540392505081905550610bcc565b806000808473ffffffffffffffffffffffffffffffffffffffff1673ffffffffffffffffffffffffffffffffffffffff168152602001908152602001600020600082825401925050819055505b8173ffffffffffffffffffffffffffffffffffffffff168373ffffffffffffffffffffffffffffffffffffffff167fddf252ad1be2c89b69c2b068fc378daa952ba7f163c4a11628f55a4df523b3ef83604051610c299190610e06565b60405180910390a3505050565b600081519050919050565b600082825260208201905092915050565b60005b83811015610c70578082015181840152602081019050610c55565b60008484015250505050565b6000601f19601f8301169050919050565b6000610c9882610c36565b610ca28185610c41565b9350610cb2818560208601610c52565b610cbb81610c7c565b840191505092915050565b60006020820190508181036000830152610ce08184610c8d565b905092915050565b600080fd5b600073ffffffffffffffffffffffffffffffffffffffff82169050919050565b6000610d1882610ced565b9050919050565b610d2881610d0d565b8114610d3357600080fd5b50565b600081359050610d4581610d1f565b92915050565b6000819050919050565b610d5e81610d4b565b8114610d6957600080fd5b50565b600081359050610d7b81610d55565b92915050565b60008060408385031215610d9857610d97610ce8565b5b6000610da685828601610d36565b9250506020610db785828601610d6c565b9150509250929050565b60008115159050919050565b610dd681610dc1565b82525050565b6000602082019050610df16000830184610dcd565b92915050565b610e0081610d4b565b82525050565b6000602082019050610e1b6000830184610df7565b92915050565b600080600060608486031215610e3a57610e39610ce8565b5b6000610e4886828701610d36565b9350506020610e5986828701610d36565b9250506040610e6a86828701610d6c565b9150509250925092565b600060ff82169050919050565b610e8a81610e74565b82525050565b6000602082019050610ea56000830184610e81565b92915050565b600060208284031215610ec157610ec0610ce8565b5b6000610ecf84828501610d36565b91505092915050565b60008060408385031215610eef57610eee610ce8565b5b6000610efd85828601610d36565b9250506020610f0e85828601610d36565b9150509250929050565b7f4e487b7100000000000000000000000000000000000000000000000000000000600052602260045260246000fd5b60006002820490506001821680610f5f57607f821691505b602082108103610f7257610f71610f18565b5b50919050565b7f596f7520646f6e2774206861766520656e6f7567682062616c616e6365000000600082015250565b6000610fae601d83610c41565b9150610fb982610f78565b602082019050919050565b60006020820190508181036000830152610fdd81610fa1565b9050919050565b7f596f75206861766520616c726561647920636c61696d65640000000000000000600082015250565b600061101a601883610c41565b915061102582610fe4565b602082019050919050565b600060208201905081810360008301526110498161100d565b9050919050565b61105981610d0d565b82525050565b60006060820190506110746000830186611050565b6110816020830185610df7565b61108e6040830184610df7565b949350505050565b60006020820190506110ab6000830184611050565b92915050565b7f4e487b7100000000000000000000000000000000000000000000000000000000600052601160045260246000fd5b60006110eb82610d4b565b91506110f683610d4b565b925082820190508082111561110e5761110d6110b1565b5b9291505056fea2646970667358221220ac89145c961911ada85ec1bc5871057008cd5b0d8b42923a9467330be43a5b0e64736f6c63430008140033",
  "linkReferences": {},
  "deployedLinkReferences": {}
}