{
  "_format": "hh-sol-artifact-1",
  "contractName": "MyNFT",
  "sourceName": "contracts/MyNFT.sol",
  "abi": [
    {
      "inputs": [
        {
          "internalType": "string",
          "name": "name",
          "type": "string"
        },
        {
          "internalType": "string",
          "name": "symbol",
          "type": "string"
        }
      ],
      "stateMutability": "nonpayable",
      "type": "constructor"
    },
    {
      "inputs": [
        {
          "internalType": "address",
          "name": "sender",
          "type": "address"
        },
        {
          "internalType": "uint256",
          "name": "tokenId",
          "type": "uint256"
        },
        {
          "internalType": "address",
          "name": "owner",
          "type": "address"
        }
      ],
      "name": "ERC721IncorrectOwner",
      "type": "error"
    },
    {
      "inputs": [
        {
          "internalType": "address",
          "name": "operator",
          "type": "address"
        },
        {
          "internalType": "uint256",
          "name": "tokenId",
          "type": "uint256"
        }
      ],
      "name": "ERC721InsufficientApproval",
      "type": "error"
    },
    {
      "inputs": [
        {
          "internalType": "address",
          "name": "approver",
          "type": "address"
        }
      ],
      "name": "ERC721InvalidApprover",
      "type": "error"
    },
    {
      "inputs": [
        {
          "internalType": "address",
          "name": "operator",
          "type": "address"
        }
      ],
      "name": "ERC721InvalidOperator",
      "type": "error"
    },
    {
      "inputs": [
        {
          "internalType": "address",
          "name": "owner",
          "type": "address"
        }
      ],
      "name": "ERC721InvalidOwner",
      "type": "error"
    },
    {
      "inputs": [
        {
          "internalType": "address",
          "name": "receiver",
          "type": "address"
        }
      ],
      "name": "ERC721InvalidReceiver",
      "type": "error"
    },
    {
      "inputs": [
        {
          "internalType": "address",
          "name": "sender",
          "type": "address"
        }
      ],
      "name": "ERC721InvalidSender",
      "type": "error"
    },
    {
      "inputs": [
        {
          "internalType": "uint256",
          "name": "tokenId",
          "type": "uint256"
        }
      ],
      "name": "ERC721NonexistentToken",
      "type": "error"
    },
    {
      "anonymous": false,
      "inputs": [
        {
          "indexed": true,
          "internalType": "address",
          "name": "owner",
          "type": "address"
        },
        {
          "indexed": true,
          "internalType": "address",
          "name": "approved",
          "type": "address"
        },
        {
          "indexed": true,
          "internalType": "uint256",
          "name": "tokenId",
          "type": "uint256"
        }
      ],
      "name": "Approval",
      "type": "event"
    },
    {
      "anonymous": false,
      "inputs": [
        {
          "indexed": true,
          "internalType": "address",
          "name": "owner",
          "type": "address"
        },
        {
          "indexed": true,
          "internalType": "address",
          "name": "operator",
          "type": "address"
        },
        {
          "indexed": false,
          "internalType": "bool",
          "name": "approved",
          "type": "bool"
        }
      ],
      "name": "ApprovalForAll",
      "type": "event"
    },
    {
      "anonymous": false,
      "inputs": [
        {
          "indexed": true,
          "internalType": "address",
          "name": "from",
          "type": "address"
        },
        {
          "indexed": true,
          "internalType": "address",
          "name": "to",
          "type": "address"
        },
        {
          "indexed": true,
          "internalType": "uint256",
          "name": "tokenId",
          "type": "uint256"
        }
      ],
      "name": "Transfer",
      "type": "event"
    },
    {
      "anonymous": false,
      "inputs": [
        {
          "indexed": true,
          "internalType": "uint256",
          "name": "tokenId",
          "type": "uint256"
        },
        {
          "indexed": true,
          "internalType": "address",
          "name": "user",
          "type": "address"
        },
        {
          "indexed": false,
          "internalType": "uint256",
          "name": "expires",
          "type": "uint256"
        }
      ],
      "name": "UpdateUser",
      "type": "event"
    },
    {
      "inputs": [
        {
          "internalType": "address",
          "name": "user",
          "type": "address"
        }
      ],
      "name": "AwardItem",
      "outputs": [],
      "stateMutability": "nonpayable",
      "type": "function"
    },
    {
      "inputs": [
        {
          "internalType": "address",
          "name": "to",
          "type": "address"
        },
        {
          "internalType": "uint256",
          "name": "tokenId",
          "type": "uint256"
        }
      ],
      "name": "approve",
      "outputs": [],
      "stateMutability": "nonpayable",
      "type": "function"
    },
    {
      "inputs": [
        {
          "internalType": "address",
          "name": "owner",
          "type": "address"
        }
      ],
      "name": "balanceOf",
      "outputs": [
        {
          "internalType": "uint256",
          "name": "",
          "type": "uint256"
        }
      ],
      "stateMutability": "view",
      "type": "function"
    },
    {
      "inputs": [
        {
          "internalType": "uint256",
          "name": "tokenId",
          "type": "uint256"
        }
      ],
      "name": "getApproved",
      "outputs": [
        {
          "internalType": "address",
          "name": "",
          "type": "address"
        }
      ],
      "stateMutability": "view",
      "type": "function"
    },
    {
      "inputs": [
        {
          "internalType": "uint256",
          "name": "tokenId",
          "type": "uint256"
        }
      ],
      "name": "getCarPrice",
      "outputs": [
        {
          "internalType": "uint256",
          "name": "",
          "type": "uint256"
        }
      ],
      "stateMutability": "view",
      "type": "function"
    },
    {
      "inputs": [
        {
          "internalType": "uint256",
          "name": "tokenId",
          "type": "uint256"
        }
      ],
      "name": "getCarRealOwner",
      "outputs": [
        {
          "internalType": "address",
          "name": "",
          "type": "address"
        }
      ],
      "stateMutability": "view",
      "type": "function"
    },
    {
      "inputs": [],
      "name": "helloworld",
      "outputs": [
        {
          "internalType": "string",
          "name": "",
          "type": "string"
        }
      ],
      "stateMutability": "pure",
      "type": "function"
    },
    {
      "inputs": [
        {
          "internalType": "address",
          "name": "owner",
          "type": "address"
        },
        {
          "internalType": "address",
          "name": "operator",
          "type": "address"
        }
      ],
      "name": "isApprovedForAll",
      "outputs": [
        {
          "internalType": "bool",
          "name": "",
          "type": "bool"
        }
      ],
      "stateMutability": "view",
      "type": "function"
    },
    {
      "inputs": [],
      "name": "name",
      "outputs": [
        {
          "internalType": "string",
          "name": "",
          "type": "string"
        }
      ],
      "stateMutability": "view",
      "type": "function"
    },
    {
      "inputs": [
        {
          "internalType": "uint256",
          "name": "tokenId",
          "type": "uint256"
        }
      ],
      "name": "ownerOf",
      "outputs": [
        {
          "internalType": "address",
          "name": "",
          "type": "address"
        }
      ],
      "stateMutability": "view",
      "type": "function"
    },
    {
      "inputs": [
        {
          "internalType": "address",
          "name": "from",
          "type": "address"
        },
        {
          "internalType": "address",
          "name": "to",
          "type": "address"
        },
        {
          "internalType": "uint256",
          "name": "tokenId",
          "type": "uint256"
        }
      ],
      "name": "safeTransferFrom",
      "outputs": [],
      "stateMutability": "nonpayable",
      "type": "function"
    },
    {
      "inputs": [
        {
          "internalType": "address",
          "name": "from",
          "type": "address"
        },
        {
          "internalType": "address",
          "name": "to",
          "type": "address"
        },
        {
          "internalType": "uint256",
          "name": "tokenId",
          "type": "uint256"
        },
        {
          "internalType": "bytes",
          "name": "data",
          "type": "bytes"
        }
      ],
      "name": "safeTransferFrom",
      "outputs": [],
      "stateMutability": "nonpayable",
      "type": "function"
    },
    {
      "inputs": [
        {
          "internalType": "address",
          "name": "operator",
          "type": "address"
        },
        {
          "internalType": "bool",
          "name": "approved",
          "type": "bool"
        }
      ],
      "name": "setApprovalForAll",
      "outputs": [],
      "stateMutability": "nonpayable",
      "type": "function"
    },
    {
      "inputs": [
        {
          "internalType": "uint256",
          "name": "tokenId",
          "type": "uint256"
        },
        {
          "internalType": "uint256",
          "name": "price",
          "type": "uint256"
        }
      ],
      "name": "setCarPrice",
      "outputs": [],
      "stateMutability": "nonpayable",
      "type": "function"
    },
    {
      "inputs": [
        {
          "internalType": "uint256",
          "name": "tokenId",
          "type": "uint256"
        },
        {
          "internalType": "address",
          "name": "user",
          "type": "address"
        },
        {
          "internalType": "uint256",
          "name": "expires",
          "type": "uint256"
        }
      ],
      "name": "setUser",
      "outputs": [],
      "stateMutability": "nonpayable",
      "type": "function"
    },
    {
      "inputs": [
        {
          "internalType": "bytes4",
          "name": "interfaceId",
          "type": "bytes4"
        }
      ],
      "name": "supportsInterface",
      "outputs": [
        {
          "internalType": "bool",
          "name": "",
          "type": "bool"
        }
      ],
      "stateMutability": "view",
      "type": "function"
    },
    {
      "inputs": [],
      "name": "symbol",
      "outputs": [
        {
          "internalType": "string",
          "name": "",
          "type": "string"
        }
      ],
      "stateMutability": "view",
      "type": "function"
    },
    {
      "inputs": [
        {
          "internalType": "uint256",
          "name": "tokenId",
          "type": "uint256"
        }
      ],
      "name": "tokenURI",
      "outputs": [
        {
          "internalType": "string",
          "name": "",
          "type": "string"
        }
      ],
      "stateMutability": "view",
      "type": "function"
    },
    {
      "inputs": [],
      "name": "totalItems",
      "outputs": [
        {
          "internalType": "uint256[]",
          "name": "",
          "type": "uint256[]"
        }
      ],
      "stateMutability": "view",
      "type": "function"
    },
    {
      "inputs": [],
      "name": "totalSupply",
      "outputs": [
        {
          "internalType": "uint256",
          "name": "",
          "type": "uint256"
        }
      ],
      "stateMutability": "view",
      "type": "function"
    },
    {
      "inputs": [
        {
          "internalType": "uint256",
          "name": "tokenID",
          "type": "uint256"
        },
        {
          "internalType": "address",
          "name": "user",
          "type": "address"
        }
      ],
      "name": "transfer",
      "outputs": [],
      "stateMutability": "nonpayable",
      "type": "function"
    },
    {
      "inputs": [
        {
          "internalType": "address",
          "name": "from",
          "type": "address"
        },
        {
          "internalType": "address",
          "name": "to",
          "type": "address"
        },
        {
          "internalType": "uint256",
          "name": "tokenId",
          "type": "uint256"
        }
      ],
      "name": "transferFrom",
      "outputs": [],
      "stateMutability": "nonpayable",
      "type": "function"
    },
    {
      "inputs": [],
      "name": "userCarNum",
      "outputs": [
        {
          "internalType": "uint256",
          "name": "",
          "type": "uint256"
        }
      ],
      "stateMutability": "view",
      "type": "function"
    },
    {
      "inputs": [
        {
          "internalType": "uint256",
          "name": "tokenId",
          "type": "uint256"
        }
      ],
      "name": "userExpires",
      "outputs": [
        {
          "internalType": "uint256",
          "name": "",
          "type": "uint256"
        }
      ],
      "stateMutability": "view",
      "type": "function"
    },
    {
      "inputs": [
        {
          "internalType": "uint256",
          "name": "tokenId",
          "type": "uint256"
        }
      ],
      "name": "userof",
      "outputs": [
        {
          "internalType": "address",
          "name": "",
          "type": "address"
        }
      ],
      "stateMutability": "view",
      "type": "function"
    }
  ],
  "bytecode": "0x60806040523480156200001157600080fd5b5060405162002db138038062002db1833981810160405281019062000037919062000202565b818181600090816200004a9190620004d2565b5080600190816200005c9190620004d2565b50505060006006819055505050620005b9565b6000604051905090565b600080fd5b600080fd5b600080fd5b600080fd5b6000601f19601f8301169050919050565b7f4e487b7100000000000000000000000000000000000000000000000000000000600052604160045260246000fd5b620000d8826200008d565b810181811067ffffffffffffffff82111715620000fa57620000f96200009e565b5b80604052505050565b60006200010f6200006f565b90506200011d8282620000cd565b919050565b600067ffffffffffffffff82111562000140576200013f6200009e565b5b6200014b826200008d565b9050602081019050919050565b60005b83811015620001785780820151818401526020810190506200015b565b60008484015250505050565b60006200019b620001958462000122565b62000103565b905082815260208101848484011115620001ba57620001b962000088565b5b620001c784828562000158565b509392505050565b600082601f830112620001e757620001e662000083565b5b8151620001f984826020860162000184565b91505092915050565b600080604083850312156200021c576200021b62000079565b5b600083015167ffffffffffffffff8111156200023d576200023c6200007e565b5b6200024b85828601620001cf565b925050602083015167ffffffffffffffff8111156200026f576200026e6200007e565b5b6200027d85828601620001cf565b9150509250929050565b600081519050919050565b7f4e487b7100000000000000000000000000000000000000000000000000000000600052602260045260246000fd5b60006002820490506001821680620002da57607f821691505b602082108103620002f057620002ef62000292565b5b50919050565b60008190508160005260206000209050919050565b60006020601f8301049050919050565b600082821b905092915050565b6000600883026200035a7fffffffffffffffffffffffffffffffffffffffffffffffffffffffffffffffff826200031b565b6200036686836200031b565b95508019841693508086168417925050509392505050565b6000819050919050565b6000819050919050565b6000620003b3620003ad620003a7846200037e565b62000388565b6200037e565b9050919050565b6000819050919050565b620003cf8362000392565b620003e7620003de82620003ba565b84845462000328565b825550505050565b600090565b620003fe620003ef565b6200040b818484620003c4565b505050565b5b81811015620004335762000427600082620003f4565b60018101905062000411565b5050565b601f82111562000482576200044c81620002f6565b62000457846200030b565b8101602085101562000467578190505b6200047f62000476856200030b565b83018262000410565b50505b505050565b600082821c905092915050565b6000620004a76000198460080262000487565b1980831691505092915050565b6000620004c2838362000494565b9150826002028217905092915050565b620004dd8262000287565b67ffffffffffffffff811115620004f957620004f86200009e565b5b620005058254620002c1565b6200051282828562000437565b600060209050601f8311600181146200054a576000841562000535578287015190505b620005418582620004b4565b865550620005b1565b601f1984166200055a86620002f6565b60005b8281101562000584578489015182556001820191506020850194506020810190506200055d565b86831015620005a45784890151620005a0601f89168262000494565b8355505b6001600288020188555050505b505050505050565b6127e880620005c96000396000f3fe608060405234801561001057600080fd5b50600436106101735760003560e01c806342842e0e116100de578063971d6d6e11610097578063b88d4fde11610071578063b88d4fde14610470578063b96a60841461048c578063c87b56dd146104a8578063e985e9c5146104d857610173565b8063971d6d6e14610408578063a22cb46514610438578063b7760c8f1461045457610173565b806342842e0e1461030e5780636352211e1461032a57806370a082311461035a57806371e69a321461038a5780638fc88c48146103ba57806395d89b41146103ea57610173565b80631a7553ab116101305780631a7553ab146102605780631b8a910d1461027e57806323b872dd1461029a5780632799276d146102b65780632f2f4859146102d4578063322f6171146102f257610173565b806301ffc9a71461017857806306fdde03146101a8578063081812fc146101c6578063095ea7b3146101f657806318160ddd146102125780631a24109914610230575b600080fd5b610192600480360381019061018d9190611da5565b610508565b60405161019f9190611ded565b60405180910390f35b6101b06105ea565b6040516101bd9190611e98565b60405180910390f35b6101e060048036038101906101db9190611ef0565b61067c565b6040516101ed9190611f5e565b60405180910390f35b610210600480360381019061020b9190611fa5565b610698565b005b61021a6106ae565b6040516102279190611ff4565b60405180910390f35b61024a60048036038101906102459190611ef0565b6106b8565b6040516102579190611f5e565b60405180910390f35b61026861071f565b6040516102759190611ff4565b60405180910390f35b6102986004803603810190610293919061200f565b61079c565b005b6102b460048036038101906102af9190612062565b610854565b005b6102be610956565b6040516102cb9190612173565b60405180910390f35b6102dc610a02565b6040516102e99190611e98565b60405180910390f35b61030c60048036038101906103079190612195565b610a3f565b005b61032860048036038101906103239190612062565b610b21565b005b610344600480360381019061033f9190611ef0565b610b41565b6040516103519190611f5e565b60405180910390f35b610374600480360381019061036f9190612195565b610b53565b6040516103819190611ff4565b60405180910390f35b6103a4600480360381019061039f9190611ef0565b610c0d565b6040516103b19190611ff4565b60405180910390f35b6103d460048036038101906103cf9190611ef0565b610c2d565b6040516103e19190611ff4565b60405180910390f35b6103f2610c4d565b6040516103ff9190611e98565b60405180910390f35b610422600480360381019061041d9190611ef0565b610cdf565b60405161042f9190611f5e565b60405180910390f35b610452600480360381019061044d91906121ee565b610d1f565b005b61046e6004803603810190610469919061222e565b610d35565b005b61048a600480360381019061048591906123a3565b610d4c565b005b6104a660048036038101906104a19190612426565b610d69565b005b6104c260048036038101906104bd9190611ef0565b610d8e565b6040516104cf9190611e98565b60405180910390f35b6104f260048036038101906104ed9190612466565b610df7565b6040516104ff9190611ded565b60405180910390f35b60007f80ac58cd000000000000000000000000000000000000000000000000000000007bffffffffffffffffffffffffffffffffffffffffffffffffffffffff1916827bffffffffffffffffffffffffffffffffffffffffffffffffffffffff191614806105d357507f5b5e139f000000000000000000000000000000000000000000000000000000007bffffffffffffffffffffffffffffffffffffffffffffffffffffffff1916827bffffffffffffffffffffffffffffffffffffffffffffffffffffffff1916145b806105e357506105e282610e8b565b5b9050919050565b6060600080546105f9906124d5565b80601f0160208091040260200160405190810160405280929190818152602001828054610625906124d5565b80156106725780601f1061064757610100808354040283529160200191610672565b820191906000526020600020905b81548152906001019060200180831161065557829003601f168201915b5050505050905090565b600061068782610ef5565b5061069182610f7d565b9050919050565b6106aa82826106a5610fba565b610fc2565b5050565b6000600654905090565b6000426007600084815260200190815260200160002060020154116106e0576000905061071a565b6007600083815260200190815260200160002060010160009054906101000a900473ffffffffffffffffffffffffffffffffffffffff1690505b919050565b600080600090506000600190505b6006548111610794573373ffffffffffffffffffffffffffffffffffffffff16610756826106b8565b73ffffffffffffffffffffffffffffffffffffffff16036107815760018261077e9190612535565b91505b808061078c90612569565b91505061072d565b508091505090565b6000600760008581526020019081526020016000209050828160010160006101000a81548173ffffffffffffffffffffffffffffffffffffffff021916908373ffffffffffffffffffffffffffffffffffffffff1602179055508181600201819055508273ffffffffffffffffffffffffffffffffffffffff16847fd0d4d2465fbaaa658444f22a71af0576dc66d910f58504ac3091a8f2e7e0462d846040516108469190611ff4565b60405180910390a350505050565b600073ffffffffffffffffffffffffffffffffffffffff168273ffffffffffffffffffffffffffffffffffffffff16036108c65760006040517f64a0ae920000000000000000000000000000000000000000000000000000000081526004016108bd9190611f5e565b60405180910390fd5b60006108da83836108d5610fba565b610fd4565b90508373ffffffffffffffffffffffffffffffffffffffff168173ffffffffffffffffffffffffffffffffffffffff1614610950578382826040517f64283d7b000000000000000000000000000000000000000000000000000000008152600401610947939291906125b1565b60405180910390fd5b50505050565b6060600060065467ffffffffffffffff81111561097657610975612278565b5b6040519080825280602002602001820160405280156109a45781602001602082028036833780820191505090505b509050600080600190505b60065481116109f957808383815181106109cc576109cb6125e8565b5b60200260200101818152505081806109e390612569565b92505080806109f190612569565b9150506109af565b50819250505090565b60606040518060400160405280600b81526020017f68656c6c6f20776f726c64000000000000000000000000000000000000000000815250905090565b600160066000828254610a529190612535565b9250508190555060006006549050610a6a82826111ee565b6000600760008381526020019081526020016000209050828160000160006101000a81548173ffffffffffffffffffffffffffffffffffffffff021916908373ffffffffffffffffffffffffffffffffffffffff16021790555060008160010160006101000a81548173ffffffffffffffffffffffffffffffffffffffff021916908373ffffffffffffffffffffffffffffffffffffffff1602179055506000816002018190555060008160030181905550505050565b610b3c83838360405180602001604052806000815250610d4c565b505050565b6000610b4c82610ef5565b9050919050565b60008073ffffffffffffffffffffffffffffffffffffffff168273ffffffffffffffffffffffffffffffffffffffff1603610bc65760006040517f89c62b64000000000000000000000000000000000000000000000000000000008152600401610bbd9190611f5e565b60405180910390fd5b600360008373ffffffffffffffffffffffffffffffffffffffff1673ffffffffffffffffffffffffffffffffffffffff168152602001908152602001600020549050919050565b600060076000838152602001908152602001600020600301549050919050565b600060076000838152602001908152602001600020600201549050919050565b606060018054610c5c906124d5565b80601f0160208091040260200160405190810160405280929190818152602001828054610c88906124d5565b8015610cd55780601f10610caa57610100808354040283529160200191610cd5565b820191906000526020600020905b815481529060010190602001808311610cb857829003601f168201915b5050505050905090565b60006007600083815260200190815260200160002060000160009054906101000a900473ffffffffffffffffffffffffffffffffffffffff169050919050565b610d31610d2a610fba565b83836112e7565b5050565b610d48610d4183610b41565b8284611456565b5050565b610d57848484610854565b610d63848484846115c3565b50505050565b6000600760008481526020019081526020016000209050818160030181905550505050565b6060610d9982610ef5565b506000610da461177a565b90506000815111610dc45760405180602001604052806000815250610def565b80610dce84611791565b604051602001610ddf929190612653565b6040516020818303038152906040525b915050919050565b6000600560008473ffffffffffffffffffffffffffffffffffffffff1673ffffffffffffffffffffffffffffffffffffffff16815260200190815260200160002060008373ffffffffffffffffffffffffffffffffffffffff1673ffffffffffffffffffffffffffffffffffffffff16815260200190815260200160002060009054906101000a900460ff16905092915050565b60007f01ffc9a7000000000000000000000000000000000000000000000000000000007bffffffffffffffffffffffffffffffffffffffffffffffffffffffff1916827bffffffffffffffffffffffffffffffffffffffffffffffffffffffff1916149050919050565b600080610f018361185f565b9050600073ffffffffffffffffffffffffffffffffffffffff168173ffffffffffffffffffffffffffffffffffffffff1603610f7457826040517f7e273289000000000000000000000000000000000000000000000000000000008152600401610f6b9190611ff4565b60405180910390fd5b80915050919050565b60006004600083815260200190815260200160002060009054906101000a900473ffffffffffffffffffffffffffffffffffffffff169050919050565b600033905090565b610fcf838383600161189c565b505050565b600080610fe08461185f565b9050600073ffffffffffffffffffffffffffffffffffffffff168373ffffffffffffffffffffffffffffffffffffffff161461102257611021818486611a61565b5b600073ffffffffffffffffffffffffffffffffffffffff168173ffffffffffffffffffffffffffffffffffffffff16146110b35761106460008560008061189c565b6001600360008373ffffffffffffffffffffffffffffffffffffffff1673ffffffffffffffffffffffffffffffffffffffff168152602001908152602001600020600082825403925050819055505b600073ffffffffffffffffffffffffffffffffffffffff168573ffffffffffffffffffffffffffffffffffffffff1614611136576001600360008773ffffffffffffffffffffffffffffffffffffffff1673ffffffffffffffffffffffffffffffffffffffff168152602001908152602001600020600082825401925050819055505b846002600086815260200190815260200160002060006101000a81548173ffffffffffffffffffffffffffffffffffffffff021916908373ffffffffffffffffffffffffffffffffffffffff160217905550838573ffffffffffffffffffffffffffffffffffffffff168273ffffffffffffffffffffffffffffffffffffffff167fddf252ad1be2c89b69c2b068fc378daa952ba7f163c4a11628f55a4df523b3ef60405160405180910390a4809150509392505050565b600073ffffffffffffffffffffffffffffffffffffffff168273ffffffffffffffffffffffffffffffffffffffff16036112605760006040517f64a0ae920000000000000000000000000000000000000000000000000000000081526004016112579190611f5e565b60405180910390fd5b600061126e83836000610fd4565b9050600073ffffffffffffffffffffffffffffffffffffffff168173ffffffffffffffffffffffffffffffffffffffff16146112e25760006040517f73c6ac6e0000000000000000000000000000000000000000000000000000000081526004016112d99190611f5e565b60405180910390fd5b505050565b600073ffffffffffffffffffffffffffffffffffffffff168273ffffffffffffffffffffffffffffffffffffffff160361135857816040517f5b08ba1800000000000000000000000000000000000000000000000000000000815260040161134f9190611f5e565b60405180910390fd5b80600560008573ffffffffffffffffffffffffffffffffffffffff1673ffffffffffffffffffffffffffffffffffffffff16815260200190815260200160002060008473ffffffffffffffffffffffffffffffffffffffff1673ffffffffffffffffffffffffffffffffffffffff16815260200190815260200160002060006101000a81548160ff0219169083151502179055508173ffffffffffffffffffffffffffffffffffffffff168373ffffffffffffffffffffffffffffffffffffffff167f17307eab39ab6107e8899845ad3d59bd9653f200f220920489ca2b5937696c31836040516114499190611ded565b60405180910390a3505050565b600073ffffffffffffffffffffffffffffffffffffffff168273ffffffffffffffffffffffffffffffffffffffff16036114c85760006040517f64a0ae920000000000000000000000000000000000000000000000000000000081526004016114bf9190611f5e565b60405180910390fd5b60006114d683836000610fd4565b9050600073ffffffffffffffffffffffffffffffffffffffff168173ffffffffffffffffffffffffffffffffffffffff160361154957816040517f7e2732890000000000000000000000000000000000000000000000000000000081526004016115409190611ff4565b60405180910390fd5b8373ffffffffffffffffffffffffffffffffffffffff168173ffffffffffffffffffffffffffffffffffffffff16146115bd578382826040517f64283d7b0000000000000000000000000000000000000000000000000000000081526004016115b4939291906125b1565b60405180910390fd5b50505050565b60008373ffffffffffffffffffffffffffffffffffffffff163b1115611774578273ffffffffffffffffffffffffffffffffffffffff1663150b7a02611607610fba565b8685856040518563ffffffff1660e01b815260040161162994939291906126cc565b6020604051808303816000875af192505050801561166557506040513d601f19601f82011682018060405250810190611662919061272d565b60015b6116e9573d8060008114611695576040519150601f19603f3d011682016040523d82523d6000602084013e61169a565b606091505b5060008151036116e157836040517f64a0ae920000000000000000000000000000000000000000000000000000000081526004016116d89190611f5e565b60405180910390fd5b805181602001fd5b63150b7a0260e01b7bffffffffffffffffffffffffffffffffffffffffffffffffffffffff1916817bffffffffffffffffffffffffffffffffffffffffffffffffffffffff19161461177257836040517f64a0ae920000000000000000000000000000000000000000000000000000000081526004016117699190611f5e565b60405180910390fd5b505b50505050565b606060405180602001604052806000815250905090565b6060600060016117a084611b25565b01905060008167ffffffffffffffff8111156117bf576117be612278565b5b6040519080825280601f01601f1916602001820160405280156117f15781602001600182028036833780820191505090505b509050600082602001820190505b600115611854578080600190039150507f3031323334353637383961626364656600000000000000000000000000000000600a86061a8153600a85816118485761184761275a565b5b049450600085036117ff575b819350505050919050565b60006002600083815260200190815260200160002060009054906101000a900473ffffffffffffffffffffffffffffffffffffffff169050919050565b80806118d55750600073ffffffffffffffffffffffffffffffffffffffff168273ffffffffffffffffffffffffffffffffffffffff1614155b15611a095760006118e584610ef5565b9050600073ffffffffffffffffffffffffffffffffffffffff168373ffffffffffffffffffffffffffffffffffffffff161415801561195057508273ffffffffffffffffffffffffffffffffffffffff168173ffffffffffffffffffffffffffffffffffffffff1614155b801561196357506119618184610df7565b155b156119a557826040517fa9fbf51f00000000000000000000000000000000000000000000000000000000815260040161199c9190611f5e565b60405180910390fd5b8115611a0757838573ffffffffffffffffffffffffffffffffffffffff168273ffffffffffffffffffffffffffffffffffffffff167f8c5be1e5ebec7d5bd14f71427d1e84f3dd0314c0f7b2291e5b200ac8c7c3b92560405160405180910390a45b505b836004600085815260200190815260200160002060006101000a81548173ffffffffffffffffffffffffffffffffffffffff021916908373ffffffffffffffffffffffffffffffffffffffff16021790555050505050565b611a6c838383611c78565b611b2057600073ffffffffffffffffffffffffffffffffffffffff168373ffffffffffffffffffffffffffffffffffffffff1603611ae157806040517f7e273289000000000000000000000000000000000000000000000000000000008152600401611ad89190611ff4565b60405180910390fd5b81816040517f177e802f000000000000000000000000000000000000000000000000000000008152600401611b17929190612789565b60405180910390fd5b505050565b600080600090507a184f03e93ff9f4daa797ed6e38ed64bf6a1f0100000000000000008310611b83577a184f03e93ff9f4daa797ed6e38ed64bf6a1f0100000000000000008381611b7957611b7861275a565b5b0492506040810190505b6d04ee2d6d415b85acef81000000008310611bc0576d04ee2d6d415b85acef81000000008381611bb657611bb561275a565b5b0492506020810190505b662386f26fc100008310611bef57662386f26fc100008381611be557611be461275a565b5b0492506010810190505b6305f5e1008310611c18576305f5e1008381611c0e57611c0d61275a565b5b0492506008810190505b6127108310611c3d576127108381611c3357611c3261275a565b5b0492506004810190505b60648310611c605760648381611c5657611c5561275a565b5b0492506002810190505b600a8310611c6f576001810190505b80915050919050565b60008073ffffffffffffffffffffffffffffffffffffffff168373ffffffffffffffffffffffffffffffffffffffff1614158015611d3057508273ffffffffffffffffffffffffffffffffffffffff168473ffffffffffffffffffffffffffffffffffffffff161480611cf15750611cf08484610df7565b5b80611d2f57508273ffffffffffffffffffffffffffffffffffffffff16611d1783610f7d565b73ffffffffffffffffffffffffffffffffffffffff16145b5b90509392505050565b6000604051905090565b600080fd5b600080fd5b60007fffffffff0000000000000000000000000000000000000000000000000000000082169050919050565b611d8281611d4d565b8114611d8d57600080fd5b50565b600081359050611d9f81611d79565b92915050565b600060208284031215611dbb57611dba611d43565b5b6000611dc984828501611d90565b91505092915050565b60008115159050919050565b611de781611dd2565b82525050565b6000602082019050611e026000830184611dde565b92915050565b600081519050919050565b600082825260208201905092915050565b60005b83811015611e42578082015181840152602081019050611e27565b60008484015250505050565b6000601f19601f8301169050919050565b6000611e6a82611e08565b611e748185611e13565b9350611e84818560208601611e24565b611e8d81611e4e565b840191505092915050565b60006020820190508181036000830152611eb28184611e5f565b905092915050565b6000819050919050565b611ecd81611eba565b8114611ed857600080fd5b50565b600081359050611eea81611ec4565b92915050565b600060208284031215611f0657611f05611d43565b5b6000611f1484828501611edb565b91505092915050565b600073ffffffffffffffffffffffffffffffffffffffff82169050919050565b6000611f4882611f1d565b9050919050565b611f5881611f3d565b82525050565b6000602082019050611f736000830184611f4f565b92915050565b611f8281611f3d565b8114611f8d57600080fd5b50565b600081359050611f9f81611f79565b92915050565b60008060408385031215611fbc57611fbb611d43565b5b6000611fca85828601611f90565b9250506020611fdb85828601611edb565b9150509250929050565b611fee81611eba565b82525050565b60006020820190506120096000830184611fe5565b92915050565b60008060006060848603121561202857612027611d43565b5b600061203686828701611edb565b935050602061204786828701611f90565b925050604061205886828701611edb565b9150509250925092565b60008060006060848603121561207b5761207a611d43565b5b600061208986828701611f90565b935050602061209a86828701611f90565b92505060406120ab86828701611edb565b9150509250925092565b600081519050919050565b600082825260208201905092915050565b6000819050602082019050919050565b6120ea81611eba565b82525050565b60006120fc83836120e1565b60208301905092915050565b6000602082019050919050565b6000612120826120b5565b61212a81856120c0565b9350612135836120d1565b8060005b8381101561216657815161214d88826120f0565b975061215883612108565b925050600181019050612139565b5085935050505092915050565b6000602082019050818103600083015261218d8184612115565b905092915050565b6000602082840312156121ab576121aa611d43565b5b60006121b984828501611f90565b91505092915050565b6121cb81611dd2565b81146121d657600080fd5b50565b6000813590506121e8816121c2565b92915050565b6000806040838503121561220557612204611d43565b5b600061221385828601611f90565b9250506020612224858286016121d9565b9150509250929050565b6000806040838503121561224557612244611d43565b5b600061225385828601611edb565b925050602061226485828601611f90565b9150509250929050565b600080fd5b600080fd5b7f4e487b7100000000000000000000000000000000000000000000000000000000600052604160045260246000fd5b6122b082611e4e565b810181811067ffffffffffffffff821117156122cf576122ce612278565b5b80604052505050565b60006122e2611d39565b90506122ee82826122a7565b919050565b600067ffffffffffffffff82111561230e5761230d612278565b5b61231782611e4e565b9050602081019050919050565b82818337600083830152505050565b6000612346612341846122f3565b6122d8565b90508281526020810184848401111561236257612361612273565b5b61236d848285612324565b509392505050565b600082601f83011261238a5761238961226e565b5b813561239a848260208601612333565b91505092915050565b600080600080608085870312156123bd576123bc611d43565b5b60006123cb87828801611f90565b94505060206123dc87828801611f90565b93505060406123ed87828801611edb565b925050606085013567ffffffffffffffff81111561240e5761240d611d48565b5b61241a87828801612375565b91505092959194509250565b6000806040838503121561243d5761243c611d43565b5b600061244b85828601611edb565b925050602061245c85828601611edb565b9150509250929050565b6000806040838503121561247d5761247c611d43565b5b600061248b85828601611f90565b925050602061249c85828601611f90565b9150509250929050565b7f4e487b7100000000000000000000000000000000000000000000000000000000600052602260045260246000fd5b600060028204905060018216806124ed57607f821691505b602082108103612500576124ff6124a6565b5b50919050565b7f4e487b7100000000000000000000000000000000000000000000000000000000600052601160045260246000fd5b600061254082611eba565b915061254b83611eba565b925082820190508082111561256357612562612506565b5b92915050565b600061257482611eba565b91507fffffffffffffffffffffffffffffffffffffffffffffffffffffffffffffffff82036125a6576125a5612506565b5b600182019050919050565b60006060820190506125c66000830186611f4f565b6125d36020830185611fe5565b6125e06040830184611f4f565b949350505050565b7f4e487b7100000000000000000000000000000000000000000000000000000000600052603260045260246000fd5b600081905092915050565b600061262d82611e08565b6126378185612617565b9350612647818560208601611e24565b80840191505092915050565b600061265f8285612622565b915061266b8284612622565b91508190509392505050565b600081519050919050565b600082825260208201905092915050565b600061269e82612677565b6126a88185612682565b93506126b8818560208601611e24565b6126c181611e4e565b840191505092915050565b60006080820190506126e16000830187611f4f565b6126ee6020830186611f4f565b6126fb6040830185611fe5565b818103606083015261270d8184612693565b905095945050505050565b60008151905061272781611d79565b92915050565b60006020828403121561274357612742611d43565b5b600061275184828501612718565b91505092915050565b7f4e487b7100000000000000000000000000000000000000000000000000000000600052601260045260246000fd5b600060408201905061279e6000830185611f4f565b6127ab6020830184611fe5565b939250505056fea2646970667358221220176d85874bd54301bff9368c19519a029f5de6f88a82f14fabeaaf98500950d564736f6c63430008140033",
  "linkReferences": {},
  "deployedLinkReferences": {}
}