{
  "_format": "hh-sol-artifact-1",
  "contractName": "MyNFT",
  "sourceName": "contracts/MyNFT.sol",
  "abi": [
    {
      "inputs": [
        {
          "internalType": "string",
          "name": "name",
          "type": "string"
        },
        {
          "internalType": "string",
          "name": "symbol",
          "type": "string"
        }
      ],
      "stateMutability": "nonpayable",
      "type": "constructor"
    },
    {
      "inputs": [
        {
          "internalType": "address",
          "name": "sender",
          "type": "address"
        },
        {
          "internalType": "uint256",
          "name": "tokenId",
          "type": "uint256"
        },
        {
          "internalType": "address",
          "name": "owner",
          "type": "address"
        }
      ],
      "name": "ERC721IncorrectOwner",
      "type": "error"
    },
    {
      "inputs": [
        {
          "internalType": "address",
          "name": "operator",
          "type": "address"
        },
        {
          "internalType": "uint256",
          "name": "tokenId",
          "type": "uint256"
        }
      ],
      "name": "ERC721InsufficientApproval",
      "type": "error"
    },
    {
      "inputs": [
        {
          "internalType": "address",
          "name": "approver",
          "type": "address"
        }
      ],
      "name": "ERC721InvalidApprover",
      "type": "error"
    },
    {
      "inputs": [
        {
          "internalType": "address",
          "name": "operator",
          "type": "address"
        }
      ],
      "name": "ERC721InvalidOperator",
      "type": "error"
    },
    {
      "inputs": [
        {
          "internalType": "address",
          "name": "owner",
          "type": "address"
        }
      ],
      "name": "ERC721InvalidOwner",
      "type": "error"
    },
    {
      "inputs": [
        {
          "internalType": "address",
          "name": "receiver",
          "type": "address"
        }
      ],
      "name": "ERC721InvalidReceiver",
      "type": "error"
    },
    {
      "inputs": [
        {
          "internalType": "address",
          "name": "sender",
          "type": "address"
        }
      ],
      "name": "ERC721InvalidSender",
      "type": "error"
    },
    {
      "inputs": [
        {
          "internalType": "uint256",
          "name": "tokenId",
          "type": "uint256"
        }
      ],
      "name": "ERC721NonexistentToken",
      "type": "error"
    },
    {
      "anonymous": false,
      "inputs": [
        {
          "indexed": true,
          "internalType": "address",
          "name": "owner",
          "type": "address"
        },
        {
          "indexed": true,
          "internalType": "address",
          "name": "approved",
          "type": "address"
        },
        {
          "indexed": true,
          "internalType": "uint256",
          "name": "tokenId",
          "type": "uint256"
        }
      ],
      "name": "Approval",
      "type": "event"
    },
    {
      "anonymous": false,
      "inputs": [
        {
          "indexed": true,
          "internalType": "address",
          "name": "owner",
          "type": "address"
        },
        {
          "indexed": true,
          "internalType": "address",
          "name": "operator",
          "type": "address"
        },
        {
          "indexed": false,
          "internalType": "bool",
          "name": "approved",
          "type": "bool"
        }
      ],
      "name": "ApprovalForAll",
      "type": "event"
    },
    {
      "anonymous": false,
      "inputs": [
        {
          "indexed": true,
          "internalType": "address",
          "name": "from",
          "type": "address"
        },
        {
          "indexed": true,
          "internalType": "address",
          "name": "to",
          "type": "address"
        },
        {
          "indexed": true,
          "internalType": "uint256",
          "name": "tokenId",
          "type": "uint256"
        }
      ],
      "name": "Transfer",
      "type": "event"
    },
    {
      "anonymous": false,
      "inputs": [
        {
          "indexed": true,
          "internalType": "uint256",
          "name": "tokenId",
          "type": "uint256"
        },
        {
          "indexed": true,
          "internalType": "address",
          "name": "user",
          "type": "address"
        },
        {
          "indexed": false,
          "internalType": "uint256",
          "name": "expires",
          "type": "uint256"
        }
      ],
      "name": "UpdateUser",
      "type": "event"
    },
    {
      "inputs": [],
      "name": "AddItem",
      "outputs": [],
      "stateMutability": "nonpayable",
      "type": "function"
    },
    {
      "inputs": [],
      "name": "AwardItem",
      "outputs": [],
      "stateMutability": "nonpayable",
      "type": "function"
    },
    {
      "inputs": [],
      "name": "Checkexpired",
      "outputs": [],
      "stateMutability": "nonpayable",
      "type": "function"
    },
    {
      "inputs": [
        {
          "internalType": "address",
          "name": "to",
          "type": "address"
        },
        {
          "internalType": "uint256",
          "name": "tokenId",
          "type": "uint256"
        }
      ],
      "name": "approve",
      "outputs": [],
      "stateMutability": "nonpayable",
      "type": "function"
    },
    {
      "inputs": [
        {
          "internalType": "address",
          "name": "owner",
          "type": "address"
        }
      ],
      "name": "balanceOf",
      "outputs": [
        {
          "internalType": "uint256",
          "name": "",
          "type": "uint256"
        }
      ],
      "stateMutability": "view",
      "type": "function"
    },
    {
      "inputs": [
        {
          "internalType": "uint256",
          "name": "tokenId",
          "type": "uint256"
        }
      ],
      "name": "getApproved",
      "outputs": [
        {
          "internalType": "address",
          "name": "",
          "type": "address"
        }
      ],
      "stateMutability": "view",
      "type": "function"
    },
    {
      "inputs": [
        {
          "internalType": "uint256",
          "name": "tokenId",
          "type": "uint256"
        }
      ],
      "name": "getCarPrice",
      "outputs": [
        {
          "internalType": "uint256",
          "name": "",
          "type": "uint256"
        }
      ],
      "stateMutability": "view",
      "type": "function"
    },
    {
      "inputs": [
        {
          "internalType": "uint256",
          "name": "tokenId",
          "type": "uint256"
        }
      ],
      "name": "getCarRealOwner",
      "outputs": [
        {
          "internalType": "address",
          "name": "",
          "type": "address"
        }
      ],
      "stateMutability": "view",
      "type": "function"
    },
    {
      "inputs": [],
      "name": "helloworld",
      "outputs": [
        {
          "internalType": "string",
          "name": "",
          "type": "string"
        }
      ],
      "stateMutability": "pure",
      "type": "function"
    },
    {
      "inputs": [
        {
          "internalType": "address",
          "name": "owner",
          "type": "address"
        },
        {
          "internalType": "address",
          "name": "operator",
          "type": "address"
        }
      ],
      "name": "isApprovedForAll",
      "outputs": [
        {
          "internalType": "bool",
          "name": "",
          "type": "bool"
        }
      ],
      "stateMutability": "view",
      "type": "function"
    },
    {
      "inputs": [],
      "name": "name",
      "outputs": [
        {
          "internalType": "string",
          "name": "",
          "type": "string"
        }
      ],
      "stateMutability": "view",
      "type": "function"
    },
    {
      "inputs": [
        {
          "internalType": "uint256",
          "name": "tokenId",
          "type": "uint256"
        }
      ],
      "name": "ownerOf",
      "outputs": [
        {
          "internalType": "address",
          "name": "",
          "type": "address"
        }
      ],
      "stateMutability": "view",
      "type": "function"
    },
    {
      "inputs": [
        {
          "internalType": "address",
          "name": "from",
          "type": "address"
        },
        {
          "internalType": "address",
          "name": "to",
          "type": "address"
        },
        {
          "internalType": "uint256",
          "name": "tokenId",
          "type": "uint256"
        }
      ],
      "name": "safeTransferFrom",
      "outputs": [],
      "stateMutability": "nonpayable",
      "type": "function"
    },
    {
      "inputs": [
        {
          "internalType": "address",
          "name": "from",
          "type": "address"
        },
        {
          "internalType": "address",
          "name": "to",
          "type": "address"
        },
        {
          "internalType": "uint256",
          "name": "tokenId",
          "type": "uint256"
        },
        {
          "internalType": "bytes",
          "name": "data",
          "type": "bytes"
        }
      ],
      "name": "safeTransferFrom",
      "outputs": [],
      "stateMutability": "nonpayable",
      "type": "function"
    },
    {
      "inputs": [
        {
          "internalType": "address",
          "name": "operator",
          "type": "address"
        },
        {
          "internalType": "bool",
          "name": "approved",
          "type": "bool"
        }
      ],
      "name": "setApprovalForAll",
      "outputs": [],
      "stateMutability": "nonpayable",
      "type": "function"
    },
    {
      "inputs": [
        {
          "internalType": "uint256",
          "name": "tokenId",
          "type": "uint256"
        },
        {
          "internalType": "uint256",
          "name": "price",
          "type": "uint256"
        }
      ],
      "name": "setCarPrice",
      "outputs": [],
      "stateMutability": "nonpayable",
      "type": "function"
    },
    {
      "inputs": [
        {
          "internalType": "uint256",
          "name": "tokenId",
          "type": "uint256"
        },
        {
          "internalType": "address",
          "name": "user",
          "type": "address"
        },
        {
          "internalType": "uint256",
          "name": "expires",
          "type": "uint256"
        }
      ],
      "name": "setUser",
      "outputs": [],
      "stateMutability": "nonpayable",
      "type": "function"
    },
    {
      "inputs": [
        {
          "internalType": "bytes4",
          "name": "interfaceId",
          "type": "bytes4"
        }
      ],
      "name": "supportsInterface",
      "outputs": [
        {
          "internalType": "bool",
          "name": "",
          "type": "bool"
        }
      ],
      "stateMutability": "view",
      "type": "function"
    },
    {
      "inputs": [],
      "name": "symbol",
      "outputs": [
        {
          "internalType": "string",
          "name": "",
          "type": "string"
        }
      ],
      "stateMutability": "view",
      "type": "function"
    },
    {
      "inputs": [
        {
          "internalType": "uint256",
          "name": "tokenId",
          "type": "uint256"
        }
      ],
      "name": "tokenURI",
      "outputs": [
        {
          "internalType": "string",
          "name": "",
          "type": "string"
        }
      ],
      "stateMutability": "view",
      "type": "function"
    },
    {
      "inputs": [],
      "name": "totalItems",
      "outputs": [
        {
          "internalType": "uint256[]",
          "name": "",
          "type": "uint256[]"
        }
      ],
      "stateMutability": "view",
      "type": "function"
    },
    {
      "inputs": [],
      "name": "totalSupply",
      "outputs": [
        {
          "internalType": "uint256",
          "name": "",
          "type": "uint256"
        }
      ],
      "stateMutability": "view",
      "type": "function"
    },
    {
      "inputs": [
        {
          "internalType": "uint256",
          "name": "tokenID",
          "type": "uint256"
        },
        {
          "internalType": "address",
          "name": "user",
          "type": "address"
        }
      ],
      "name": "transfer",
      "outputs": [],
      "stateMutability": "nonpayable",
      "type": "function"
    },
    {
      "inputs": [
        {
          "internalType": "address",
          "name": "from",
          "type": "address"
        },
        {
          "internalType": "address",
          "name": "to",
          "type": "address"
        },
        {
          "internalType": "uint256",
          "name": "tokenId",
          "type": "uint256"
        }
      ],
      "name": "transferFrom",
      "outputs": [],
      "stateMutability": "nonpayable",
      "type": "function"
    },
    {
      "inputs": [],
      "name": "userCarNum",
      "outputs": [
        {
          "internalType": "uint256",
          "name": "",
          "type": "uint256"
        }
      ],
      "stateMutability": "view",
      "type": "function"
    },
    {
      "inputs": [
        {
          "internalType": "uint256",
          "name": "tokenId",
          "type": "uint256"
        }
      ],
      "name": "userExpires",
      "outputs": [
        {
          "internalType": "uint256",
          "name": "",
          "type": "uint256"
        }
      ],
      "stateMutability": "view",
      "type": "function"
    },
    {
      "inputs": [
        {
          "internalType": "uint256",
          "name": "tokenId",
          "type": "uint256"
        }
      ],
      "name": "userof",
      "outputs": [
        {
          "internalType": "address",
          "name": "",
          "type": "address"
        }
      ],
      "stateMutability": "view",
      "type": "function"
    }
  ],
  "bytecode": "0x60806040523480156200001157600080fd5b506040516200303338038062003033833981810160405281019062000037919062000202565b818181600090816200004a9190620004d2565b5080600190816200005c9190620004d2565b50505060006006819055505050620005b9565b6000604051905090565b600080fd5b600080fd5b600080fd5b600080fd5b6000601f19601f8301169050919050565b7f4e487b7100000000000000000000000000000000000000000000000000000000600052604160045260246000fd5b620000d8826200008d565b810181811067ffffffffffffffff82111715620000fa57620000f96200009e565b5b80604052505050565b60006200010f6200006f565b90506200011d8282620000cd565b919050565b600067ffffffffffffffff82111562000140576200013f6200009e565b5b6200014b826200008d565b9050602081019050919050565b60005b83811015620001785780820151818401526020810190506200015b565b60008484015250505050565b60006200019b620001958462000122565b62000103565b905082815260208101848484011115620001ba57620001b962000088565b5b620001c784828562000158565b509392505050565b600082601f830112620001e757620001e662000083565b5b8151620001f984826020860162000184565b91505092915050565b600080604083850312156200021c576200021b62000079565b5b600083015167ffffffffffffffff8111156200023d576200023c6200007e565b5b6200024b85828601620001cf565b925050602083015167ffffffffffffffff8111156200026f576200026e6200007e565b5b6200027d85828601620001cf565b9150509250929050565b600081519050919050565b7f4e487b7100000000000000000000000000000000000000000000000000000000600052602260045260246000fd5b60006002820490506001821680620002da57607f821691505b602082108103620002f057620002ef62000292565b5b50919050565b60008190508160005260206000209050919050565b60006020601f8301049050919050565b600082821b905092915050565b6000600883026200035a7fffffffffffffffffffffffffffffffffffffffffffffffffffffffffffffffff826200031b565b6200036686836200031b565b95508019841693508086168417925050509392505050565b6000819050919050565b6000819050919050565b6000620003b3620003ad620003a7846200037e565b62000388565b6200037e565b9050919050565b6000819050919050565b620003cf8362000392565b620003e7620003de82620003ba565b84845462000328565b825550505050565b600090565b620003fe620003ef565b6200040b818484620003c4565b505050565b5b81811015620004335762000427600082620003f4565b60018101905062000411565b5050565b601f82111562000482576200044c81620002f6565b62000457846200030b565b8101602085101562000467578190505b6200047f62000476856200030b565b83018262000410565b50505b505050565b600082821c905092915050565b6000620004a76000198460080262000487565b1980831691505092915050565b6000620004c2838362000494565b9150826002028217905092915050565b620004dd8262000287565b67ffffffffffffffff811115620004f957620004f86200009e565b5b620005058254620002c1565b6200051282828562000437565b600060209050601f8311600181146200054a576000841562000535578287015190505b620005418582620004b4565b865550620005b1565b601f1984166200055a86620002f6565b60005b8281101562000584578489015182556001820191506020850194506020810190506200055d565b86831015620005a45784890151620005a0601f89168262000494565b8355505b6001600288020188555050505b505050505050565b612a6a80620005c96000396000f3fe608060405234801561001057600080fd5b50600436106101a95760003560e01c806342842e0e116100f9578063a22cb46511610097578063b96a608411610071578063b96a6084146104ba578063c87b56dd146104d6578063e985e9c514610506578063f4fd6a0214610536576101a9565b8063a22cb46514610466578063b7760c8f14610482578063b88d4fde1461049e576101a9565b806371e69a32116100d357806371e69a32146103b85780638fc88c48146103e857806395d89b4114610418578063971d6d6e14610436576101a9565b806342842e0e1461033c5780636352211e1461035857806370a0823114610388576101a9565b80631a241099116101665780632313aa84116101405780632313aa84146102da57806323b872dd146102e45780632799276d146103005780632f2f48591461031e576101a9565b80631a241099146102705780631a7553ab146102a05780631b8a910d146102be576101a9565b806301ffc9a7146101ae57806306fdde03146101de578063081812fc146101fc578063095ea7b31461022c57806313fa79ef1461024857806318160ddd14610252575b600080fd5b6101c860048036038101906101c39190611f5b565b610540565b6040516101d59190611fa3565b60405180910390f35b6101e6610622565b6040516101f3919061204e565b60405180910390f35b610216600480360381019061021191906120a6565b6106b4565b6040516102239190612114565b60405180910390f35b6102466004803603810190610241919061215b565b6106d0565b005b6102506106e6565b005b61025a6107ed565b60405161026791906121aa565b60405180910390f35b61028a600480360381019061028591906120a6565b6107f7565b6040516102979190612114565b60405180910390f35b6102a861085e565b6040516102b591906121aa565b60405180910390f35b6102d860048036038101906102d391906121c5565b6108db565b005b6102e261099e565b005b6102fe60048036038101906102f99190612218565b6109ac565b005b610308610aae565b6040516103159190612329565b60405180910390f35b610326610b5a565b604051610333919061204e565b60405180910390f35b61035660048036038101906103519190612218565b610b97565b005b610372600480360381019061036d91906120a6565b610bb7565b60405161037f9190612114565b60405180910390f35b6103a2600480360381019061039d919061234b565b610bc9565b6040516103af91906121aa565b60405180910390f35b6103d260048036038101906103cd91906120a6565b610c83565b6040516103df91906121aa565b60405180910390f35b61040260048036038101906103fd91906120a6565b610ca3565b60405161040f91906121aa565b60405180910390f35b610420610cc3565b60405161042d919061204e565b60405180910390f35b610450600480360381019061044b91906120a6565b610d55565b60405161045d9190612114565b60405180910390f35b610480600480360381019061047b91906123a4565b610d95565b005b61049c600480360381019061049791906123e4565b610dab565b005b6104b860048036038101906104b39190612559565b610dc2565b005b6104d460048036038101906104cf91906125dc565b610ddf565b005b6104f060048036038101906104eb91906120a6565b610e04565b6040516104fd919061204e565b60405180910390f35b610520600480360381019061051b919061261c565b610e6d565b60405161052d9190611fa3565b60405180910390f35b61053e610f01565b005b60007f80ac58cd000000000000000000000000000000000000000000000000000000007bffffffffffffffffffffffffffffffffffffffffffffffffffffffff1916827bffffffffffffffffffffffffffffffffffffffffffffffffffffffff1916148061060b57507f5b5e139f000000000000000000000000000000000000000000000000000000007bffffffffffffffffffffffffffffffffffffffffffffffffffffffff1916827bffffffffffffffffffffffffffffffffffffffffffffffffffffffff1916145b8061061b575061061a82611041565b5b9050919050565b6060600080546106319061268b565b80601f016020809104026020016040519081016040528092919081815260200182805461065d9061268b565b80156106aa5780601f1061067f576101008083540402835291602001916106aa565b820191906000526020600020905b81548152906001019060200180831161068d57829003601f168201915b5050505050905090565b60006106bf826110ab565b506106c982611133565b9050919050565b6106e282826106dd611170565b611178565b5050565b6000600190505b60065481116107ea57426007600083815260200190815260200160002060020154116107d75760006007600083815260200190815260200160002060010160006101000a81548173ffffffffffffffffffffffffffffffffffffffff021916908373ffffffffffffffffffffffffffffffffffffffff16021790555060006007600083815260200190815260200160002060020181905550600073ffffffffffffffffffffffffffffffffffffffff16817fd0d4d2465fbaaa658444f22a71af0576dc66d910f58504ac3091a8f2e7e0462d60006040516107ce9190612701565b60405180910390a35b80806107e29061274b565b9150506106ed565b50565b6000600654905090565b60004260076000848152602001908152602001600020600201541161081f5760009050610859565b6007600083815260200190815260200160002060010160009054906101000a900473ffffffffffffffffffffffffffffffffffffffff1690505b919050565b600080600090506000600190505b60065481116108d3573373ffffffffffffffffffffffffffffffffffffffff16610895826107f7565b73ffffffffffffffffffffffffffffffffffffffff16036108c0576001826108bd9190612793565b91505b80806108cb9061274b565b91505061086c565b508091505090565b6000600760008581526020019081526020016000209050828160010160006101000a81548173ffffffffffffffffffffffffffffffffffffffff021916908373ffffffffffffffffffffffffffffffffffffffff16021790555042826109419190612793565b81600201819055508273ffffffffffffffffffffffffffffffffffffffff16847fd0d4d2465fbaaa658444f22a71af0576dc66d910f58504ac3091a8f2e7e0462d8460405161099091906121aa565b60405180910390a350505050565b6109aa3360065461118a565b565b600073ffffffffffffffffffffffffffffffffffffffff168273ffffffffffffffffffffffffffffffffffffffff1603610a1e5760006040517f64a0ae92000000000000000000000000000000000000000000000000000000008152600401610a159190612114565b60405180910390fd5b6000610a328383610a2d611170565b611283565b90508373ffffffffffffffffffffffffffffffffffffffff168173ffffffffffffffffffffffffffffffffffffffff1614610aa8578382826040517f64283d7b000000000000000000000000000000000000000000000000000000008152600401610a9f939291906127c7565b60405180910390fd5b50505050565b6060600060065467ffffffffffffffff811115610ace57610acd61242e565b5b604051908082528060200260200182016040528015610afc5781602001602082028036833780820191505090505b509050600080600190505b6006548111610b515780838381518110610b2457610b236127fe565b5b6020026020010181815250508180610b3b9061274b565b9250508080610b499061274b565b915050610b07565b50819250505090565b60606040518060400160405280600b81526020017f68656c6c6f20776f726c64000000000000000000000000000000000000000000815250905090565b610bb283838360405180602001604052806000815250610dc2565b505050565b6000610bc2826110ab565b9050919050565b60008073ffffffffffffffffffffffffffffffffffffffff168273ffffffffffffffffffffffffffffffffffffffff1603610c3c5760006040517f89c62b64000000000000000000000000000000000000000000000000000000008152600401610c339190612114565b60405180910390fd5b600360008373ffffffffffffffffffffffffffffffffffffffff1673ffffffffffffffffffffffffffffffffffffffff168152602001908152602001600020549050919050565b600060076000838152602001908152602001600020600301549050919050565b600060076000838152602001908152602001600020600201549050919050565b606060018054610cd29061268b565b80601f0160208091040260200160405190810160405280929190818152602001828054610cfe9061268b565b8015610d4b5780601f10610d2057610100808354040283529160200191610d4b565b820191906000526020600020905b815481529060010190602001808311610d2e57829003601f168201915b5050505050905090565b60006007600083815260200190815260200160002060000160009054906101000a900473ffffffffffffffffffffffffffffffffffffffff169050919050565b610da7610da0611170565b838361149d565b5050565b610dbe610db783610bb7565b828461160c565b5050565b610dcd8484846109ac565b610dd984848484611779565b50505050565b6000600760008481526020019081526020016000209050818160030181905550505050565b6060610e0f826110ab565b506000610e1a611930565b90506000815111610e3a5760405180602001604052806000815250610e65565b80610e4484611947565b604051602001610e55929190612869565b6040516020818303038152906040525b915050919050565b6000600560008473ffffffffffffffffffffffffffffffffffffffff1673ffffffffffffffffffffffffffffffffffffffff16815260200190815260200160002060008373ffffffffffffffffffffffffffffffffffffffff1673ffffffffffffffffffffffffffffffffffffffff16815260200190815260200160002060009054906101000a900460ff16905092915050565b600073ffffffffffffffffffffffffffffffffffffffff163373ffffffffffffffffffffffffffffffffffffffff1603610f70576040517f08c379a0000000000000000000000000000000000000000000000000000000008152600401610f67906128d9565b60405180910390fd5b600160066000828254610f839190612793565b9250508190555060006007600060065481526020019081526020016000209050338160000160006101000a81548173ffffffffffffffffffffffffffffffffffffffff021916908373ffffffffffffffffffffffffffffffffffffffff16021790555060008160010160006101000a81548173ffffffffffffffffffffffffffffffffffffffff021916908373ffffffffffffffffffffffffffffffffffffffff160217905550600081600201819055506000816003018190555050565b60007f01ffc9a7000000000000000000000000000000000000000000000000000000007bffffffffffffffffffffffffffffffffffffffffffffffffffffffff1916827bffffffffffffffffffffffffffffffffffffffffffffffffffffffff1916149050919050565b6000806110b783611a15565b9050600073ffffffffffffffffffffffffffffffffffffffff168173ffffffffffffffffffffffffffffffffffffffff160361112a57826040517f7e27328900000000000000000000000000000000000000000000000000000000815260040161112191906121aa565b60405180910390fd5b80915050919050565b60006004600083815260200190815260200160002060009054906101000a900473ffffffffffffffffffffffffffffffffffffffff169050919050565b600033905090565b6111858383836001611a52565b505050565b600073ffffffffffffffffffffffffffffffffffffffff168273ffffffffffffffffffffffffffffffffffffffff16036111fc5760006040517f64a0ae920000000000000000000000000000000000000000000000000000000081526004016111f39190612114565b60405180910390fd5b600061120a83836000611283565b9050600073ffffffffffffffffffffffffffffffffffffffff168173ffffffffffffffffffffffffffffffffffffffff161461127e5760006040517f73c6ac6e0000000000000000000000000000000000000000000000000000000081526004016112759190612114565b60405180910390fd5b505050565b60008061128f84611a15565b9050600073ffffffffffffffffffffffffffffffffffffffff168373ffffffffffffffffffffffffffffffffffffffff16146112d1576112d0818486611c17565b5b600073ffffffffffffffffffffffffffffffffffffffff168173ffffffffffffffffffffffffffffffffffffffff161461136257611313600085600080611a52565b6001600360008373ffffffffffffffffffffffffffffffffffffffff1673ffffffffffffffffffffffffffffffffffffffff168152602001908152602001600020600082825403925050819055505b600073ffffffffffffffffffffffffffffffffffffffff168573ffffffffffffffffffffffffffffffffffffffff16146113e5576001600360008773ffffffffffffffffffffffffffffffffffffffff1673ffffffffffffffffffffffffffffffffffffffff168152602001908152602001600020600082825401925050819055505b846002600086815260200190815260200160002060006101000a81548173ffffffffffffffffffffffffffffffffffffffff021916908373ffffffffffffffffffffffffffffffffffffffff160217905550838573ffffffffffffffffffffffffffffffffffffffff168273ffffffffffffffffffffffffffffffffffffffff167fddf252ad1be2c89b69c2b068fc378daa952ba7f163c4a11628f55a4df523b3ef60405160405180910390a4809150509392505050565b600073ffffffffffffffffffffffffffffffffffffffff168273ffffffffffffffffffffffffffffffffffffffff160361150e57816040517f5b08ba180000000000000000000000000000000000000000000000000000000081526004016115059190612114565b60405180910390fd5b80600560008573ffffffffffffffffffffffffffffffffffffffff1673ffffffffffffffffffffffffffffffffffffffff16815260200190815260200160002060008473ffffffffffffffffffffffffffffffffffffffff1673ffffffffffffffffffffffffffffffffffffffff16815260200190815260200160002060006101000a81548160ff0219169083151502179055508173ffffffffffffffffffffffffffffffffffffffff168373ffffffffffffffffffffffffffffffffffffffff167f17307eab39ab6107e8899845ad3d59bd9653f200f220920489ca2b5937696c31836040516115ff9190611fa3565b60405180910390a3505050565b600073ffffffffffffffffffffffffffffffffffffffff168273ffffffffffffffffffffffffffffffffffffffff160361167e5760006040517f64a0ae920000000000000000000000000000000000000000000000000000000081526004016116759190612114565b60405180910390fd5b600061168c83836000611283565b9050600073ffffffffffffffffffffffffffffffffffffffff168173ffffffffffffffffffffffffffffffffffffffff16036116ff57816040517f7e2732890000000000000000000000000000000000000000000000000000000081526004016116f691906121aa565b60405180910390fd5b8373ffffffffffffffffffffffffffffffffffffffff168173ffffffffffffffffffffffffffffffffffffffff1614611773578382826040517f64283d7b00000000000000000000000000000000000000000000000000000000815260040161176a939291906127c7565b60405180910390fd5b50505050565b60008373ffffffffffffffffffffffffffffffffffffffff163b111561192a578273ffffffffffffffffffffffffffffffffffffffff1663150b7a026117bd611170565b8685856040518563ffffffff1660e01b81526004016117df949392919061294e565b6020604051808303816000875af192505050801561181b57506040513d601f19601f8201168201806040525081019061181891906129af565b60015b61189f573d806000811461184b576040519150601f19603f3d011682016040523d82523d6000602084013e611850565b606091505b50600081510361189757836040517f64a0ae9200000000000000000000000000000000000000000000000000000000815260040161188e9190612114565b60405180910390fd5b805181602001fd5b63150b7a0260e01b7bffffffffffffffffffffffffffffffffffffffffffffffffffffffff1916817bffffffffffffffffffffffffffffffffffffffffffffffffffffffff19161461192857836040517f64a0ae9200000000000000000000000000000000000000000000000000000000815260040161191f9190612114565b60405180910390fd5b505b50505050565b606060405180602001604052806000815250905090565b60606000600161195684611cdb565b01905060008167ffffffffffffffff8111156119755761197461242e565b5b6040519080825280601f01601f1916602001820160405280156119a75781602001600182028036833780820191505090505b509050600082602001820190505b600115611a0a578080600190039150507f3031323334353637383961626364656600000000000000000000000000000000600a86061a8153600a85816119fe576119fd6129dc565b5b049450600085036119b5575b819350505050919050565b60006002600083815260200190815260200160002060009054906101000a900473ffffffffffffffffffffffffffffffffffffffff169050919050565b8080611a8b5750600073ffffffffffffffffffffffffffffffffffffffff168273ffffffffffffffffffffffffffffffffffffffff1614155b15611bbf576000611a9b846110ab565b9050600073ffffffffffffffffffffffffffffffffffffffff168373ffffffffffffffffffffffffffffffffffffffff1614158015611b0657508273ffffffffffffffffffffffffffffffffffffffff168173ffffffffffffffffffffffffffffffffffffffff1614155b8015611b195750611b178184610e6d565b155b15611b5b57826040517fa9fbf51f000000000000000000000000000000000000000000000000000000008152600401611b529190612114565b60405180910390fd5b8115611bbd57838573ffffffffffffffffffffffffffffffffffffffff168273ffffffffffffffffffffffffffffffffffffffff167f8c5be1e5ebec7d5bd14f71427d1e84f3dd0314c0f7b2291e5b200ac8c7c3b92560405160405180910390a45b505b836004600085815260200190815260200160002060006101000a81548173ffffffffffffffffffffffffffffffffffffffff021916908373ffffffffffffffffffffffffffffffffffffffff16021790555050505050565b611c22838383611e2e565b611cd657600073ffffffffffffffffffffffffffffffffffffffff168373ffffffffffffffffffffffffffffffffffffffff1603611c9757806040517f7e273289000000000000000000000000000000000000000000000000000000008152600401611c8e91906121aa565b60405180910390fd5b81816040517f177e802f000000000000000000000000000000000000000000000000000000008152600401611ccd929190612a0b565b60405180910390fd5b505050565b600080600090507a184f03e93ff9f4daa797ed6e38ed64bf6a1f0100000000000000008310611d39577a184f03e93ff9f4daa797ed6e38ed64bf6a1f0100000000000000008381611d2f57611d2e6129dc565b5b0492506040810190505b6d04ee2d6d415b85acef81000000008310611d76576d04ee2d6d415b85acef81000000008381611d6c57611d6b6129dc565b5b0492506020810190505b662386f26fc100008310611da557662386f26fc100008381611d9b57611d9a6129dc565b5b0492506010810190505b6305f5e1008310611dce576305f5e1008381611dc457611dc36129dc565b5b0492506008810190505b6127108310611df3576127108381611de957611de86129dc565b5b0492506004810190505b60648310611e165760648381611e0c57611e0b6129dc565b5b0492506002810190505b600a8310611e25576001810190505b80915050919050565b60008073ffffffffffffffffffffffffffffffffffffffff168373ffffffffffffffffffffffffffffffffffffffff1614158015611ee657508273ffffffffffffffffffffffffffffffffffffffff168473ffffffffffffffffffffffffffffffffffffffff161480611ea75750611ea68484610e6d565b5b80611ee557508273ffffffffffffffffffffffffffffffffffffffff16611ecd83611133565b73ffffffffffffffffffffffffffffffffffffffff16145b5b90509392505050565b6000604051905090565b600080fd5b600080fd5b60007fffffffff0000000000000000000000000000000000000000000000000000000082169050919050565b611f3881611f03565b8114611f4357600080fd5b50565b600081359050611f5581611f2f565b92915050565b600060208284031215611f7157611f70611ef9565b5b6000611f7f84828501611f46565b91505092915050565b60008115159050919050565b611f9d81611f88565b82525050565b6000602082019050611fb86000830184611f94565b92915050565b600081519050919050565b600082825260208201905092915050565b60005b83811015611ff8578082015181840152602081019050611fdd565b60008484015250505050565b6000601f19601f8301169050919050565b600061202082611fbe565b61202a8185611fc9565b935061203a818560208601611fda565b61204381612004565b840191505092915050565b600060208201905081810360008301526120688184612015565b905092915050565b6000819050919050565b61208381612070565b811461208e57600080fd5b50565b6000813590506120a08161207a565b92915050565b6000602082840312156120bc576120bb611ef9565b5b60006120ca84828501612091565b91505092915050565b600073ffffffffffffffffffffffffffffffffffffffff82169050919050565b60006120fe826120d3565b9050919050565b61210e816120f3565b82525050565b60006020820190506121296000830184612105565b92915050565b612138816120f3565b811461214357600080fd5b50565b6000813590506121558161212f565b92915050565b6000806040838503121561217257612171611ef9565b5b600061218085828601612146565b925050602061219185828601612091565b9150509250929050565b6121a481612070565b82525050565b60006020820190506121bf600083018461219b565b92915050565b6000806000606084860312156121de576121dd611ef9565b5b60006121ec86828701612091565b93505060206121fd86828701612146565b925050604061220e86828701612091565b9150509250925092565b60008060006060848603121561223157612230611ef9565b5b600061223f86828701612146565b935050602061225086828701612146565b925050604061226186828701612091565b9150509250925092565b600081519050919050565b600082825260208201905092915050565b6000819050602082019050919050565b6122a081612070565b82525050565b60006122b28383612297565b60208301905092915050565b6000602082019050919050565b60006122d68261226b565b6122e08185612276565b93506122eb83612287565b8060005b8381101561231c57815161230388826122a6565b975061230e836122be565b9250506001810190506122ef565b5085935050505092915050565b6000602082019050818103600083015261234381846122cb565b905092915050565b60006020828403121561236157612360611ef9565b5b600061236f84828501612146565b91505092915050565b61238181611f88565b811461238c57600080fd5b50565b60008135905061239e81612378565b92915050565b600080604083850312156123bb576123ba611ef9565b5b60006123c985828601612146565b92505060206123da8582860161238f565b9150509250929050565b600080604083850312156123fb576123fa611ef9565b5b600061240985828601612091565b925050602061241a85828601612146565b9150509250929050565b600080fd5b600080fd5b7f4e487b7100000000000000000000000000000000000000000000000000000000600052604160045260246000fd5b61246682612004565b810181811067ffffffffffffffff821117156124855761248461242e565b5b80604052505050565b6000612498611eef565b90506124a4828261245d565b919050565b600067ffffffffffffffff8211156124c4576124c361242e565b5b6124cd82612004565b9050602081019050919050565b82818337600083830152505050565b60006124fc6124f7846124a9565b61248e565b90508281526020810184848401111561251857612517612429565b5b6125238482856124da565b509392505050565b600082601f8301126125405761253f612424565b5b81356125508482602086016124e9565b91505092915050565b6000806000806080858703121561257357612572611ef9565b5b600061258187828801612146565b945050602061259287828801612146565b93505060406125a387828801612091565b925050606085013567ffffffffffffffff8111156125c4576125c3611efe565b5b6125d08782880161252b565b91505092959194509250565b600080604083850312156125f3576125f2611ef9565b5b600061260185828601612091565b925050602061261285828601612091565b9150509250929050565b6000806040838503121561263357612632611ef9565b5b600061264185828601612146565b925050602061265285828601612146565b9150509250929050565b7f4e487b7100000000000000000000000000000000000000000000000000000000600052602260045260246000fd5b600060028204905060018216806126a357607f821691505b6020821081036126b6576126b561265c565b5b50919050565b6000819050919050565b6000819050919050565b60006126eb6126e66126e1846126bc565b6126c6565b612070565b9050919050565b6126fb816126d0565b82525050565b600060208201905061271660008301846126f2565b92915050565b7f4e487b7100000000000000000000000000000000000000000000000000000000600052601160045260246000fd5b600061275682612070565b91507fffffffffffffffffffffffffffffffffffffffffffffffffffffffffffffffff82036127885761278761271c565b5b600182019050919050565b600061279e82612070565b91506127a983612070565b92508282019050808211156127c1576127c061271c565b5b92915050565b60006060820190506127dc6000830186612105565b6127e9602083018561219b565b6127f66040830184612105565b949350505050565b7f4e487b7100000000000000000000000000000000000000000000000000000000600052603260045260246000fd5b600081905092915050565b600061284382611fbe565b61284d818561282d565b935061285d818560208601611fda565b80840191505092915050565b60006128758285612838565b91506128818284612838565b91508190509392505050565b7f4552433732313a206d696e7420746f20746865207a65726f2061646472657373600082015250565b60006128c3602083611fc9565b91506128ce8261288d565b602082019050919050565b600060208201905081810360008301526128f2816128b6565b9050919050565b600081519050919050565b600082825260208201905092915050565b6000612920826128f9565b61292a8185612904565b935061293a818560208601611fda565b61294381612004565b840191505092915050565b60006080820190506129636000830187612105565b6129706020830186612105565b61297d604083018561219b565b818103606083015261298f8184612915565b905095945050505050565b6000815190506129a981611f2f565b92915050565b6000602082840312156129c5576129c4611ef9565b5b60006129d38482850161299a565b91505092915050565b7f4e487b7100000000000000000000000000000000000000000000000000000000600052601260045260246000fd5b6000604082019050612a206000830185612105565b612a2d602083018461219b565b939250505056fea264697066735822122082075ca9ba604e1b4d8d2f0a4626f4c3c78356023e9042b0b4b078858fa3950c64736f6c63430008140033",
  "linkReferences": {},
  "deployedLinkReferences": {}
}